{"abi":[{"type":"constructor","inputs":[{"name":"owner_","type":"address","internalType":"address"}],"stateMutability":"nonpayable"},{"type":"function","name":"acceptOwnership","inputs":[],"outputs":[],"stateMutability":"nonpayable"},{"type":"function","name":"executePayout","inputs":[{"name":"policyId","type":"uint256","internalType":"uint256"},{"name":"to","type":"address","internalType":"address"},{"name":"amount","type":"uint256","internalType":"uint256"}],"outputs":[],"stateMutability":"nonpayable"},{"type":"function","name":"insurance","inputs":[],"outputs":[{"name":"","type":"address","internalType":"address"}],"stateMutability":"view"},{"type":"function","name":"owner","inputs":[],"outputs":[{"name":"","type":"address","internalType":"address"}],"stateMutability":"view"},{"type":"function","name":"pendingOwner","inputs":[],"outputs":[{"name":"","type":"address","internalType":"address"}],"stateMutability":"view"},{"type":"function","name":"policyNFT","inputs":[],"outputs":[{"name":"","type":"address","internalType":"address"}],"stateMutability":"view"},{"type":"function","name":"renounceOwnership","inputs":[],"outputs":[],"stateMutability":"nonpayable"},{"type":"function","name":"setAddresses","inputs":[{"name":"_insurance","type":"address","internalType":"address"},{"name":"_policyNFT","type":"address","internalType":"address"},{"name":"_treasury","type":"address","internalType":"address"}],"outputs":[],"stateMutability":"nonpayable"},{"type":"function","name":"transferOwnership","inputs":[{"name":"newOwner","type":"address","internalType":"address"}],"outputs":[],"stateMutability":"nonpayable"},{"type":"function","name":"treasury","inputs":[],"outputs":[{"name":"","type":"address","internalType":"address"}],"stateMutability":"view"},{"type":"event","name":"OwnershipTransferStarted","inputs":[{"name":"previousOwner","type":"address","indexed":true,"internalType":"address"},{"name":"newOwner","type":"address","indexed":true,"internalType":"address"}],"anonymous":false},{"type":"event","name":"OwnershipTransferred","inputs":[{"name":"previousOwner","type":"address","indexed":true,"internalType":"address"},{"name":"newOwner","type":"address","indexed":true,"internalType":"address"}],"anonymous":false},{"type":"event","name":"PayoutExecuted","inputs":[{"name":"policyId","type":"uint256","indexed":true,"internalType":"uint256"},{"name":"amount","type":"uint256","indexed":false,"internalType":"uint256"},{"name":"to","type":"address","indexed":false,"internalType":"address"}],"anonymous":false},{"type":"error","name":"OwnableInvalidOwner","inputs":[{"name":"owner","type":"address","internalType":"address"}]},{"type":"error","name":"OwnableUnauthorizedAccount","inputs":[{"name":"account","type":"address","internalType":"address"}]}],"bytecode":{"object":"0x608060405234801561000f575f80fd5b5060405161089438038061089483398101604081905261002e916100d7565b806001600160a01b03811661005c57604051631e4fbdf760e01b81525f600482015260240160405180910390fd5b6100658161006c565b5050610104565b600180546001600160a01b031916905561008581610088565b50565b5f80546001600160a01b038381166001600160a01b0319831681178455604051919092169283917f8be0079c531659141344cd1fd0a4f28419497f9722a3daafe3b4186f6b6457e09190a35050565b5f602082840312156100e7575f80fd5b81516001600160a01b03811681146100fd575f80fd5b9392505050565b610783806101115f395ff3fe608060405234801561000f575f80fd5b506004361061009b575f3560e01c806389cf32041161006357806389cf3204146101065780638da5cb5b14610119578063af02808a14610129578063e30c39781461013c578063f2fde38b1461014d575f80fd5b8063363bf9641461009f57806361d027b3146100b4578063715018a6146100e357806379ba5097146100eb5780637ca06380146100f3575b5f80fd5b6100b26100ad366004610575565b610160565b005b6004546100c7906001600160a01b031681565b6040516001600160a01b03909116815260200160405180910390f35b6100b26101a7565b6100b26101ba565b6100b26101013660046105bd565b610203565b6002546100c7906001600160a01b031681565b5f546001600160a01b03166100c7565b6003546100c7906001600160a01b031681565b6001546001600160a01b03166100c7565b6100b261015b3660046105f2565b610462565b6101686104d2565b600280546001600160a01b039485166001600160a01b031991821617909155600380549385169382169390931790925560048054919093169116179055565b6101af6104d2565b6101b85f6104fe565b565b60015433906001600160a01b031681146101f75760405163118cdaa760e01b81526001600160a01b03821660048201526024015b60405180910390fd5b610200816104fe565b50565b61020b6104d2565b600254604051632b07fce360e01b8152600481018590525f916001600160a01b031690632b07fce39060240161014060405180830381865afa158015610253573d5f803e3d5ffd5b505050506040513d601f19601f82011682018060405250810190610277919061068d565b905060038160a00151600681111561029157610291610739565b14806102b2575060028160a0015160068111156102b0576102b0610739565b145b6102eb5760405162461bcd60e51b815260206004820152600a6024820152694241445f53544154555360b01b60448201526064016101ee565b6004805460405163117de2fd60e01b81526001600160a01b03868116938201939093526024810185905291169063117de2fd906044015f604051808303815f87803b158015610338575f80fd5b505af115801561034a573d5f803e3d5ffd5b5050600254604051631ef884f160e21b8152600481018890526001600160a01b039091169250637be213c491506024015f604051808303815f87803b158015610391575f80fd5b505af11580156103a3573d5f803e3d5ffd5b505050508061012001515f1461041957600354610120820151604051630852cd8d60e31b81526001600160a01b03909216916342966c68916103eb9160040190815260200190565b5f604051808303815f87803b158015610402575f80fd5b505af1158015610414573d5f803e3d5ffd5b505050505b604080518381526001600160a01b038516602082015285917f40f651dc83f641ea585fa153ae4bd763a8a419526e00d59d3218cae8e906da08910160405180910390a250505050565b61046a6104d2565b600180546001600160a01b0383166001600160a01b0319909116811790915561049a5f546001600160a01b031690565b6001600160a01b03167f38d16b8cac22d99fc7c124b9cd0de2d3fa1faef420bfe791d8c362d765e2270060405160405180910390a350565b5f546001600160a01b031633146101b85760405163118cdaa760e01b81523360048201526024016101ee565b600180546001600160a01b0319169055610200815f80546001600160a01b038381166001600160a01b0319831681178455604051919092169283917f8be0079c531659141344cd1fd0a4f28419497f9722a3daafe3b4186f6b6457e09190a35050565b6001600160a01b0381168114610200575f80fd5b5f805f60608486031215610587575f80fd5b833561059281610561565b925060208401356105a281610561565b915060408401356105b281610561565b809150509250925092565b5f805f606084860312156105cf575f80fd5b8335925060208401356105e181610561565b929592945050506040919091013590565b5f60208284031215610602575f80fd5b813561060d81610561565b9392505050565b604051610140810167ffffffffffffffff8111828210171561064457634e487b7160e01b5f52604160045260245ffd5b60405290565b805160038110610658575f80fd5b919050565b805161065881610561565b805160078110610658575f80fd5b805167ffffffffffffffff81168114610658575f80fd5b5f610140828403121561069e575f80fd5b6106a6610614565b825181526106b66020840161064a565b60208201526106c76040840161065d565b604082015260608301516060820152608083015160808201526106ec60a08401610668565b60a08201526106fd60c08401610676565b60c082015261070e60e08401610676565b60e0820152610100610721818501610676565b90820152610120928301519281019290925250919050565b634e487b7160e01b5f52602160045260245ffdfea2646970667358221220bc4e672419d46f78533829e0a3d9ada96228fd66ff9ace481ea38309142f352a64736f6c63430008180033","linkReferences":{}},"methodIdentifiers":{"acceptOwnership()":"79ba5097","executePayout(uint256,address,uint256)":"7ca06380","insurance()":"89cf3204","owner()":"8da5cb5b","pendingOwner()":"e30c3978","policyNFT()":"af02808a","renounceOwnership()":"715018a6","setAddresses(address,address,address)":"363bf964","transferOwnership(address)":"f2fde38b","treasury()":"61d027b3"},"id":1}