{"abi":[{"type":"constructor","inputs":[],"stateMutability":"nonpayable"},{"type":"receive","stateMutability":"payable"},{"type":"function","name":"acceptOwnership","inputs":[],"outputs":[],"stateMutability":"nonpayable"},{"type":"function","name":"depositPremium","inputs":[{"name":"policyId","type":"uint256","internalType":"uint256"}],"outputs":[],"stateMutability":"payable"},{"type":"function","name":"insurance","inputs":[],"outputs":[{"name":"","type":"address","internalType":"address"}],"stateMutability":"view"},{"type":"function","name":"owner","inputs":[],"outputs":[{"name":"","type":"address","internalType":"address"}],"stateMutability":"view"},{"type":"function","name":"pause","inputs":[],"outputs":[],"stateMutability":"nonpayable"},{"type":"function","name":"paused","inputs":[],"outputs":[{"name":"","type":"bool","internalType":"bool"}],"stateMutability":"view"},{"type":"function","name":"payOut","inputs":[{"name":"to","type":"address","internalType":"address"},{"name":"policyId","type":"uint256","internalType":"uint256"},{"name":"amount","type":"uint256","internalType":"uint256"}],"outputs":[],"stateMutability":"nonpayable"},{"type":"function","name":"payout","inputs":[],"outputs":[{"name":"","type":"address","internalType":"address"}],"stateMutability":"view"},{"type":"function","name":"pendingOwner","inputs":[],"outputs":[{"name":"","type":"address","internalType":"address"}],"stateMutability":"view"},{"type":"function","name":"refund","inputs":[{"name":"to","type":"address","internalType":"address"},{"name":"policyId","type":"uint256","internalType":"uint256"},{"name":"amount","type":"uint256","internalType":"uint256"}],"outputs":[],"stateMutability":"nonpayable"},{"type":"function","name":"renounceOwnership","inputs":[],"outputs":[],"stateMutability":"nonpayable"},{"type":"function","name":"setInsurance","inputs":[{"name":"insurance_","type":"address","internalType":"address"}],"outputs":[],"stateMutability":"nonpayable"},{"type":"function","name":"setPayout","inputs":[{"name":"payout_","type":"address","internalType":"address"}],"outputs":[],"stateMutability":"nonpayable"},{"type":"function","name":"transferOwnership","inputs":[{"name":"newOwner","type":"address","internalType":"address"}],"outputs":[],"stateMutability":"nonpayable"},{"type":"function","name":"unpause","inputs":[],"outputs":[],"stateMutability":"nonpayable"},{"type":"event","name":"OwnershipTransferStarted","inputs":[{"name":"previousOwner","type":"address","indexed":true,"internalType":"address"},{"name":"newOwner","type":"address","indexed":true,"internalType":"address"}],"anonymous":false},{"type":"event","name":"OwnershipTransferred","inputs":[{"name":"previousOwner","type":"address","indexed":true,"internalType":"address"},{"name":"newOwner","type":"address","indexed":true,"internalType":"address"}],"anonymous":false},{"type":"event","name":"Paused","inputs":[{"name":"account","type":"address","indexed":false,"internalType":"address"}],"anonymous":false},{"type":"event","name":"PayoutExecuted","inputs":[{"name":"policyId","type":"uint256","indexed":true,"internalType":"uint256"},{"name":"to","type":"address","indexed":true,"internalType":"address"},{"name":"amount","type":"uint256","indexed":false,"internalType":"uint256"}],"anonymous":false},{"type":"event","name":"PremiumPaid","inputs":[{"name":"policyId","type":"uint256","indexed":true,"internalType":"uint256"},{"name":"payer","type":"address","indexed":true,"internalType":"address"},{"name":"amount","type":"uint256","indexed":false,"internalType":"uint256"}],"anonymous":false},{"type":"event","name":"RefundIssued","inputs":[{"name":"policyId","type":"uint256","indexed":true,"internalType":"uint256"},{"name":"to","type":"address","indexed":true,"internalType":"address"},{"name":"amount","type":"uint256","indexed":false,"internalType":"uint256"}],"anonymous":false},{"type":"event","name":"Unpaused","inputs":[{"name":"account","type":"address","indexed":false,"internalType":"address"}],"anonymous":false},{"type":"error","name":"EnforcedPause","inputs":[]},{"type":"error","name":"ExpectedPause","inputs":[]},{"type":"error","name":"InvalidAmount","inputs":[]},{"type":"error","name":"NotAuthorized","inputs":[]},{"type":"error","name":"OwnableInvalidOwner","inputs":[{"name":"owner","type":"address","internalType":"address"}]},{"type":"error","name":"OwnableUnauthorizedAccount","inputs":[{"name":"account","type":"address","internalType":"address"}]},{"type":"error","name":"ReentrancyGuardReentrantCall","inputs":[]},{"type":"error","name":"ZeroAddress","inputs":[]}],"bytecode":{"object":"0x608060405234801561000f575f5ffd5b50335f73ffffffffffffffffffffffffffffffffffffffff168173ffffffffffffffffffffffffffffffffffffffff1603610081575f6040517f1e4fbdf700000000000000000000000000000000000000000000000000000000815260040161007891906101d4565b60405180910390fd5b6100908161009e60201b60201c565b5060016002819055506101ed565b60015f6101000a81549073ffffffffffffffffffffffffffffffffffffffff02191690556100d1816100d460201b60201c565b50565b5f5f5f9054906101000a900473ffffffffffffffffffffffffffffffffffffffff169050815f5f6101000a81548173ffffffffffffffffffffffffffffffffffffffff021916908373ffffffffffffffffffffffffffffffffffffffff1602179055508173ffffffffffffffffffffffffffffffffffffffff168173ffffffffffffffffffffffffffffffffffffffff167f8be0079c531659141344cd1fd0a4f28419497f9722a3daafe3b4186f6b6457e060405160405180910390a35050565b5f73ffffffffffffffffffffffffffffffffffffffff82169050919050565b5f6101be82610195565b9050919050565b6101ce816101b4565b82525050565b5f6020820190506101e75f8301846101c5565b92915050565b61113b806101fa5f395ff3fe6080604052600436106100eb575f3560e01c80638456cb5911610089578063df75f77111610058578063df75f7711461026e578063e30c397814610296578063eeab8ed0146102c0578063f2fde38b146102dc576100f2565b80638456cb59146101dc57806389cf3204146101f25780638da5cb5b1461021c578063a3ff39b214610246576100f2565b806363bd1d4a116100c557806363bd1d4a1461015e5780636cd7751f14610188578063715018a6146101b057806379ba5097146101c6576100f2565b806318fd8903146100f65780633f4ba83a1461011e5780635c975abb14610134576100f2565b366100f257005b5f5ffd5b348015610101575f5ffd5b5061011c60048036038101906101179190610f23565b610304565b005b348015610129575f5ffd5b5061013261049f565b005b34801561013f575f5ffd5b506101486104b1565b6040516101559190610f8d565b60405180910390f35b348015610169575f5ffd5b506101726104c6565b60405161017f9190610fb5565b60405180910390f35b348015610193575f5ffd5b506101ae60048036038101906101a99190610fce565b6104eb565b005b3480156101bb575f5ffd5b506101c461059c565b005b3480156101d1575f5ffd5b506101da6105af565b005b3480156101e7575f5ffd5b506101f061063d565b005b3480156101fd575f5ffd5b5061020661064f565b6040516102139190610fb5565b60405180910390f35b348015610227575f5ffd5b50610230610675565b60405161023d9190610fb5565b60405180910390f35b348015610251575f5ffd5b5061026c60048036038101906102679190610fce565b61069c565b005b348015610279575f5ffd5b50610294600480360381019061028f9190610f23565b61074c565b005b3480156102a1575f5ffd5b506102aa6108e6565b6040516102b79190610fb5565b60405180910390f35b6102da60048036038101906102d59190610ff9565b61090e565b005b3480156102e7575f5ffd5b5061030260048036038101906102fd9190610fce565b610a28565b005b600360019054906101000a900473ffffffffffffffffffffffffffffffffffffffff1673ffffffffffffffffffffffffffffffffffffffff163373ffffffffffffffffffffffffffffffffffffffff161461038b576040517fea8e4eb500000000000000000000000000000000000000000000000000000000815260040160405180910390fd5b610393610ad4565b61039b610b18565b5f73ffffffffffffffffffffffffffffffffffffffff168373ffffffffffffffffffffffffffffffffffffffff1603610400576040517fd92e233d00000000000000000000000000000000000000000000000000000000815260040160405180910390fd5b5f8103610439576040517f2c5211c600000000000000000000000000000000000000000000000000000000815260040160405180910390fd5b6104438382610b59565b8273ffffffffffffffffffffffffffffffffffffffff16827f7a482fdeb6bc9a1376f597068a214a7a39472bb2eff1b8cad21ba04f49ddca1b8360405161048a9190611033565b60405180910390a361049a610c06565b505050565b6104a7610c10565b6104af610c97565b565b5f60035f9054906101000a900460ff16905090565b60045f9054906101000a900473ffffffffffffffffffffffffffffffffffffffff1681565b6104f3610c10565b5f73ffffffffffffffffffffffffffffffffffffffff168173ffffffffffffffffffffffffffffffffffffffff1603610558576040517fd92e233d00000000000000000000000000000000000000000000000000000000815260040160405180910390fd5b80600360016101000a81548173ffffffffffffffffffffffffffffffffffffffff021916908373ffffffffffffffffffffffffffffffffffffffff16021790555050565b6105a4610c10565b6105ad5f610cf8565b565b5f6105b8610d28565b90508073ffffffffffffffffffffffffffffffffffffffff166105d96108e6565b73ffffffffffffffffffffffffffffffffffffffff161461063157806040517f118cdaa70000000000000000000000000000000000000000000000000000000081526004016106289190610fb5565b60405180910390fd5b61063a81610cf8565b50565b610645610c10565b61064d610d2f565b565b600360019054906101000a900473ffffffffffffffffffffffffffffffffffffffff1681565b5f5f5f9054906101000a900473ffffffffffffffffffffffffffffffffffffffff16905090565b6106a4610c10565b5f73ffffffffffffffffffffffffffffffffffffffff168173ffffffffffffffffffffffffffffffffffffffff1603610709576040517fd92e233d00000000000000000000000000000000000000000000000000000000815260040160405180910390fd5b8060045f6101000a81548173ffffffffffffffffffffffffffffffffffffffff021916908373ffffffffffffffffffffffffffffffffffffffff16021790555050565b60045f9054906101000a900473ffffffffffffffffffffffffffffffffffffffff1673ffffffffffffffffffffffffffffffffffffffff163373ffffffffffffffffffffffffffffffffffffffff16146107d2576040517fea8e4eb500000000000000000000000000000000000000000000000000000000815260040160405180910390fd5b6107da610ad4565b6107e2610b18565b5f73ffffffffffffffffffffffffffffffffffffffff168373ffffffffffffffffffffffffffffffffffffffff1603610847576040517fd92e233d00000000000000000000000000000000000000000000000000000000815260040160405180910390fd5b5f8103610880576040517f2c5211c600000000000000000000000000000000000000000000000000000000815260040160405180910390fd5b61088a8382610b59565b8273ffffffffffffffffffffffffffffffffffffffff16827fbeaa99d72a600712e4656a7da04b2cabe31fb50fbf8f5b5f96513b0a4f495c1a836040516108d19190611033565b60405180910390a36108e1610c06565b505050565b5f60015f9054906101000a900473ffffffffffffffffffffffffffffffffffffffff16905090565b600360019054906101000a900473ffffffffffffffffffffffffffffffffffffffff1673ffffffffffffffffffffffffffffffffffffffff163373ffffffffffffffffffffffffffffffffffffffff1614610995576040517fea8e4eb500000000000000000000000000000000000000000000000000000000815260040160405180910390fd5b61099d610b18565b5f34036109d6576040517f2c5211c600000000000000000000000000000000000000000000000000000000815260040160405180910390fd5b3373ffffffffffffffffffffffffffffffffffffffff16817ffbf1458fbbddabb878de144276216e8ccda619cbac2d598e6ee37ff72173afb134604051610a1d9190611033565b60405180910390a350565b610a30610c10565b8060015f6101000a81548173ffffffffffffffffffffffffffffffffffffffff021916908373ffffffffffffffffffffffffffffffffffffffff1602179055508073ffffffffffffffffffffffffffffffffffffffff16610a8f610675565b73ffffffffffffffffffffffffffffffffffffffff167f38d16b8cac22d99fc7c124b9cd0de2d3fa1faef420bfe791d8c362d765e2270060405160405180910390a350565b6002805403610b0f576040517f3ee5aeb500000000000000000000000000000000000000000000000000000000815260040160405180910390fd5b60028081905550565b610b206104b1565b15610b57576040517fd93c066500000000000000000000000000000000000000000000000000000000815260040160405180910390fd5b565b5f8273ffffffffffffffffffffffffffffffffffffffff1682604051610b7e90611079565b5f6040518083038185875af1925050503d805f8114610bb8576040519150601f19603f3d011682016040523d82523d5f602084013e610bbd565b606091505b5050905080610c01576040517f08c379a0000000000000000000000000000000000000000000000000000000008152600401610bf8906110e7565b60405180910390fd5b505050565b6001600281905550565b610c18610d28565b73ffffffffffffffffffffffffffffffffffffffff16610c36610675565b73ffffffffffffffffffffffffffffffffffffffff1614610c9557610c59610d28565b6040517f118cdaa7000000000000000000000000000000000000000000000000000000008152600401610c8c9190610fb5565b60405180910390fd5b565b610c9f610d91565b5f60035f6101000a81548160ff0219169083151502179055507f5db9ee0a495bf2e6ff9c91a7834c1ba4fdd244a5e8aa4e537bd38aeae4b073aa610ce1610d28565b604051610cee9190610fb5565b60405180910390a1565b60015f6101000a81549073ffffffffffffffffffffffffffffffffffffffff0219169055610d2581610dd1565b50565b5f33905090565b610d37610b18565b600160035f6101000a81548160ff0219169083151502179055507f62e78cea01bee320cd4e420270b5ea74000d11b0c9f74754ebdbfc544b05a258610d7a610d28565b604051610d879190610fb5565b60405180910390a1565b610d996104b1565b610dcf576040517f8dfc202b00000000000000000000000000000000000000000000000000000000815260040160405180910390fd5b565b5f5f5f9054906101000a900473ffffffffffffffffffffffffffffffffffffffff169050815f5f6101000a81548173ffffffffffffffffffffffffffffffffffffffff021916908373ffffffffffffffffffffffffffffffffffffffff1602179055508173ffffffffffffffffffffffffffffffffffffffff168173ffffffffffffffffffffffffffffffffffffffff167f8be0079c531659141344cd1fd0a4f28419497f9722a3daafe3b4186f6b6457e060405160405180910390a35050565b5f5ffd5b5f73ffffffffffffffffffffffffffffffffffffffff82169050919050565b5f610ebf82610e96565b9050919050565b610ecf81610eb5565b8114610ed9575f5ffd5b50565b5f81359050610eea81610ec6565b92915050565b5f819050919050565b610f0281610ef0565b8114610f0c575f5ffd5b50565b5f81359050610f1d81610ef9565b92915050565b5f5f5f60608486031215610f3a57610f39610e92565b5b5f610f4786828701610edc565b9350506020610f5886828701610f0f565b9250506040610f6986828701610f0f565b9150509250925092565b5f8115159050919050565b610f8781610f73565b82525050565b5f602082019050610fa05f830184610f7e565b92915050565b610faf81610eb5565b82525050565b5f602082019050610fc85f830184610fa6565b92915050565b5f60208284031215610fe357610fe2610e92565b5b5f610ff084828501610edc565b91505092915050565b5f6020828403121561100e5761100d610e92565b5b5f61101b84828501610f0f565b91505092915050565b61102d81610ef0565b82525050565b5f6020820190506110465f830184611024565b92915050565b5f81905092915050565b50565b5f6110645f8361104c565b915061106f82611056565b5f82019050919050565b5f61108382611059565b9150819050919050565b5f82825260208201905092915050565b7f4554485f53454e445f4641494c000000000000000000000000000000000000005f82015250565b5f6110d1600d8361108d565b91506110dc8261109d565b602082019050919050565b5f6020820190508181035f8301526110fe816110c5565b905091905056fea26469706673582212204d857ae772fb89a30dfc4010dfa6a0acecf024dec33ed3a21a0cfe274a1cad3964736f6c634300081d0033","linkReferences":{}},"methodIdentifiers":{"acceptOwnership()":"79ba5097","depositPremium(uint256)":"eeab8ed0","insurance()":"89cf3204","owner()":"8da5cb5b","pause()":"8456cb59","paused()":"5c975abb","payOut(address,uint256,uint256)":"df75f771","payout()":"63bd1d4a","pendingOwner()":"e30c3978","refund(address,uint256,uint256)":"18fd8903","renounceOwnership()":"715018a6","setInsurance(address)":"6cd7751f","setPayout(address)":"a3ff39b2","transferOwnership(address)":"f2fde38b","unpause()":"3f4ba83a"},"id":56}