{"abi":[{"type":"constructor","inputs":[{"name":"owner_","type":"address","internalType":"address"}],"stateMutability":"nonpayable"},{"type":"function","name":"approve","inputs":[{"name":"to","type":"address","internalType":"address"},{"name":"tokenId","type":"uint256","internalType":"uint256"}],"outputs":[],"stateMutability":"nonpayable"},{"type":"function","name":"balanceOf","inputs":[{"name":"owner","type":"address","internalType":"address"}],"outputs":[{"name":"","type":"uint256","internalType":"uint256"}],"stateMutability":"view"},{"type":"function","name":"burn","inputs":[{"name":"tokenId","type":"uint256","internalType":"uint256"}],"outputs":[],"stateMutability":"nonpayable"},{"type":"function","name":"controllers","inputs":[{"name":"","type":"address","internalType":"address"}],"outputs":[{"name":"","type":"bool","internalType":"bool"}],"stateMutability":"view"},{"type":"function","name":"getApproved","inputs":[{"name":"tokenId","type":"uint256","internalType":"uint256"}],"outputs":[{"name":"","type":"address","internalType":"address"}],"stateMutability":"view"},{"type":"function","name":"isApprovedForAll","inputs":[{"name":"owner","type":"address","internalType":"address"},{"name":"operator","type":"address","internalType":"address"}],"outputs":[{"name":"","type":"bool","internalType":"bool"}],"stateMutability":"view"},{"type":"function","name":"lockToken","inputs":[{"name":"tokenId","type":"uint256","internalType":"uint256"},{"name":"on","type":"bool","internalType":"bool"}],"outputs":[],"stateMutability":"nonpayable"},{"type":"function","name":"locked","inputs":[{"name":"","type":"uint256","internalType":"uint256"}],"outputs":[{"name":"","type":"bool","internalType":"bool"}],"stateMutability":"view"},{"type":"function","name":"mint","inputs":[{"name":"to","type":"address","internalType":"address"}],"outputs":[{"name":"tokenId","type":"uint256","internalType":"uint256"}],"stateMutability":"nonpayable"},{"type":"function","name":"name","inputs":[],"outputs":[{"name":"","type":"string","internalType":"string"}],"stateMutability":"view"},{"type":"function","name":"owner","inputs":[],"outputs":[{"name":"","type":"address","internalType":"address"}],"stateMutability":"view"},{"type":"function","name":"ownerOf","inputs":[{"name":"tokenId","type":"uint256","internalType":"uint256"}],"outputs":[{"name":"","type":"address","internalType":"address"}],"stateMutability":"view"},{"type":"function","name":"renounceOwnership","inputs":[],"outputs":[],"stateMutability":"nonpayable"},{"type":"function","name":"safeTransferFrom","inputs":[{"name":"from","type":"address","internalType":"address"},{"name":"to","type":"address","internalType":"address"},{"name":"tokenId","type":"uint256","internalType":"uint256"}],"outputs":[],"stateMutability":"nonpayable"},{"type":"function","name":"safeTransferFrom","inputs":[{"name":"from","type":"address","internalType":"address"},{"name":"to","type":"address","internalType":"address"},{"name":"tokenId","type":"uint256","internalType":"uint256"},{"name":"data","type":"bytes","internalType":"bytes"}],"outputs":[],"stateMutability":"nonpayable"},{"type":"function","name":"setApprovalForAll","inputs":[{"name":"operator","type":"address","internalType":"address"},{"name":"approved","type":"bool","internalType":"bool"}],"outputs":[],"stateMutability":"nonpayable"},{"type":"function","name":"setController","inputs":[{"name":"who","type":"address","internalType":"address"},{"name":"on","type":"bool","internalType":"bool"}],"outputs":[],"stateMutability":"nonpayable"},{"type":"function","name":"supportsInterface","inputs":[{"name":"interfaceId","type":"bytes4","internalType":"bytes4"}],"outputs":[{"name":"","type":"bool","internalType":"bool"}],"stateMutability":"view"},{"type":"function","name":"symbol","inputs":[],"outputs":[{"name":"","type":"string","internalType":"string"}],"stateMutability":"view"},{"type":"function","name":"tokenURI","inputs":[{"name":"tokenId","type":"uint256","internalType":"uint256"}],"outputs":[{"name":"","type":"string","internalType":"string"}],"stateMutability":"view"},{"type":"function","name":"transferFrom","inputs":[{"name":"from","type":"address","internalType":"address"},{"name":"to","type":"address","internalType":"address"},{"name":"tokenId","type":"uint256","internalType":"uint256"}],"outputs":[],"stateMutability":"nonpayable"},{"type":"function","name":"transferOwnership","inputs":[{"name":"newOwner","type":"address","internalType":"address"}],"outputs":[],"stateMutability":"nonpayable"},{"type":"event","name":"Approval","inputs":[{"name":"owner","type":"address","indexed":true,"internalType":"address"},{"name":"approved","type":"address","indexed":true,"internalType":"address"},{"name":"tokenId","type":"uint256","indexed":true,"internalType":"uint256"}],"anonymous":false},{"type":"event","name":"ApprovalForAll","inputs":[{"name":"owner","type":"address","indexed":true,"internalType":"address"},{"name":"operator","type":"address","indexed":true,"internalType":"address"},{"name":"approved","type":"bool","indexed":false,"internalType":"bool"}],"anonymous":false},{"type":"event","name":"OwnershipTransferred","inputs":[{"name":"previousOwner","type":"address","indexed":true,"internalType":"address"},{"name":"newOwner","type":"address","indexed":true,"internalType":"address"}],"anonymous":false},{"type":"event","name":"Transfer","inputs":[{"name":"from","type":"address","indexed":true,"internalType":"address"},{"name":"to","type":"address","indexed":true,"internalType":"address"},{"name":"tokenId","type":"uint256","indexed":true,"internalType":"uint256"}],"anonymous":false},{"type":"error","name":"ERC721IncorrectOwner","inputs":[{"name":"sender","type":"address","internalType":"address"},{"name":"tokenId","type":"uint256","internalType":"uint256"},{"name":"owner","type":"address","internalType":"address"}]},{"type":"error","name":"ERC721InsufficientApproval","inputs":[{"name":"operator","type":"address","internalType":"address"},{"name":"tokenId","type":"uint256","internalType":"uint256"}]},{"type":"error","name":"ERC721InvalidApprover","inputs":[{"name":"approver","type":"address","internalType":"address"}]},{"type":"error","name":"ERC721InvalidOperator","inputs":[{"name":"operator","type":"address","internalType":"address"}]},{"type":"error","name":"ERC721InvalidOwner","inputs":[{"name":"owner","type":"address","internalType":"address"}]},{"type":"error","name":"ERC721InvalidReceiver","inputs":[{"name":"receiver","type":"address","internalType":"address"}]},{"type":"error","name":"ERC721InvalidSender","inputs":[{"name":"sender","type":"address","internalType":"address"}]},{"type":"error","name":"ERC721NonexistentToken","inputs":[{"name":"tokenId","type":"uint256","internalType":"uint256"}]},{"type":"error","name":"OwnableInvalidOwner","inputs":[{"name":"owner","type":"address","internalType":"address"}]},{"type":"error","name":"OwnableUnauthorizedAccount","inputs":[{"name":"account","type":"address","internalType":"address"}]}],"bytecode":{"object":"0x608060405234801562000010575f80fd5b50604051620016483803806200164883398101604081905262000033916200012c565b806040518060400160405280600f81526020016e536869656c64466920506f6c69637960881b8152506040518060400160405280600381526020016205346560ec1b815250815f9081620000889190620001f9565b506001620000978282620001f9565b5050506001600160a01b038116620000c857604051631e4fbdf760e01b81525f600482015260240160405180910390fd5b620000d381620000db565b5050620002c5565b600680546001600160a01b038381166001600160a01b0319831681179093556040519116919082907f8be0079c531659141344cd1fd0a4f28419497f9722a3daafe3b4186f6b6457e0905f90a35050565b5f602082840312156200013d575f80fd5b81516001600160a01b038116811462000154575f80fd5b9392505050565b634e487b7160e01b5f52604160045260245ffd5b600181811c908216806200018457607f821691505b602082108103620001a357634e487b7160e01b5f52602260045260245ffd5b50919050565b601f821115620001f457805f5260205f20601f840160051c81016020851015620001d05750805b601f840160051c820191505b81811015620001f1575f8155600101620001dc565b50505b505050565b81516001600160401b038111156200021557620002156200015b565b6200022d816200022684546200016f565b84620001a9565b602080601f83116001811462000263575f84156200024b5750858301515b5f19600386901b1c1916600185901b178555620002bd565b5f85815260208120601f198616915b82811015620002935788860151825594840194600190910190840162000272565b5085821015620002b157878501515f19600388901b60f8161c191681555b505060018460011b0185555b505050505050565b61137580620002d35f395ff3fe608060405234801561000f575f80fd5b506004361061013d575f3560e01c80638da5cb5b116100b4578063c87b56dd11610079578063c87b56dd146102a7578063d8549271146102ba578063da8c229e146102cd578063e0dba60f146102ef578063e985e9c514610302578063f2fde38b14610315575f80fd5b80638da5cb5b1461024657806395d89b4114610257578063a22cb4651461025f578063b45a3c0e14610272578063b88d4fde14610294575f80fd5b806342842e0e1161010557806342842e0e146101d157806342966c68146101e45780636352211e146101f75780636a6278421461020a57806370a082311461022b578063715018a61461023e575f80fd5b806301ffc9a71461014157806306fdde0314610169578063081812fc1461017e578063095ea7b3146101a957806323b872dd146101be575b5f80fd5b61015461014f366004610fad565b610328565b60405190151581526020015b60405180910390f35b610171610379565b6040516101609190611015565b61019161018c366004611027565b610408565b6040516001600160a01b039091168152602001610160565b6101bc6101b7366004611054565b61042f565b005b6101bc6101cc36600461107c565b61043e565b6101bc6101df36600461107c565b6104cc565b6101bc6101f2366004611027565b6104eb565b610191610205366004611027565b610551565b61021d6102183660046110b5565b61055b565b604051908152602001610160565b61021d6102393660046110b5565b6105ad565b6101bc6105f2565b6006546001600160a01b0316610191565b610171610605565b6101bc61026d3660046110dd565b610614565b610154610280366004611027565b60096020525f908152604090205460ff1681565b6101bc6102a2366004611122565b61061f565b6101716102b5366004611027565b610637565b6101bc6102c83660046111f7565b6106a8565b6101546102db3660046110b5565b60086020525f908152604090205460ff1681565b6101bc6102fd3660046110dd565b6106f5565b610154610310366004611218565b610727565b6101bc6103233660046110b5565b610754565b5f6001600160e01b031982166380ac58cd60e01b148061035857506001600160e01b03198216635b5e139f60e01b145b8061037357506301ffc9a760e01b6001600160e01b03198316145b92915050565b60605f805461038790611240565b80601f01602080910402602001604051908101604052809291908181526020018280546103b390611240565b80156103fe5780601f106103d5576101008083540402835291602001916103fe565b820191905f5260205f20905b8154815290600101906020018083116103e157829003601f168201915b5050505050905090565b5f6104128261078e565b505f828152600460205260409020546001600160a01b0316610373565b61043a8282336107c6565b5050565b6001600160a01b03821661046c57604051633250574960e11b81525f60048201526024015b60405180910390fd5b5f6104788383336107d3565b9050836001600160a01b0316816001600160a01b0316146104c6576040516364283d7b60e01b81526001600160a01b0380861660048301526024820184905282166044820152606401610463565b50505050565b6104e683838360405180602001604052805f81525061061f565b505050565b335f9081526008602052604090205460ff166105195760405162461bcd60e51b815260040161046390611278565b61052281610866565b5f8181526009602052604090205460ff161561054e575f818152600960205260409020805460ff191690555b50565b5f6103738261078e565b335f9081526008602052604081205460ff166105895760405162461bcd60e51b815260040161046390611278565b60075f8154610597906112a0565b918290555090506105a8828261089e565b919050565b5f6001600160a01b0382166105d7576040516322718ad960e21b81525f6004820152602401610463565b506001600160a01b03165f9081526003602052604090205490565b6105fa6108b7565b6106035f6108e4565b565b60606001805461038790611240565b61043a338383610935565b61062a84848461043e565b6104c633858585856109d3565b60606106428261078e565b505f61065860408051602081019091525f815290565b90505f8151116106765760405180602001604052805f8152506106a1565b8061068084610afb565b6040516020016106919291906112c4565b6040516020818303038152906040525b9392505050565b335f9081526008602052604090205460ff166106d65760405162461bcd60e51b815260040161046390611278565b5f91825260096020526040909120805460ff1916911515919091179055565b6106fd6108b7565b6001600160a01b03919091165f908152600860205260409020805460ff1916911515919091179055565b6001600160a01b039182165f90815260056020908152604080832093909416825291909152205460ff1690565b61075c6108b7565b6001600160a01b03811661078557604051631e4fbdf760e01b81525f6004820152602401610463565b61054e816108e4565b5f818152600260205260408120546001600160a01b03168061037357604051637e27328960e01b815260048101849052602401610463565b6104e68383836001610b8b565b5f828152600260205260408120546001600160a01b031681811580159061080257506001600160a01b03861615155b90508015610851575f8581526009602052604090205460ff16156108515760405162461bcd60e51b81526020600482015260066024820152651313d0d2d15160d21b6044820152606401610463565b61085c868686610c8f565b9695505050505050565b5f6108725f835f6107d3565b90506001600160a01b03811661043a57604051637e27328960e01b815260048101839052602401610463565b61043a828260405180602001604052805f815250610d81565b6006546001600160a01b031633146106035760405163118cdaa760e01b8152336004820152602401610463565b600680546001600160a01b038381166001600160a01b0319831681179093556040519116919082907f8be0079c531659141344cd1fd0a4f28419497f9722a3daafe3b4186f6b6457e0905f90a35050565b6001600160a01b03821661096757604051630b61174360e31b81526001600160a01b0383166004820152602401610463565b6001600160a01b038381165f81815260056020908152604080832094871680845294825291829020805460ff191686151590811790915591519182527f17307eab39ab6107e8899845ad3d59bd9653f200f220920489ca2b5937696c31910160405180910390a3505050565b6001600160a01b0383163b15610af457604051630a85bd0160e11b81526001600160a01b0384169063150b7a0290610a159088908890879087906004016112f2565b6020604051808303815f875af1925050508015610a4f575060408051601f3d908101601f19168201909252610a4c91810190611324565b60015b610ab6573d808015610a7c576040519150601f19603f3d011682016040523d82523d5f602084013e610a81565b606091505b5080515f03610aae57604051633250574960e11b81526001600160a01b0385166004820152602401610463565b805160208201fd5b6001600160e01b03198116630a85bd0160e11b14610af257604051633250574960e11b81526001600160a01b0385166004820152602401610463565b505b5050505050565b60605f610b0783610d98565b60010190505f8167ffffffffffffffff811115610b2657610b2661110e565b6040519080825280601f01601f191660200182016040528015610b50576020820181803683370190505b5090508181016020015b5f19016f181899199a1a9b1b9c1cb0b131b232b360811b600a86061a8153600a8504945084610b5a57509392505050565b8080610b9f57506001600160a01b03821615155b15610c60575f610bae8461078e565b90506001600160a01b03831615801590610bda5750826001600160a01b0316816001600160a01b031614155b8015610bed5750610beb8184610727565b155b15610c165760405163a9fbf51f60e01b81526001600160a01b0384166004820152602401610463565b8115610c5e5783856001600160a01b0316826001600160a01b03167f8c5be1e5ebec7d5bd14f71427d1e84f3dd0314c0f7b2291e5b200ac8c7c3b92560405160405180910390a45b505b50505f90815260046020526040902080546001600160a01b0319166001600160a01b0392909216919091179055565b5f828152600260205260408120546001600160a01b0390811690831615610cbb57610cbb818486610e6f565b6001600160a01b03811615610cf557610cd65f855f80610b8b565b6001600160a01b0381165f90815260036020526040902080545f190190555b6001600160a01b03851615610d23576001600160a01b0385165f908152600360205260409020805460010190555b5f8481526002602052604080822080546001600160a01b0319166001600160a01b0389811691821790925591518793918516917fddf252ad1be2c89b69c2b068fc378daa952ba7f163c4a11628f55a4df523b3ef91a4949350505050565b610d8b8383610ed3565b6104e6335f8585856109d3565b5f8072184f03e93ff9f4daa797ed6e38ed64bf6a1f0160401b8310610dd65772184f03e93ff9f4daa797ed6e38ed64bf6a1f0160401b830492506040015b6d04ee2d6d415b85acef81000000008310610e02576d04ee2d6d415b85acef8100000000830492506020015b662386f26fc100008310610e2057662386f26fc10000830492506010015b6305f5e1008310610e38576305f5e100830492506008015b6127108310610e4c57612710830492506004015b60648310610e5e576064830492506002015b600a83106103735760010192915050565b610e7a838383610f34565b6104e6576001600160a01b038316610ea857604051637e27328960e01b815260048101829052602401610463565b60405163177e802f60e01b81526001600160a01b038316600482015260248101829052604401610463565b6001600160a01b038216610efc57604051633250574960e11b81525f6004820152602401610463565b5f610f0883835f6107d3565b90506001600160a01b038116156104e6576040516339e3563760e11b81525f6004820152602401610463565b5f6001600160a01b03831615801590610f905750826001600160a01b0316846001600160a01b03161480610f6d5750610f6d8484610727565b80610f9057505f828152600460205260409020546001600160a01b038481169116145b949350505050565b6001600160e01b03198116811461054e575f80fd5b5f60208284031215610fbd575f80fd5b81356106a181610f98565b5f5b83811015610fe2578181015183820152602001610fca565b50505f910152565b5f8151808452611001816020860160208601610fc8565b601f01601f19169290920160200192915050565b602081525f6106a16020830184610fea565b5f60208284031215611037575f80fd5b5035919050565b80356001600160a01b03811681146105a8575f80fd5b5f8060408385031215611065575f80fd5b61106e8361103e565b946020939093013593505050565b5f805f6060848603121561108e575f80fd5b6110978461103e565b92506110a56020850161103e565b9150604084013590509250925092565b5f602082840312156110c5575f80fd5b6106a18261103e565b803580151581146105a8575f80fd5b5f80604083850312156110ee575f80fd5b6110f78361103e565b9150611105602084016110ce565b90509250929050565b634e487b7160e01b5f52604160045260245ffd5b5f805f8060808587031215611135575f80fd5b61113e8561103e565b935061114c6020860161103e565b925060408501359150606085013567ffffffffffffffff8082111561116f575f80fd5b818701915087601f830112611182575f80fd5b8135818111156111945761119461110e565b604051601f8201601f19908116603f011681019083821181831017156111bc576111bc61110e565b816040528281528a60208487010111156111d4575f80fd5b826020860160208301375f60208483010152809550505050505092959194509250565b5f8060408385031215611208575f80fd5b82359150611105602084016110ce565b5f8060408385031215611229575f80fd5b6112328361103e565b91506111056020840161103e565b600181811c9082168061125457607f821691505b60208210810361127257634e487b7160e01b5f52602260045260245ffd5b50919050565b6020808252600e908201526d2727aa2fa1a7a72a2927a62622a960911b604082015260600190565b5f600182016112bd57634e487b7160e01b5f52601160045260245ffd5b5060010190565b5f83516112d5818460208801610fc8565b8351908301906112e9818360208801610fc8565b01949350505050565b6001600160a01b03858116825284166020820152604081018390526080606082018190525f9061085c90830184610fea565b5f60208284031215611334575f80fd5b81516106a181610f9856fea26469706673582212203869a884b4e94c9d7c49a18e4c82a5b182efaee9cb0dabddebc9d76a7fb2036264736f6c63430008180033","linkReferences":{}},"methodIdentifiers":{"approve(address,uint256)":"095ea7b3","balanceOf(address)":"70a08231","burn(uint256)":"42966c68","controllers(address)":"da8c229e","getApproved(uint256)":"081812fc","isApprovedForAll(address,address)":"e985e9c5","lockToken(uint256,bool)":"d8549271","locked(uint256)":"b45a3c0e","mint(address)":"6a627842","name()":"06fdde03","owner()":"8da5cb5b","ownerOf(uint256)":"6352211e","renounceOwnership()":"715018a6","safeTransferFrom(address,address,uint256)":"42842e0e","safeTransferFrom(address,address,uint256,bytes)":"b88d4fde","setApprovalForAll(address,bool)":"a22cb465","setController(address,bool)":"e0dba60f","supportsInterface(bytes4)":"01ffc9a7","symbol()":"95d89b41","tokenURI(uint256)":"c87b56dd","transferFrom(address,address,uint256)":"23b872dd","transferOwnership(address)":"f2fde38b"},"id":3}