{"abi":[{"type":"constructor","inputs":[{"name":"name_","type":"string","internalType":"string"},{"name":"symbol_","type":"string","internalType":"string"}],"stateMutability":"nonpayable"},{"type":"function","name":"acceptOwnership","inputs":[],"outputs":[],"stateMutability":"nonpayable"},{"type":"function","name":"approve","inputs":[{"name":"to","type":"address","internalType":"address"},{"name":"tokenId","type":"uint256","internalType":"uint256"}],"outputs":[],"stateMutability":"nonpayable"},{"type":"function","name":"balanceOf","inputs":[{"name":"owner","type":"address","internalType":"address"}],"outputs":[{"name":"","type":"uint256","internalType":"uint256"}],"stateMutability":"view"},{"type":"function","name":"burn","inputs":[{"name":"tokenId","type":"uint256","internalType":"uint256"}],"outputs":[],"stateMutability":"nonpayable"},{"type":"function","name":"getApproved","inputs":[{"name":"tokenId","type":"uint256","internalType":"uint256"}],"outputs":[{"name":"","type":"address","internalType":"address"}],"stateMutability":"view"},{"type":"function","name":"isApprovedForAll","inputs":[{"name":"owner","type":"address","internalType":"address"},{"name":"operator","type":"address","internalType":"address"}],"outputs":[{"name":"","type":"bool","internalType":"bool"}],"stateMutability":"view"},{"type":"function","name":"mintFor","inputs":[{"name":"to","type":"address","internalType":"address"},{"name":"policyId","type":"uint256","internalType":"uint256"}],"outputs":[{"name":"tokenId","type":"uint256","internalType":"uint256"}],"stateMutability":"nonpayable"},{"type":"function","name":"minter","inputs":[],"outputs":[{"name":"","type":"address","internalType":"address"}],"stateMutability":"view"},{"type":"function","name":"name","inputs":[],"outputs":[{"name":"","type":"string","internalType":"string"}],"stateMutability":"view"},{"type":"function","name":"owner","inputs":[],"outputs":[{"name":"","type":"address","internalType":"address"}],"stateMutability":"view"},{"type":"function","name":"ownerOf","inputs":[{"name":"tokenId","type":"uint256","internalType":"uint256"}],"outputs":[{"name":"","type":"address","internalType":"address"}],"stateMutability":"view"},{"type":"function","name":"pendingOwner","inputs":[],"outputs":[{"name":"","type":"address","internalType":"address"}],"stateMutability":"view"},{"type":"function","name":"policyToken","inputs":[{"name":"","type":"uint256","internalType":"uint256"}],"outputs":[{"name":"","type":"uint256","internalType":"uint256"}],"stateMutability":"view"},{"type":"function","name":"renounceOwnership","inputs":[],"outputs":[],"stateMutability":"nonpayable"},{"type":"function","name":"safeTransferFrom","inputs":[{"name":"from","type":"address","internalType":"address"},{"name":"to","type":"address","internalType":"address"},{"name":"tokenId","type":"uint256","internalType":"uint256"}],"outputs":[],"stateMutability":"nonpayable"},{"type":"function","name":"safeTransferFrom","inputs":[{"name":"from","type":"address","internalType":"address"},{"name":"to","type":"address","internalType":"address"},{"name":"tokenId","type":"uint256","internalType":"uint256"},{"name":"data","type":"bytes","internalType":"bytes"}],"outputs":[],"stateMutability":"nonpayable"},{"type":"function","name":"setApprovalForAll","inputs":[{"name":"operator","type":"address","internalType":"address"},{"name":"approved","type":"bool","internalType":"bool"}],"outputs":[],"stateMutability":"nonpayable"},{"type":"function","name":"setBaseURI","inputs":[{"name":"baseURI_","type":"string","internalType":"string"}],"outputs":[],"stateMutability":"nonpayable"},{"type":"function","name":"setMinter","inputs":[{"name":"minter_","type":"address","internalType":"address"}],"outputs":[],"stateMutability":"nonpayable"},{"type":"function","name":"supportsInterface","inputs":[{"name":"interfaceId","type":"bytes4","internalType":"bytes4"}],"outputs":[{"name":"","type":"bool","internalType":"bool"}],"stateMutability":"view"},{"type":"function","name":"symbol","inputs":[],"outputs":[{"name":"","type":"string","internalType":"string"}],"stateMutability":"view"},{"type":"function","name":"tokenURI","inputs":[{"name":"tokenId","type":"uint256","internalType":"uint256"}],"outputs":[{"name":"","type":"string","internalType":"string"}],"stateMutability":"view"},{"type":"function","name":"transferFrom","inputs":[{"name":"from","type":"address","internalType":"address"},{"name":"to","type":"address","internalType":"address"},{"name":"tokenId","type":"uint256","internalType":"uint256"}],"outputs":[],"stateMutability":"nonpayable"},{"type":"function","name":"transferOwnership","inputs":[{"name":"newOwner","type":"address","internalType":"address"}],"outputs":[],"stateMutability":"nonpayable"},{"type":"event","name":"Approval","inputs":[{"name":"owner","type":"address","indexed":true,"internalType":"address"},{"name":"approved","type":"address","indexed":true,"internalType":"address"},{"name":"tokenId","type":"uint256","indexed":true,"internalType":"uint256"}],"anonymous":false},{"type":"event","name":"ApprovalForAll","inputs":[{"name":"owner","type":"address","indexed":true,"internalType":"address"},{"name":"operator","type":"address","indexed":true,"internalType":"address"},{"name":"approved","type":"bool","indexed":false,"internalType":"bool"}],"anonymous":false},{"type":"event","name":"OwnershipTransferStarted","inputs":[{"name":"previousOwner","type":"address","indexed":true,"internalType":"address"},{"name":"newOwner","type":"address","indexed":true,"internalType":"address"}],"anonymous":false},{"type":"event","name":"OwnershipTransferred","inputs":[{"name":"previousOwner","type":"address","indexed":true,"internalType":"address"},{"name":"newOwner","type":"address","indexed":true,"internalType":"address"}],"anonymous":false},{"type":"event","name":"Transfer","inputs":[{"name":"from","type":"address","indexed":true,"internalType":"address"},{"name":"to","type":"address","indexed":true,"internalType":"address"},{"name":"tokenId","type":"uint256","indexed":true,"internalType":"uint256"}],"anonymous":false},{"type":"error","name":"AlreadyPaid","inputs":[]},{"type":"error","name":"ERC721IncorrectOwner","inputs":[{"name":"sender","type":"address","internalType":"address"},{"name":"tokenId","type":"uint256","internalType":"uint256"},{"name":"owner","type":"address","internalType":"address"}]},{"type":"error","name":"ERC721InsufficientApproval","inputs":[{"name":"operator","type":"address","internalType":"address"},{"name":"tokenId","type":"uint256","internalType":"uint256"}]},{"type":"error","name":"ERC721InvalidApprover","inputs":[{"name":"approver","type":"address","internalType":"address"}]},{"type":"error","name":"ERC721InvalidOperator","inputs":[{"name":"operator","type":"address","internalType":"address"}]},{"type":"error","name":"ERC721InvalidOwner","inputs":[{"name":"owner","type":"address","internalType":"address"}]},{"type":"error","name":"ERC721InvalidReceiver","inputs":[{"name":"receiver","type":"address","internalType":"address"}]},{"type":"error","name":"ERC721InvalidSender","inputs":[{"name":"sender","type":"address","internalType":"address"}]},{"type":"error","name":"ERC721NonexistentToken","inputs":[{"name":"tokenId","type":"uint256","internalType":"uint256"}]},{"type":"error","name":"NotAuthorized","inputs":[]},{"type":"error","name":"OwnableInvalidOwner","inputs":[{"name":"owner","type":"address","internalType":"address"}]},{"type":"error","name":"OwnableUnauthorizedAccount","inputs":[{"name":"account","type":"address","internalType":"address"}]},{"type":"error","name":"ZeroAddress","inputs":[]}],"bytecode":{"object":"0x608060405234801561000f575f5ffd5b5060405161304e38038061304e83398181016040528101906100319190610322565b338282815f908161004291906105a8565b50806001908161005291906105a8565b5050505f73ffffffffffffffffffffffffffffffffffffffff168173ffffffffffffffffffffffffffffffffffffffff16036100c5575f6040517f1e4fbdf70000000000000000000000000000000000000000000000000000000081526004016100bc91906106b6565b60405180910390fd5b6100d4816100dc60201b60201c565b5050506106cf565b60075f6101000a81549073ffffffffffffffffffffffffffffffffffffffff021916905561010f8161011260201b60201c565b50565b5f60065f9054906101000a900473ffffffffffffffffffffffffffffffffffffffff1690508160065f6101000a81548173ffffffffffffffffffffffffffffffffffffffff021916908373ffffffffffffffffffffffffffffffffffffffff1602179055508173ffffffffffffffffffffffffffffffffffffffff168173ffffffffffffffffffffffffffffffffffffffff167f8be0079c531659141344cd1fd0a4f28419497f9722a3daafe3b4186f6b6457e060405160405180910390a35050565b5f604051905090565b5f5ffd5b5f5ffd5b5f5ffd5b5f5ffd5b5f601f19601f8301169050919050565b7f4e487b71000000000000000000000000000000000000000000000000000000005f52604160045260245ffd5b610234826101ee565b810181811067ffffffffffffffff82111715610253576102526101fe565b5b80604052505050565b5f6102656101d5565b9050610271828261022b565b919050565b5f67ffffffffffffffff8211156102905761028f6101fe565b5b610299826101ee565b9050602081019050919050565b8281835e5f83830152505050565b5f6102c66102c184610276565b61025c565b9050828152602081018484840111156102e2576102e16101ea565b5b6102ed8482856102a6565b509392505050565b5f82601f830112610309576103086101e6565b5b81516103198482602086016102b4565b91505092915050565b5f5f60408385031215610338576103376101de565b5b5f83015167ffffffffffffffff811115610355576103546101e2565b5b610361858286016102f5565b925050602083015167ffffffffffffffff811115610382576103816101e2565b5b61038e858286016102f5565b9150509250929050565b5f81519050919050565b7f4e487b71000000000000000000000000000000000000000000000000000000005f52602260045260245ffd5b5f60028204905060018216806103e657607f821691505b6020821081036103f9576103f86103a2565b5b50919050565b5f819050815f5260205f209050919050565b5f6020601f8301049050919050565b5f82821b905092915050565b5f6008830261045b7fffffffffffffffffffffffffffffffffffffffffffffffffffffffffffffffff82610420565b6104658683610420565b95508019841693508086168417925050509392505050565b5f819050919050565b5f819050919050565b5f6104a96104a461049f8461047d565b610486565b61047d565b9050919050565b5f819050919050565b6104c28361048f565b6104d66104ce826104b0565b84845461042c565b825550505050565b5f5f905090565b6104ed6104de565b6104f88184846104b9565b505050565b5b8181101561051b576105105f826104e5565b6001810190506104fe565b5050565b601f82111561056057610531816103ff565b61053a84610411565b81016020851015610549578190505b61055d61055585610411565b8301826104fd565b50505b505050565b5f82821c905092915050565b5f6105805f1984600802610565565b1980831691505092915050565b5f6105988383610571565b9150826002028217905092915050565b6105b182610398565b67ffffffffffffffff8111156105ca576105c96101fe565b5b6105d482546103cf565b6105df82828561051f565b5f60209050601f831160018114610610575f84156105fe578287015190505b610608858261058d565b86555061066f565b601f19841661061e866103ff565b5f5b8281101561064557848901518255600182019150602085019450602081019050610620565b86831015610662578489015161065e601f891682610571565b8355505b6001600288020188555050505b505050505050565b5f73ffffffffffffffffffffffffffffffffffffffff82169050919050565b5f6106a082610677565b9050919050565b6106b081610696565b82525050565b5f6020820190506106c95f8301846106a7565b92915050565b612972806106dc5f395ff3fe608060405234801561000f575f5ffd5b5060043610610156575f3560e01c806379ba5097116100c1578063c87b56dd1161007a578063c87b56dd1461039a578063da1919b3146103ca578063e30c3978146103fa578063e985e9c514610418578063f2fde38b14610448578063fca3b5aa1461046457610156565b806379ba5097146102ec5780638da5cb5b146102f657806395d89b4114610314578063a22cb46514610332578063ace97aea1461034e578063b88d4fde1461037e57610156565b806342842e0e1161011357806342842e0e1461022e57806342966c681461024a57806355f804b3146102665780636352211e1461028257806370a08231146102b2578063715018a6146102e257610156565b806301ffc9a71461015a57806306fdde031461018a57806307546172146101a8578063081812fc146101c6578063095ea7b3146101f657806323b872dd14610212575b5f5ffd5b610174600480360381019061016f9190611e8a565b610480565b6040516101819190611ecf565b60405180910390f35b610192610561565b60405161019f9190611f58565b60405180910390f35b6101b06105f0565b6040516101bd9190611fb7565b60405180910390f35b6101e060048036038101906101db9190612003565b610615565b6040516101ed9190611fb7565b60405180910390f35b610210600480360381019061020b9190612058565b610630565b005b61022c60048036038101906102279190612096565b610646565b005b61024860048036038101906102439190612096565b610745565b005b610264600480360381019061025f9190612003565b610764565b005b610280600480360381019061027b9190612147565b6107f6565b005b61029c60048036038101906102979190612003565b610814565b6040516102a99190611fb7565b60405180910390f35b6102cc60048036038101906102c79190612192565b610825565b6040516102d991906121cc565b60405180910390f35b6102ea6108db565b005b6102f46108ee565b005b6102fe61097c565b60405161030b9190611fb7565b60405180910390f35b61031c6109a4565b6040516103299190611f58565b60405180910390f35b61034c6004803603810190610347919061220f565b610a34565b005b61036860048036038101906103639190612003565b610a4a565b60405161037591906121cc565b60405180910390f35b61039860048036038101906103939190612375565b610a5f565b005b6103b460048036038101906103af9190612003565b610a84565b6040516103c19190611f58565b60405180910390f35b6103e460048036038101906103df9190612058565b610aea565b6040516103f191906121cc565b60405180910390f35b610402610c5c565b60405161040f9190611fb7565b60405180910390f35b610432600480360381019061042d91906123f5565b610c84565b60405161043f9190611ecf565b60405180910390f35b610462600480360381019061045d9190612192565b610d12565b005b61047e60048036038101906104799190612192565b610dbe565b005b5f7f80ac58cd000000000000000000000000000000000000000000000000000000007bffffffffffffffffffffffffffffffffffffffffffffffffffffffff1916827bffffffffffffffffffffffffffffffffffffffffffffffffffffffff1916148061054a57507f5b5e139f000000000000000000000000000000000000000000000000000000007bffffffffffffffffffffffffffffffffffffffffffffffffffffffff1916827bffffffffffffffffffffffffffffffffffffffffffffffffffffffff1916145b8061055a575061055982610e6e565b5b9050919050565b60605f805461056f90612460565b80601f016020809104026020016040519081016040528092919081815260200182805461059b90612460565b80156105e65780601f106105bd576101008083540402835291602001916105e6565b820191905f5260205f20905b8154815290600101906020018083116105c957829003601f168201915b5050505050905090565b600b5f9054906101000a900473ffffffffffffffffffffffffffffffffffffffff1681565b5f61061f82610ed7565b5061062982610f5d565b9050919050565b610642828261063d610f96565b610f9d565b5050565b5f73ffffffffffffffffffffffffffffffffffffffff168273ffffffffffffffffffffffffffffffffffffffff16036106b6575f6040517f64a0ae920000000000000000000000000000000000000000000000000000000081526004016106ad9190611fb7565b60405180910390fd5b5f6106c983836106c4610f96565b610faf565b90508373ffffffffffffffffffffffffffffffffffffffff168173ffffffffffffffffffffffffffffffffffffffff161461073f578382826040517f64283d7b00000000000000000000000000000000000000000000000000000000815260040161073693929190612490565b60405180910390fd5b50505050565b61075f83838360405180602001604052805f815250610a5f565b505050565b600b5f9054906101000a900473ffffffffffffffffffffffffffffffffffffffff1673ffffffffffffffffffffffffffffffffffffffff163373ffffffffffffffffffffffffffffffffffffffff16146107ea576040517fea8e4eb500000000000000000000000000000000000000000000000000000000815260040160405180910390fd5b6107f3816111ba565b50565b6107fe61123c565b81816009918261080f92919061266f565b505050565b5f61081e82610ed7565b9050919050565b5f5f73ffffffffffffffffffffffffffffffffffffffff168273ffffffffffffffffffffffffffffffffffffffff1603610896575f6040517f89c62b6400000000000000000000000000000000000000000000000000000000815260040161088d9190611fb7565b60405180910390fd5b60035f8373ffffffffffffffffffffffffffffffffffffffff1673ffffffffffffffffffffffffffffffffffffffff1681526020019081526020015f20549050919050565b6108e361123c565b6108ec5f6112c3565b565b5f6108f7610f96565b90508073ffffffffffffffffffffffffffffffffffffffff16610918610c5c565b73ffffffffffffffffffffffffffffffffffffffff161461097057806040517f118cdaa70000000000000000000000000000000000000000000000000000000081526004016109679190611fb7565b60405180910390fd5b610979816112c3565b50565b5f60065f9054906101000a900473ffffffffffffffffffffffffffffffffffffffff16905090565b6060600180546109b390612460565b80601f01602080910402602001604051908101604052809291908181526020018280546109df90612460565b8015610a2a5780601f10610a0157610100808354040283529160200191610a2a565b820191905f5260205f20905b815481529060010190602001808311610a0d57829003601f168201915b5050505050905090565b610a46610a3f610f96565b83836112f3565b5050565b600a602052805f5260405f205f915090505481565b610a6a848484610646565b610a7e610a75610f96565b8585858561145c565b50505050565b6060610a8f82610ed7565b505f610a99611608565b90505f815111610ab75760405180602001604052805f815250610ae2565b80610ac184611698565b604051602001610ad2929190612776565b6040516020818303038152906040525b915050919050565b5f600b5f9054906101000a900473ffffffffffffffffffffffffffffffffffffffff1673ffffffffffffffffffffffffffffffffffffffff163373ffffffffffffffffffffffffffffffffffffffff1614610b71576040517fea8e4eb500000000000000000000000000000000000000000000000000000000815260040160405180910390fd5b5f73ffffffffffffffffffffffffffffffffffffffff168373ffffffffffffffffffffffffffffffffffffffff1603610bd6576040517fd92e233d00000000000000000000000000000000000000000000000000000000815260040160405180910390fd5b5f600a5f8481526020019081526020015f205414610c20576040517fd70a0e3000000000000000000000000000000000000000000000000000000000815260040160405180910390fd5b60085f8154610c2e906127c6565b919050819055905080600a5f8481526020019081526020015f2081905550610c568382611762565b92915050565b5f60075f9054906101000a900473ffffffffffffffffffffffffffffffffffffffff16905090565b5f60055f8473ffffffffffffffffffffffffffffffffffffffff1673ffffffffffffffffffffffffffffffffffffffff1681526020019081526020015f205f8373ffffffffffffffffffffffffffffffffffffffff1673ffffffffffffffffffffffffffffffffffffffff1681526020019081526020015f205f9054906101000a900460ff16905092915050565b610d1a61123c565b8060075f6101000a81548173ffffffffffffffffffffffffffffffffffffffff021916908373ffffffffffffffffffffffffffffffffffffffff1602179055508073ffffffffffffffffffffffffffffffffffffffff16610d7961097c565b73ffffffffffffffffffffffffffffffffffffffff167f38d16b8cac22d99fc7c124b9cd0de2d3fa1faef420bfe791d8c362d765e2270060405160405180910390a350565b610dc661123c565b5f73ffffffffffffffffffffffffffffffffffffffff168173ffffffffffffffffffffffffffffffffffffffff1603610e2b576040517fd92e233d00000000000000000000000000000000000000000000000000000000815260040160405180910390fd5b80600b5f6101000a81548173ffffffffffffffffffffffffffffffffffffffff021916908373ffffffffffffffffffffffffffffffffffffffff16021790555050565b5f7f01ffc9a7000000000000000000000000000000000000000000000000000000007bffffffffffffffffffffffffffffffffffffffffffffffffffffffff1916827bffffffffffffffffffffffffffffffffffffffffffffffffffffffff1916149050919050565b5f5f610ee28361177f565b90505f73ffffffffffffffffffffffffffffffffffffffff168173ffffffffffffffffffffffffffffffffffffffff1603610f5457826040517f7e273289000000000000000000000000000000000000000000000000000000008152600401610f4b91906121cc565b60405180910390fd5b80915050919050565b5f60045f8381526020019081526020015f205f9054906101000a900473ffffffffffffffffffffffffffffffffffffffff169050919050565b5f33905090565b610faa83838360016117b8565b505050565b5f5f610fba8461177f565b90505f73ffffffffffffffffffffffffffffffffffffffff168373ffffffffffffffffffffffffffffffffffffffff1614610ffb57610ffa818486611977565b5b5f73ffffffffffffffffffffffffffffffffffffffff168173ffffffffffffffffffffffffffffffffffffffff16146110865761103a5f855f5f6117b8565b600160035f8373ffffffffffffffffffffffffffffffffffffffff1673ffffffffffffffffffffffffffffffffffffffff1681526020019081526020015f205f82825403925050819055505b5f73ffffffffffffffffffffffffffffffffffffffff168573ffffffffffffffffffffffffffffffffffffffff161461110557600160035f8773ffffffffffffffffffffffffffffffffffffffff1673ffffffffffffffffffffffffffffffffffffffff1681526020019081526020015f205f82825401925050819055505b8460025f8681526020019081526020015f205f6101000a81548173ffffffffffffffffffffffffffffffffffffffff021916908373ffffffffffffffffffffffffffffffffffffffff160217905550838573ffffffffffffffffffffffffffffffffffffffff168273ffffffffffffffffffffffffffffffffffffffff167fddf252ad1be2c89b69c2b068fc378daa952ba7f163c4a11628f55a4df523b3ef60405160405180910390a4809150509392505050565b5f6111c65f835f610faf565b90505f73ffffffffffffffffffffffffffffffffffffffff168173ffffffffffffffffffffffffffffffffffffffff160361123857816040517f7e27328900000000000000000000000000000000000000000000000000000000815260040161122f91906121cc565b60405180910390fd5b5050565b611244610f96565b73ffffffffffffffffffffffffffffffffffffffff1661126261097c565b73ffffffffffffffffffffffffffffffffffffffff16146112c157611285610f96565b6040517f118cdaa70000000000000000000000000000000000000000000000000000000081526004016112b89190611fb7565b60405180910390fd5b565b60075f6101000a81549073ffffffffffffffffffffffffffffffffffffffff02191690556112f081611a3a565b50565b5f73ffffffffffffffffffffffffffffffffffffffff168273ffffffffffffffffffffffffffffffffffffffff160361136357816040517f5b08ba1800000000000000000000000000000000000000000000000000000000815260040161135a9190611fb7565b60405180910390fd5b8060055f8573ffffffffffffffffffffffffffffffffffffffff1673ffffffffffffffffffffffffffffffffffffffff1681526020019081526020015f205f8473ffffffffffffffffffffffffffffffffffffffff1673ffffffffffffffffffffffffffffffffffffffff1681526020019081526020015f205f6101000a81548160ff0219169083151502179055508173ffffffffffffffffffffffffffffffffffffffff168373ffffffffffffffffffffffffffffffffffffffff167f17307eab39ab6107e8899845ad3d59bd9653f200f220920489ca2b5937696c318360405161144f9190611ecf565b60405180910390a3505050565b5f8373ffffffffffffffffffffffffffffffffffffffff163b1115611601578273ffffffffffffffffffffffffffffffffffffffff1663150b7a02868685856040518563ffffffff1660e01b81526004016114ba949392919061285f565b6020604051808303815f875af19250505080156114f557506040513d601f19601f820116820180604052508101906114f291906128bd565b60015b611576573d805f8114611523576040519150601f19603f3d011682016040523d82523d5f602084013e611528565b606091505b505f81510361156e57836040517f64a0ae920000000000000000000000000000000000000000000000000000000081526004016115659190611fb7565b60405180910390fd5b805160208201fd5b63150b7a0260e01b7bffffffffffffffffffffffffffffffffffffffffffffffffffffffff1916817bffffffffffffffffffffffffffffffffffffffffffffffffffffffff1916146115ff57836040517f64a0ae920000000000000000000000000000000000000000000000000000000081526004016115f69190611fb7565b60405180910390fd5b505b5050505050565b60606009805461161790612460565b80601f016020809104026020016040519081016040528092919081815260200182805461164390612460565b801561168e5780601f106116655761010080835404028352916020019161168e565b820191905f5260205f20905b81548152906001019060200180831161167157829003601f168201915b5050505050905090565b60605f60016116a684611afd565b0190505f8167ffffffffffffffff8111156116c4576116c3612251565b5b6040519080825280601f01601f1916602001820160405280156116f65781602001600182028036833780820191505090505b5090505f82602083010190505b600115611757578080600190039150507f3031323334353637383961626364656600000000000000000000000000000000600a86061a8153600a858161174c5761174b6128e8565b5b0494505f8503611703575b819350505050919050565b61177b828260405180602001604052805f815250611c4e565b5050565b5f60025f8381526020019081526020015f205f9054906101000a900473ffffffffffffffffffffffffffffffffffffffff169050919050565b80806117f057505f73ffffffffffffffffffffffffffffffffffffffff168273ffffffffffffffffffffffffffffffffffffffff1614155b15611922575f6117ff84610ed7565b90505f73ffffffffffffffffffffffffffffffffffffffff168373ffffffffffffffffffffffffffffffffffffffff161415801561186957508273ffffffffffffffffffffffffffffffffffffffff168173ffffffffffffffffffffffffffffffffffffffff1614155b801561187c575061187a8184610c84565b155b156118be57826040517fa9fbf51f0000000000000000000000000000000000000000000000000000000081526004016118b59190611fb7565b60405180910390fd5b811561192057838573ffffffffffffffffffffffffffffffffffffffff168273ffffffffffffffffffffffffffffffffffffffff167f8c5be1e5ebec7d5bd14f71427d1e84f3dd0314c0f7b2291e5b200ac8c7c3b92560405160405180910390a45b505b8360045f8581526020019081526020015f205f6101000a81548173ffffffffffffffffffffffffffffffffffffffff021916908373ffffffffffffffffffffffffffffffffffffffff16021790555050505050565b611982838383611c71565b611a35575f73ffffffffffffffffffffffffffffffffffffffff168373ffffffffffffffffffffffffffffffffffffffff16036119f657806040517f7e2732890000000000000000000000000000000000000000000000000000000081526004016119ed91906121cc565b60405180910390fd5b81816040517f177e802f000000000000000000000000000000000000000000000000000000008152600401611a2c929190612915565b60405180910390fd5b505050565b5f60065f9054906101000a900473ffffffffffffffffffffffffffffffffffffffff1690508160065f6101000a81548173ffffffffffffffffffffffffffffffffffffffff021916908373ffffffffffffffffffffffffffffffffffffffff1602179055508173ffffffffffffffffffffffffffffffffffffffff168173ffffffffffffffffffffffffffffffffffffffff167f8be0079c531659141344cd1fd0a4f28419497f9722a3daafe3b4186f6b6457e060405160405180910390a35050565b5f5f5f90507a184f03e93ff9f4daa797ed6e38ed64bf6a1f0100000000000000008310611b59577a184f03e93ff9f4daa797ed6e38ed64bf6a1f0100000000000000008381611b4f57611b4e6128e8565b5b0492506040810190505b6d04ee2d6d415b85acef81000000008310611b96576d04ee2d6d415b85acef81000000008381611b8c57611b8b6128e8565b5b0492506020810190505b662386f26fc100008310611bc557662386f26fc100008381611bbb57611bba6128e8565b5b0492506010810190505b6305f5e1008310611bee576305f5e1008381611be457611be36128e8565b5b0492506008810190505b6127108310611c13576127108381611c0957611c086128e8565b5b0492506004810190505b60648310611c365760648381611c2c57611c2b6128e8565b5b0492506002810190505b600a8310611c45576001810190505b80915050919050565b611c588383611d31565b611c6c611c63610f96565b5f85858561145c565b505050565b5f5f73ffffffffffffffffffffffffffffffffffffffff168373ffffffffffffffffffffffffffffffffffffffff1614158015611d2857508273ffffffffffffffffffffffffffffffffffffffff168473ffffffffffffffffffffffffffffffffffffffff161480611ce95750611ce88484610c84565b5b80611d2757508273ffffffffffffffffffffffffffffffffffffffff16611d0f83610f5d565b73ffffffffffffffffffffffffffffffffffffffff16145b5b90509392505050565b5f73ffffffffffffffffffffffffffffffffffffffff168273ffffffffffffffffffffffffffffffffffffffff1603611da1575f6040517f64a0ae92000000000000000000000000000000000000000000000000000000008152600401611d989190611fb7565b60405180910390fd5b5f611dad83835f610faf565b90505f73ffffffffffffffffffffffffffffffffffffffff168173ffffffffffffffffffffffffffffffffffffffff1614611e1f575f6040517f73c6ac6e000000000000000000000000000000000000000000000000000000008152600401611e169190611fb7565b60405180910390fd5b505050565b5f604051905090565b5f5ffd5b5f5ffd5b5f7fffffffff0000000000000000000000000000000000000000000000000000000082169050919050565b611e6981611e35565b8114611e73575f5ffd5b50565b5f81359050611e8481611e60565b92915050565b5f60208284031215611e9f57611e9e611e2d565b5b5f611eac84828501611e76565b91505092915050565b5f8115159050919050565b611ec981611eb5565b82525050565b5f602082019050611ee25f830184611ec0565b92915050565b5f81519050919050565b5f82825260208201905092915050565b8281835e5f83830152505050565b5f601f19601f8301169050919050565b5f611f2a82611ee8565b611f348185611ef2565b9350611f44818560208601611f02565b611f4d81611f10565b840191505092915050565b5f6020820190508181035f830152611f708184611f20565b905092915050565b5f73ffffffffffffffffffffffffffffffffffffffff82169050919050565b5f611fa182611f78565b9050919050565b611fb181611f97565b82525050565b5f602082019050611fca5f830184611fa8565b92915050565b5f819050919050565b611fe281611fd0565b8114611fec575f5ffd5b50565b5f81359050611ffd81611fd9565b92915050565b5f6020828403121561201857612017611e2d565b5b5f61202584828501611fef565b91505092915050565b61203781611f97565b8114612041575f5ffd5b50565b5f813590506120528161202e565b92915050565b5f5f6040838503121561206e5761206d611e2d565b5b5f61207b85828601612044565b925050602061208c85828601611fef565b9150509250929050565b5f5f5f606084860312156120ad576120ac611e2d565b5b5f6120ba86828701612044565b93505060206120cb86828701612044565b92505060406120dc86828701611fef565b9150509250925092565b5f5ffd5b5f5ffd5b5f5ffd5b5f5f83601f840112612107576121066120e6565b5b8235905067ffffffffffffffff811115612124576121236120ea565b5b6020830191508360018202830111156121405761213f6120ee565b5b9250929050565b5f5f6020838503121561215d5761215c611e2d565b5b5f83013567ffffffffffffffff81111561217a57612179611e31565b5b612186858286016120f2565b92509250509250929050565b5f602082840312156121a7576121a6611e2d565b5b5f6121b484828501612044565b91505092915050565b6121c681611fd0565b82525050565b5f6020820190506121df5f8301846121bd565b92915050565b6121ee81611eb5565b81146121f8575f5ffd5b50565b5f81359050612209816121e5565b92915050565b5f5f6040838503121561222557612224611e2d565b5b5f61223285828601612044565b9250506020612243858286016121fb565b9150509250929050565b5f5ffd5b7f4e487b71000000000000000000000000000000000000000000000000000000005f52604160045260245ffd5b61228782611f10565b810181811067ffffffffffffffff821117156122a6576122a5612251565b5b80604052505050565b5f6122b8611e24565b90506122c4828261227e565b919050565b5f67ffffffffffffffff8211156122e3576122e2612251565b5b6122ec82611f10565b9050602081019050919050565b828183375f83830152505050565b5f612319612314846122c9565b6122af565b9050828152602081018484840111156123355761233461224d565b5b6123408482856122f9565b509392505050565b5f82601f83011261235c5761235b6120e6565b5b813561236c848260208601612307565b91505092915050565b5f5f5f5f6080858703121561238d5761238c611e2d565b5b5f61239a87828801612044565b94505060206123ab87828801612044565b93505060406123bc87828801611fef565b925050606085013567ffffffffffffffff8111156123dd576123dc611e31565b5b6123e987828801612348565b91505092959194509250565b5f5f6040838503121561240b5761240a611e2d565b5b5f61241885828601612044565b925050602061242985828601612044565b9150509250929050565b7f4e487b71000000000000000000000000000000000000000000000000000000005f52602260045260245ffd5b5f600282049050600182168061247757607f821691505b60208210810361248a57612489612433565b5b50919050565b5f6060820190506124a35f830186611fa8565b6124b060208301856121bd565b6124bd6040830184611fa8565b949350505050565b5f82905092915050565b5f819050815f5260205f209050919050565b5f6020601f8301049050919050565b5f82821b905092915050565b5f6008830261252b7fffffffffffffffffffffffffffffffffffffffffffffffffffffffffffffffff826124f0565b61253586836124f0565b95508019841693508086168417925050509392505050565b5f819050919050565b5f61257061256b61256684611fd0565b61254d565b611fd0565b9050919050565b5f819050919050565b61258983612556565b61259d61259582612577565b8484546124fc565b825550505050565b5f5f905090565b6125b46125a5565b6125bf818484612580565b505050565b5b818110156125e2576125d75f826125ac565b6001810190506125c5565b5050565b601f821115612627576125f8816124cf565b612601846124e1565b81016020851015612610578190505b61262461261c856124e1565b8301826125c4565b50505b505050565b5f82821c905092915050565b5f6126475f198460080261262c565b1980831691505092915050565b5f61265f8383612638565b9150826002028217905092915050565b61267983836124c5565b67ffffffffffffffff81111561269257612691612251565b5b61269c8254612460565b6126a78282856125e6565b5f601f8311600181146126d4575f84156126c2578287013590505b6126cc8582612654565b865550612733565b601f1984166126e2866124cf565b5f5b82811015612709578489013582556001820191506020850194506020810190506126e4565b868310156127265784890135612722601f891682612638565b8355505b6001600288020188555050505b50505050505050565b5f81905092915050565b5f61275082611ee8565b61275a818561273c565b935061276a818560208601611f02565b80840191505092915050565b5f6127818285612746565b915061278d8284612746565b91508190509392505050565b7f4e487b71000000000000000000000000000000000000000000000000000000005f52601160045260245ffd5b5f6127d082611fd0565b91507fffffffffffffffffffffffffffffffffffffffffffffffffffffffffffffffff820361280257612801612799565b5b600182019050919050565b5f81519050919050565b5f82825260208201905092915050565b5f6128318261280d565b61283b8185612817565b935061284b818560208601611f02565b61285481611f10565b840191505092915050565b5f6080820190506128725f830187611fa8565b61287f6020830186611fa8565b61288c60408301856121bd565b818103606083015261289e8184612827565b905095945050505050565b5f815190506128b781611e60565b92915050565b5f602082840312156128d2576128d1611e2d565b5b5f6128df848285016128a9565b91505092915050565b7f4e487b71000000000000000000000000000000000000000000000000000000005f52601260045260245ffd5b5f6040820190506129285f830185611fa8565b61293560208301846121bd565b939250505056fea2646970667358221220ac53464597237521bb809f4bf539e605a0c652617b6190b8b1178b063b957bff64736f6c634300081d0033","linkReferences":{}},"methodIdentifiers":{"acceptOwnership()":"79ba5097","approve(address,uint256)":"095ea7b3","balanceOf(address)":"70a08231","burn(uint256)":"42966c68","getApproved(uint256)":"081812fc","isApprovedForAll(address,address)":"e985e9c5","mintFor(address,uint256)":"da1919b3","minter()":"07546172","name()":"06fdde03","owner()":"8da5cb5b","ownerOf(uint256)":"6352211e","pendingOwner()":"e30c3978","policyToken(uint256)":"ace97aea","renounceOwnership()":"715018a6","safeTransferFrom(address,address,uint256)":"42842e0e","safeTransferFrom(address,address,uint256,bytes)":"b88d4fde","setApprovalForAll(address,bool)":"a22cb465","setBaseURI(string)":"55f804b3","setMinter(address)":"fca3b5aa","supportsInterface(bytes4)":"01ffc9a7","symbol()":"95d89b41","tokenURI(uint256)":"c87b56dd","transferFrom(address,address,uint256)":"23b872dd","transferOwnership(address)":"f2fde38b"},"id":55}