{"abi":[{"type":"constructor","inputs":[{"name":"treasury_","type":"address","internalType":"address"},{"name":"policyNFT_","type":"address","internalType":"address"}],"stateMutability":"nonpayable"},{"type":"function","name":"acceptOwnership","inputs":[],"outputs":[],"stateMutability":"nonpayable"},{"type":"function","name":"activate","inputs":[{"name":"policyId","type":"uint256","internalType":"uint256"}],"outputs":[],"stateMutability":"nonpayable"},{"type":"function","name":"applyPolicy","inputs":[{"name":"productId","type":"uint256","internalType":"uint256"},{"name":"coverageAmount","type":"uint256","internalType":"uint256"}],"outputs":[{"name":"policyId","type":"uint256","internalType":"uint256"}],"stateMutability":"payable"},{"type":"function","name":"cancelBeforeActivate","inputs":[{"name":"policyId","type":"uint256","internalType":"uint256"}],"outputs":[],"stateMutability":"nonpayable"},{"type":"function","name":"finalizePaid","inputs":[{"name":"policyId","type":"uint256","internalType":"uint256"}],"outputs":[],"stateMutability":"nonpayable"},{"type":"function","name":"getPolicy","inputs":[{"name":"policyId","type":"uint256","internalType":"uint256"}],"outputs":[{"name":"","type":"tuple","internalType":"struct Policy","components":[{"name":"id","type":"uint256","internalType":"uint256"},{"name":"holder","type":"address","internalType":"address"},{"name":"productId","type":"uint256","internalType":"uint256"},{"name":"premiumPaid","type":"uint256","internalType":"uint256"},{"name":"coverageAmount","type":"uint256","internalType":"uint256"},{"name":"createdAt","type":"uint256","internalType":"uint256"},{"name":"activatedAt","type":"uint256","internalType":"uint256"},{"name":"tokenId","type":"uint256","internalType":"uint256"},{"name":"status","type":"uint8","internalType":"enum PolicyStatus"}]}],"stateMutability":"view"},{"type":"function","name":"nextPolicyId","inputs":[],"outputs":[{"name":"","type":"uint256","internalType":"uint256"}],"stateMutability":"view"},{"type":"function","name":"owner","inputs":[],"outputs":[{"name":"","type":"address","internalType":"address"}],"stateMutability":"view"},{"type":"function","name":"pause","inputs":[],"outputs":[],"stateMutability":"nonpayable"},{"type":"function","name":"paused","inputs":[],"outputs":[{"name":"","type":"bool","internalType":"bool"}],"stateMutability":"view"},{"type":"function","name":"pendingOwner","inputs":[],"outputs":[{"name":"","type":"address","internalType":"address"}],"stateMutability":"view"},{"type":"function","name":"policyNFT","inputs":[],"outputs":[{"name":"","type":"address","internalType":"contract IPolicyNFT_MintBurn"}],"stateMutability":"view"},{"type":"function","name":"renounceOwnership","inputs":[],"outputs":[],"stateMutability":"nonpayable"},{"type":"function","name":"setPolicyNFT","inputs":[{"name":"policyNFT_","type":"address","internalType":"address"}],"outputs":[],"stateMutability":"nonpayable"},{"type":"function","name":"setTreasury","inputs":[{"name":"treasury_","type":"address","internalType":"address"}],"outputs":[],"stateMutability":"nonpayable"},{"type":"function","name":"transferOwnership","inputs":[{"name":"newOwner","type":"address","internalType":"address"}],"outputs":[],"stateMutability":"nonpayable"},{"type":"function","name":"treasury","inputs":[],"outputs":[{"name":"","type":"address","internalType":"contract ITreasury_DepositRefund"}],"stateMutability":"view"},{"type":"function","name":"unpause","inputs":[],"outputs":[],"stateMutability":"nonpayable"},{"type":"event","name":"OwnershipTransferStarted","inputs":[{"name":"previousOwner","type":"address","indexed":true,"internalType":"address"},{"name":"newOwner","type":"address","indexed":true,"internalType":"address"}],"anonymous":false},{"type":"event","name":"OwnershipTransferred","inputs":[{"name":"previousOwner","type":"address","indexed":true,"internalType":"address"},{"name":"newOwner","type":"address","indexed":true,"internalType":"address"}],"anonymous":false},{"type":"event","name":"Paused","inputs":[{"name":"account","type":"address","indexed":false,"internalType":"address"}],"anonymous":false},{"type":"event","name":"PolicyActivated","inputs":[{"name":"policyId","type":"uint256","indexed":true,"internalType":"uint256"},{"name":"tokenId","type":"uint256","indexed":false,"internalType":"uint256"},{"name":"activatedAt","type":"uint256","indexed":false,"internalType":"uint256"}],"anonymous":false},{"type":"event","name":"PolicyCancelledBeforeActivate","inputs":[{"name":"policyId","type":"uint256","indexed":true,"internalType":"uint256"},{"name":"holder","type":"address","indexed":true,"internalType":"address"},{"name":"refundedAmount","type":"uint256","indexed":false,"internalType":"uint256"}],"anonymous":false},{"type":"event","name":"PolicyCreated","inputs":[{"name":"policyId","type":"uint256","indexed":true,"internalType":"uint256"},{"name":"holder","type":"address","indexed":true,"internalType":"address"},{"name":"productId","type":"uint256","indexed":true,"internalType":"uint256"},{"name":"premiumPaid","type":"uint256","indexed":false,"internalType":"uint256"},{"name":"coverageAmount","type":"uint256","indexed":false,"internalType":"uint256"}],"anonymous":false},{"type":"event","name":"Unpaused","inputs":[{"name":"account","type":"address","indexed":false,"internalType":"address"}],"anonymous":false},{"type":"error","name":"AlreadyActive","inputs":[]},{"type":"error","name":"AlreadyPaid","inputs":[]},{"type":"error","name":"EnforcedPause","inputs":[]},{"type":"error","name":"ExpectedPause","inputs":[]},{"type":"error","name":"InvalidAmount","inputs":[]},{"type":"error","name":"NotActive","inputs":[]},{"type":"error","name":"NotAuthorized","inputs":[]},{"type":"error","name":"NotPending","inputs":[]},{"type":"error","name":"OwnableInvalidOwner","inputs":[{"name":"owner","type":"address","internalType":"address"}]},{"type":"error","name":"OwnableUnauthorizedAccount","inputs":[{"name":"account","type":"address","internalType":"address"}]},{"type":"error","name":"ReentrancyGuardReentrantCall","inputs":[]},{"type":"error","name":"TokenNotSet","inputs":[]},{"type":"error","name":"ZeroAddress","inputs":[]}],"bytecode":{"object":"0x608060405234801561000f575f5ffd5b50604051611fdb380380611fdb8339818101604052810190610031919061033a565b335f73ffffffffffffffffffffffffffffffffffffffff168173ffffffffffffffffffffffffffffffffffffffff16036100a2575f6040517f1e4fbdf70000000000000000000000000000000000000000000000000000000081526004016100999190610387565b60405180910390fd5b6100b1816101e560201b60201c565b5060016002819055505f73ffffffffffffffffffffffffffffffffffffffff168273ffffffffffffffffffffffffffffffffffffffff16148061011f57505f73ffffffffffffffffffffffffffffffffffffffff168173ffffffffffffffffffffffffffffffffffffffff16145b15610156576040517fd92e233d00000000000000000000000000000000000000000000000000000000815260040160405180910390fd5b8160035f6101000a81548173ffffffffffffffffffffffffffffffffffffffff021916908373ffffffffffffffffffffffffffffffffffffffff1602179055508060045f6101000a81548173ffffffffffffffffffffffffffffffffffffffff021916908373ffffffffffffffffffffffffffffffffffffffff160217905550600160058190555050506103a0565b60015f6101000a81549073ffffffffffffffffffffffffffffffffffffffff02191690556102188161021b60201b60201c565b50565b5f5f5f9054906101000a900473ffffffffffffffffffffffffffffffffffffffff169050815f5f6101000a81548173ffffffffffffffffffffffffffffffffffffffff021916908373ffffffffffffffffffffffffffffffffffffffff1602179055508173ffffffffffffffffffffffffffffffffffffffff168173ffffffffffffffffffffffffffffffffffffffff167f8be0079c531659141344cd1fd0a4f28419497f9722a3daafe3b4186f6b6457e060405160405180910390a35050565b5f5ffd5b5f73ffffffffffffffffffffffffffffffffffffffff82169050919050565b5f610309826102e0565b9050919050565b610319816102ff565b8114610323575f5ffd5b50565b5f8151905061033481610310565b92915050565b5f5f604083850312156103505761034f6102dc565b5b5f61035d85828601610326565b925050602061036e85828601610326565b9150509250929050565b610381816102ff565b82525050565b5f60208201905061039a5f830184610378565b92915050565b611c2e806103ad5f395ff3fe608060405260043610610108575f3560e01c806379ba509711610094578063b260c42a11610063578063b260c42a146102f0578063cad0b8db14610318578063e30c397814610342578063f0f442601461036c578063f2fde38b1461039457610108565b806379ba5097146102705780638456cb59146102865780638da5cb5b1461029c578063af02808a146102c657610108565b80635c975abb116100db5780635c975abb146101b65780635d322fca146101e057806361d027b314610208578063715018a61461023257806372f5b6df1461024857610108565b80632b07fce31461010c57806333470361146101485780633f4ba83a1461017057806345bfeb4d14610186575b5f5ffd5b348015610117575f5ffd5b50610132600480360381019061012d9190611744565b6103bc565b60405161013f91906118e5565b60405180910390f35b348015610153575f5ffd5b5061016e60048036038101906101699190611744565b6104bc565b005b34801561017b575f5ffd5b5061018461074c565b005b6101a0600480360381019061019b91906118ff565b61075e565b6040516101ad919061194c565b60405180910390f35b3480156101c1575f5ffd5b506101ca610990565b6040516101d7919061197f565b60405180910390f35b3480156101eb575f5ffd5b5061020660048036038101906102019190611744565b6109a6565b005b348015610213575f5ffd5b5061021c610cea565b60405161022991906119f3565b60405180910390f35b34801561023d575f5ffd5b50610246610d0f565b005b348015610253575f5ffd5b5061026e60048036038101906102699190611a36565b610d22565b005b34801561027b575f5ffd5b50610284610dd2565b005b348015610291575f5ffd5b5061029a610e60565b005b3480156102a7575f5ffd5b506102b0610e72565b6040516102bd9190611a70565b60405180910390f35b3480156102d1575f5ffd5b506102da610e99565b6040516102e79190611aa9565b60405180910390f35b3480156102fb575f5ffd5b5061031660048036038101906103119190611744565b610ebe565b005b348015610323575f5ffd5b5061032c611206565b604051610339919061194c565b60405180910390f35b34801561034d575f5ffd5b5061035661120c565b6040516103639190611a70565b60405180910390f35b348015610377575f5ffd5b50610392600480360381019061038d9190611a36565b611234565b005b34801561039f575f5ffd5b506103ba60048036038101906103b59190611a36565b6112e4565b005b6103c46116a2565b60065f8381526020019081526020015f20604051806101200160405290815f8201548152602001600182015f9054906101000a900473ffffffffffffffffffffffffffffffffffffffff1673ffffffffffffffffffffffffffffffffffffffff1673ffffffffffffffffffffffffffffffffffffffff168152602001600282015481526020016003820154815260200160048201548152602001600582015481526020016006820154815260200160078201548152602001600882015f9054906101000a900460ff16600481111561049f5761049e6117bd565b5b60048111156104b1576104b06117bd565b5b815250509050919050565b6104c4611390565b6104cc611417565b6104d4611458565b5f60065f8381526020019081526020015f2090505f73ffffffffffffffffffffffffffffffffffffffff16816001015f9054906101000a900473ffffffffffffffffffffffffffffffffffffffff1673ffffffffffffffffffffffffffffffffffffffff1603610570576040517fd92e233d00000000000000000000000000000000000000000000000000000000815260040160405180910390fd5b60016004811115610584576105836117bd565b5b816008015f9054906101000a900460ff1660048111156105a7576105a66117bd565b5b146105de576040517f80cb55e200000000000000000000000000000000000000000000000000000000815260040160405180910390fd5b600260048111156105f2576105f16117bd565b5b816008015f9054906101000a900460ff166004811115610615576106146117bd565b5b0361064c576040517fd70a0e3000000000000000000000000000000000000000000000000000000000815260040160405180910390fd5b5f816007015403610689576040517f4b62f01300000000000000000000000000000000000000000000000000000000815260040160405180910390fd5b60045f9054906101000a900473ffffffffffffffffffffffffffffffffffffffff1673ffffffffffffffffffffffffffffffffffffffff166342966c6882600701546040518263ffffffff1660e01b81526004016106e7919061194c565b5f604051808303815f87803b1580156106fe575f5ffd5b505af1158015610710573d5f5f3e3d5ffd5b505050506002816008015f6101000a81548160ff0219169083600481111561073b5761073a6117bd565b5b02179055505061074961149c565b50565b610754611390565b61075c6114a6565b565b5f610767611458565b61076f611417565b5f34036107a8576040517f2c5211c600000000000000000000000000000000000000000000000000000000815260040160405180910390fd5b5f82036107e1576040517f2c5211c600000000000000000000000000000000000000000000000000000000815260040160405180910390fd5b60055f8154809291906107f390611aef565b9190505590505f60065f8381526020019081526020015f20905081815f018190555033816001015f6101000a81548173ffffffffffffffffffffffffffffffffffffffff021916908373ffffffffffffffffffffffffffffffffffffffff1602179055508381600201819055503481600301819055508281600401819055504281600501819055505f816008015f6101000a81548160ff021916908360048111156108a1576108a06117bd565b5b021790555060035f9054906101000a900473ffffffffffffffffffffffffffffffffffffffff1673ffffffffffffffffffffffffffffffffffffffff1663eeab8ed034846040518363ffffffff1660e01b8152600401610901919061194c565b5f604051808303818588803b158015610918575f5ffd5b505af115801561092a573d5f5f3e3d5ffd5b5050505050833373ffffffffffffffffffffffffffffffffffffffff16837fdd4dcb2ef94f82921d5c77e9cf4e5c8dd423fb1de1310a243115b95316f257773487604051610979929190611b36565b60405180910390a45061098a61149c565b92915050565b5f600160149054906101000a900460ff16905090565b6109ae611417565b6109b6611458565b5f60065f8381526020019081526020015f2090505f73ffffffffffffffffffffffffffffffffffffffff16816001015f9054906101000a900473ffffffffffffffffffffffffffffffffffffffff1673ffffffffffffffffffffffffffffffffffffffff1603610a52576040517fd92e233d00000000000000000000000000000000000000000000000000000000815260040160405180910390fd5b806001015f9054906101000a900473ffffffffffffffffffffffffffffffffffffffff1673ffffffffffffffffffffffffffffffffffffffff163373ffffffffffffffffffffffffffffffffffffffff1614610ada576040517fea8e4eb500000000000000000000000000000000000000000000000000000000815260040160405180910390fd5b5f6004811115610aed57610aec6117bd565b5b816008015f9054906101000a900460ff166004811115610b1057610b0f6117bd565b5b14610b47576040517f7dc6505a00000000000000000000000000000000000000000000000000000000815260040160405180910390fd5b5f816003015490505f8103610b88576040517f2c5211c600000000000000000000000000000000000000000000000000000000815260040160405180910390fd5b6003826008015f6101000a81548160ff02191690836004811115610baf57610bae6117bd565b5b02179055505f826003018190555060035f9054906101000a900473ffffffffffffffffffffffffffffffffffffffff1673ffffffffffffffffffffffffffffffffffffffff166318fd8903836001015f9054906101000a900473ffffffffffffffffffffffffffffffffffffffff1685846040518463ffffffff1660e01b8152600401610c3e93929190611b5d565b5f604051808303815f87803b158015610c55575f5ffd5b505af1158015610c67573d5f5f3e3d5ffd5b50505050816001015f9054906101000a900473ffffffffffffffffffffffffffffffffffffffff1673ffffffffffffffffffffffffffffffffffffffff16837f84bf074934b383b213f9a3bf0586c2b173e249d6335e74751d502e0f0018248a83604051610cd5919061194c565b60405180910390a35050610ce761149c565b50565b60035f9054906101000a900473ffffffffffffffffffffffffffffffffffffffff1681565b610d17611390565b610d205f611508565b565b610d2a611390565b5f73ffffffffffffffffffffffffffffffffffffffff168173ffffffffffffffffffffffffffffffffffffffff1603610d8f576040517fd92e233d00000000000000000000000000000000000000000000000000000000815260040160405180910390fd5b8060045f6101000a81548173ffffffffffffffffffffffffffffffffffffffff021916908373ffffffffffffffffffffffffffffffffffffffff16021790555050565b5f610ddb611538565b90508073ffffffffffffffffffffffffffffffffffffffff16610dfc61120c565b73ffffffffffffffffffffffffffffffffffffffff1614610e5457806040517f118cdaa7000000000000000000000000000000000000000000000000000000008152600401610e4b9190611a70565b60405180910390fd5b610e5d81611508565b50565b610e68611390565b610e7061153f565b565b5f5f5f9054906101000a900473ffffffffffffffffffffffffffffffffffffffff16905090565b60045f9054906101000a900473ffffffffffffffffffffffffffffffffffffffff1681565b610ec6611390565b610ece611417565b610ed6611458565b5f60065f8381526020019081526020015f2090505f73ffffffffffffffffffffffffffffffffffffffff16816001015f9054906101000a900473ffffffffffffffffffffffffffffffffffffffff1673ffffffffffffffffffffffffffffffffffffffff1603610f72576040517fd92e233d00000000000000000000000000000000000000000000000000000000815260040160405180910390fd5b60016004811115610f8657610f856117bd565b5b816008015f9054906101000a900460ff166004811115610fa957610fa86117bd565b5b03610fe0576040517ff9be60a200000000000000000000000000000000000000000000000000000000815260040160405180910390fd5b60026004811115610ff457610ff36117bd565b5b816008015f9054906101000a900460ff166004811115611017576110166117bd565b5b0361104e576040517fd70a0e3000000000000000000000000000000000000000000000000000000000815260040160405180910390fd5b5f6004811115611061576110606117bd565b5b816008015f9054906101000a900460ff166004811115611084576110836117bd565b5b146110bb576040517f7dc6505a00000000000000000000000000000000000000000000000000000000815260040160405180910390fd5b5f60045f9054906101000a900473ffffffffffffffffffffffffffffffffffffffff1673ffffffffffffffffffffffffffffffffffffffff1663da1919b3836001015f9054906101000a900473ffffffffffffffffffffffffffffffffffffffff16856040518363ffffffff1660e01b815260040161113b929190611b92565b6020604051808303815f875af1158015611157573d5f5f3e3d5ffd5b505050506040513d601f19601f8201168201806040525081019061117b9190611bcd565b90506001826008015f6101000a81548160ff021916908360048111156111a4576111a36117bd565b5b0217905550428260060181905550808260070181905550827fff32102facaacabec8623f4210e512ef4d0e2ca8ba273af88e803720b59d84758284600601546040516111f1929190611b36565b60405180910390a2505061120361149c565b50565b60055481565b5f60015f9054906101000a900473ffffffffffffffffffffffffffffffffffffffff16905090565b61123c611390565b5f73ffffffffffffffffffffffffffffffffffffffff168173ffffffffffffffffffffffffffffffffffffffff16036112a1576040517fd92e233d00000000000000000000000000000000000000000000000000000000815260040160405180910390fd5b8060035f6101000a81548173ffffffffffffffffffffffffffffffffffffffff021916908373ffffffffffffffffffffffffffffffffffffffff16021790555050565b6112ec611390565b8060015f6101000a81548173ffffffffffffffffffffffffffffffffffffffff021916908373ffffffffffffffffffffffffffffffffffffffff1602179055508073ffffffffffffffffffffffffffffffffffffffff1661134b610e72565b73ffffffffffffffffffffffffffffffffffffffff167f38d16b8cac22d99fc7c124b9cd0de2d3fa1faef420bfe791d8c362d765e2270060405160405180910390a350565b611398611538565b73ffffffffffffffffffffffffffffffffffffffff166113b6610e72565b73ffffffffffffffffffffffffffffffffffffffff1614611415576113d9611538565b6040517f118cdaa700000000000000000000000000000000000000000000000000000000815260040161140c9190611a70565b60405180910390fd5b565b61141f610990565b15611456576040517fd93c066500000000000000000000000000000000000000000000000000000000815260040160405180910390fd5b565b6002805403611493576040517f3ee5aeb500000000000000000000000000000000000000000000000000000000815260040160405180910390fd5b60028081905550565b6001600281905550565b6114ae6115a1565b5f600160146101000a81548160ff0219169083151502179055507f5db9ee0a495bf2e6ff9c91a7834c1ba4fdd244a5e8aa4e537bd38aeae4b073aa6114f1611538565b6040516114fe9190611a70565b60405180910390a1565b60015f6101000a81549073ffffffffffffffffffffffffffffffffffffffff0219169055611535816115e1565b50565b5f33905090565b611547611417565b60018060146101000a81548160ff0219169083151502179055507f62e78cea01bee320cd4e420270b5ea74000d11b0c9f74754ebdbfc544b05a25861158a611538565b6040516115979190611a70565b60405180910390a1565b6115a9610990565b6115df576040517f8dfc202b00000000000000000000000000000000000000000000000000000000815260040160405180910390fd5b565b5f5f5f9054906101000a900473ffffffffffffffffffffffffffffffffffffffff169050815f5f6101000a81548173ffffffffffffffffffffffffffffffffffffffff021916908373ffffffffffffffffffffffffffffffffffffffff1602179055508173ffffffffffffffffffffffffffffffffffffffff168173ffffffffffffffffffffffffffffffffffffffff167f8be0079c531659141344cd1fd0a4f28419497f9722a3daafe3b4186f6b6457e060405160405180910390a35050565b6040518061012001604052805f81526020015f73ffffffffffffffffffffffffffffffffffffffff1681526020015f81526020015f81526020015f81526020015f81526020015f81526020015f81526020015f6004811115611707576117066117bd565b5b81525090565b5f5ffd5b5f819050919050565b61172381611711565b811461172d575f5ffd5b50565b5f8135905061173e8161171a565b92915050565b5f602082840312156117595761175861170d565b5b5f61176684828501611730565b91505092915050565b61177881611711565b82525050565b5f73ffffffffffffffffffffffffffffffffffffffff82169050919050565b5f6117a78261177e565b9050919050565b6117b78161179d565b82525050565b7f4e487b71000000000000000000000000000000000000000000000000000000005f52602160045260245ffd5b600581106117fb576117fa6117bd565b5b50565b5f81905061180b826117ea565b919050565b5f61181a826117fe565b9050919050565b61182a81611810565b82525050565b61012082015f8201516118455f85018261176f565b50602082015161185860208501826117ae565b50604082015161186b604085018261176f565b50606082015161187e606085018261176f565b506080820151611891608085018261176f565b5060a08201516118a460a085018261176f565b5060c08201516118b760c085018261176f565b5060e08201516118ca60e085018261176f565b506101008201516118df610100850182611821565b50505050565b5f610120820190506118f95f830184611830565b92915050565b5f5f604083850312156119155761191461170d565b5b5f61192285828601611730565b925050602061193385828601611730565b9150509250929050565b61194681611711565b82525050565b5f60208201905061195f5f83018461193d565b92915050565b5f8115159050919050565b61197981611965565b82525050565b5f6020820190506119925f830184611970565b92915050565b5f819050919050565b5f6119bb6119b66119b18461177e565b611998565b61177e565b9050919050565b5f6119cc826119a1565b9050919050565b5f6119dd826119c2565b9050919050565b6119ed816119d3565b82525050565b5f602082019050611a065f8301846119e4565b92915050565b611a158161179d565b8114611a1f575f5ffd5b50565b5f81359050611a3081611a0c565b92915050565b5f60208284031215611a4b57611a4a61170d565b5b5f611a5884828501611a22565b91505092915050565b611a6a8161179d565b82525050565b5f602082019050611a835f830184611a61565b92915050565b5f611a93826119c2565b9050919050565b611aa381611a89565b82525050565b5f602082019050611abc5f830184611a9a565b92915050565b7f4e487b71000000000000000000000000000000000000000000000000000000005f52601160045260245ffd5b5f611af982611711565b91507fffffffffffffffffffffffffffffffffffffffffffffffffffffffffffffffff8203611b2b57611b2a611ac2565b5b600182019050919050565b5f604082019050611b495f83018561193d565b611b56602083018461193d565b9392505050565b5f606082019050611b705f830186611a61565b611b7d602083018561193d565b611b8a604083018461193d565b949350505050565b5f604082019050611ba55f830185611a61565b611bb2602083018461193d565b9392505050565b5f81519050611bc78161171a565b92915050565b5f60208284031215611be257611be161170d565b5b5f611bef84828501611bb9565b9150509291505056fea264697066735822122084a9d63495ad03c92f981333dfcd5a7aabf696cb1bd9a32444f26b587fa2ed0164736f6c634300081d0033","linkReferences":{}},"methodIdentifiers":{"acceptOwnership()":"79ba5097","activate(uint256)":"b260c42a","applyPolicy(uint256,uint256)":"45bfeb4d","cancelBeforeActivate(uint256)":"5d322fca","finalizePaid(uint256)":"33470361","getPolicy(uint256)":"2b07fce3","nextPolicyId()":"cad0b8db","owner()":"8da5cb5b","pause()":"8456cb59","paused()":"5c975abb","pendingOwner()":"e30c3978","policyNFT()":"af02808a","renounceOwnership()":"715018a6","setPolicyNFT(address)":"72f5b6df","setTreasury(address)":"f0f44260","transferOwnership(address)":"f2fde38b","treasury()":"61d027b3","unpause()":"3f4ba83a"},"id":53}