{"abi":[{"type":"constructor","inputs":[{"name":"owner_","type":"address","internalType":"address"}],"stateMutability":"nonpayable"},{"type":"function","name":"acceptOwnership","inputs":[],"outputs":[],"stateMutability":"nonpayable"},{"type":"function","name":"confirmPolicy","inputs":[{"name":"policyId","type":"uint256","internalType":"uint256"},{"name":"start","type":"uint64","internalType":"uint64"}],"outputs":[],"stateMutability":"nonpayable"},{"type":"function","name":"createPolicy","inputs":[{"name":"productId","type":"uint256","internalType":"uint256"},{"name":"tier","type":"uint8","internalType":"enum Types.ProductTier"},{"name":"premiumPaid","type":"uint256","internalType":"uint256"},{"name":"coverageAmount","type":"uint256","internalType":"uint256"}],"outputs":[{"name":"policyId","type":"uint256","internalType":"uint256"}],"stateMutability":"nonpayable"},{"type":"function","name":"getPolicy","inputs":[{"name":"policyId","type":"uint256","internalType":"uint256"}],"outputs":[{"name":"","type":"tuple","internalType":"struct Types.Policy","components":[{"name":"productId","type":"uint256","internalType":"uint256"},{"name":"tier","type":"uint8","internalType":"enum Types.ProductTier"},{"name":"owner","type":"address","internalType":"address"},{"name":"premiumPaid","type":"uint256","internalType":"uint256"},{"name":"coverageAmount","type":"uint256","internalType":"uint256"},{"name":"status","type":"uint8","internalType":"enum Types.PolicyStatus"},{"name":"startDate","type":"uint64","internalType":"uint64"},{"name":"endDate","type":"uint64","internalType":"uint64"},{"name":"updatedAt","type":"uint64","internalType":"uint64"},{"name":"nftTokenId","type":"uint256","internalType":"uint256"}]}],"stateMutability":"view"},{"type":"function","name":"owner","inputs":[],"outputs":[{"name":"","type":"address","internalType":"address"}],"stateMutability":"view"},{"type":"function","name":"ownerOfPolicy","inputs":[{"name":"policyId","type":"uint256","internalType":"uint256"}],"outputs":[{"name":"","type":"address","internalType":"address"}],"stateMutability":"view"},{"type":"function","name":"pendingOwner","inputs":[],"outputs":[{"name":"","type":"address","internalType":"address"}],"stateMutability":"view"},{"type":"function","name":"policyNFT","inputs":[],"outputs":[{"name":"","type":"address","internalType":"address"}],"stateMutability":"view"},{"type":"function","name":"policySeq","inputs":[],"outputs":[{"name":"","type":"uint256","internalType":"uint256"}],"stateMutability":"view"},{"type":"function","name":"renounceOwnership","inputs":[],"outputs":[],"stateMutability":"nonpayable"},{"type":"function","name":"setPolicyNFT","inputs":[{"name":"nft","type":"address","internalType":"address"}],"outputs":[],"stateMutability":"nonpayable"},{"type":"function","name":"setStatusCancelled","inputs":[{"name":"policyId","type":"uint256","internalType":"uint256"}],"outputs":[],"stateMutability":"nonpayable"},{"type":"function","name":"setStatusExpired","inputs":[{"name":"policyId","type":"uint256","internalType":"uint256"}],"outputs":[],"stateMutability":"nonpayable"},{"type":"function","name":"setStatusPaid","inputs":[{"name":"policyId","type":"uint256","internalType":"uint256"}],"outputs":[],"stateMutability":"nonpayable"},{"type":"function","name":"transferOwnership","inputs":[{"name":"newOwner","type":"address","internalType":"address"}],"outputs":[],"stateMutability":"nonpayable"},{"type":"event","name":"OwnershipTransferStarted","inputs":[{"name":"previousOwner","type":"address","indexed":true,"internalType":"address"},{"name":"newOwner","type":"address","indexed":true,"internalType":"address"}],"anonymous":false},{"type":"event","name":"OwnershipTransferred","inputs":[{"name":"previousOwner","type":"address","indexed":true,"internalType":"address"},{"name":"newOwner","type":"address","indexed":true,"internalType":"address"}],"anonymous":false},{"type":"event","name":"PolicyConfirmed","inputs":[{"name":"policyId","type":"uint256","indexed":true,"internalType":"uint256"},{"name":"startDate","type":"uint64","indexed":false,"internalType":"uint64"},{"name":"endDate","type":"uint64","indexed":false,"internalType":"uint64"}],"anonymous":false},{"type":"event","name":"PolicyCreated","inputs":[{"name":"user","type":"address","indexed":true,"internalType":"address"},{"name":"policyId","type":"uint256","indexed":true,"internalType":"uint256"},{"name":"productId","type":"uint256","indexed":false,"internalType":"uint256"},{"name":"premiumPaid","type":"uint256","indexed":false,"internalType":"uint256"}],"anonymous":false},{"type":"error","name":"OwnableInvalidOwner","inputs":[{"name":"owner","type":"address","internalType":"address"}]},{"type":"error","name":"OwnableUnauthorizedAccount","inputs":[{"name":"account","type":"address","internalType":"address"}]}],"bytecode":{"object":"0x608060405234801561000f575f80fd5b50604051610c90380380610c9083398101604081905261002e916100d7565b806001600160a01b03811661005c57604051631e4fbdf760e01b81525f600482015260240160405180910390fd5b6100658161006c565b5050610104565b600180546001600160a01b031916905561008581610088565b50565b5f80546001600160a01b038381166001600160a01b0319831681178455604051919092169283917f8be0079c531659141344cd1fd0a4f28419497f9722a3daafe3b4186f6b6457e09190a35050565b5f602082840312156100e7575f80fd5b81516001600160a01b03811681146100fd575f80fd5b9392505050565b610b7f806101115f395ff3fe608060405234801561000f575f80fd5b50600436106100f0575f3560e01c80638da5cb5b11610093578063e041a6e911610063578063e041a6e9146101f5578063e070a78a14610208578063e30c39781461021b578063f2fde38b1461022c575f80fd5b80638da5cb5b1461017b578063af02808a1461019f578063b7b7e4d5146101b2578063cc95c60c146101c5575f80fd5b8063715018a6116100ce578063715018a61461014557806372f5b6df1461014d57806379ba5097146101605780637be213c414610168575f80fd5b80630dc8763c146100f45780632b07fce31461011057806363b57b0d14610130575b5f80fd5b6100fd60035481565b6040519081526020015b60405180910390f35b61012361011e36600461095d565b61023f565b60405161010791906109ac565b61014361013e36600461095d565b610387565b005b61014361039d565b61014361015b366004610a6a565b6103b0565b6101436103da565b61014361017636600461095d565b610420565b5f546001600160a01b03165b6040516001600160a01b039091168152602001610107565b600454610187906001600160a01b031681565b6101436101c036600461095d565b610433565b6101876101d336600461095d565b5f9081526002602052604090206001015461010090046001600160a01b031690565b6100fd610203366004610a97565b610446565b610143610216366004610ad4565b61057d565b6001546001600160a01b0316610187565b61014361023a366004610a6a565b6107b5565b60408051610140810182525f80825260208201819052918101829052606081018290526080810182905260a0810182905260c0810182905260e0810182905261010081018290526101208101919091525f828152600260208181526040928390208351610140810190945280548452600181015490929184019160ff909116908111156102ce576102ce610974565b60028111156102df576102df610974565b8152600182015461010090046001600160a01b031660208201526002820154604082015260038201546060820152600482015460809091019060ff16600681111561032c5761032c610974565b600681111561033d5761033d610974565b8152600482015467ffffffffffffffff610100820481166020840152600160481b820481166040840152600160881b90910416606082015260059091015460809091015292915050565b61038f610825565b61039a816006610851565b50565b6103a5610825565b6103ae5f6108fa565b565b6103b8610825565b600480546001600160a01b0319166001600160a01b0392909216919091179055565b60015433906001600160a01b031681146104175760405163118cdaa760e01b81526001600160a01b03821660048201526024015b60405180910390fd5b61039a816108fa565b610428610825565b61039a816004610851565b61043b610825565b61039a816005610851565b5f8083116104855760405162461bcd60e51b815260206004820152600c60248201526b5052454d49554d5f5a45524f60a01b604482015260640161040e565b60035f815461049390610b0e565b91829055505f818152600260208190526040909120878155600180820180549495509193889360ff19909116919084908111156104d2576104d2610974565b0217905550600181018054610100600160a81b03191633610100810291909117909155600282018590556003820184905560048201805478ffffffffffffffff00000000000000000000000000000000ff1916600160881b4267ffffffffffffffff1602179055604080518881526020810187905281518593927f7d02b09c49332ca74071d4d7d88d4220ec928f86ec5d8773c6faeae4ca86c5b0928290030190a350949350505050565b610585610825565b5f828152600260205260409020600181015461010090046001600160a01b03166105dd5760405162461bcd60e51b81526020600482015260096024820152681393d517d193d5539160ba1b604482015260640161040e565b5f600482015460ff1660068111156105f7576105f7610974565b146106355760405162461bcd60e51b815260206004820152600e60248201526d494e56414c49445f53544154555360901b604482015260640161040e565b60048101805467ffffffffffffffff84166101000268ffffffffffffffff00199091161790556106728267ffffffffffffffff166301e133800190565b600482810180544267ffffffffffffffff908116600160881b0267ffffffffffffffff60881b1970ffffffffffffffff0000000000000000ff1990931660ff19600160481b979093169690960291909116949094176001908117919091169390931790558054918301546040516335313c2160e11b81526001600160a01b036101009092048216928101929092525f921690636a627842906024016020604051808303815f875af1158015610729573d5f803e3d5ffd5b505050506040513d601f19601f8201168201806040525081019061074d9190610b32565b6005830181905560048301546040805167ffffffffffffffff610100840481168252600160481b909304909216602083015291925085917febef4104b6fbe2800c734c246b0a76be551aa5e8fb7fd0ab71530446bada6de6910160405180910390a250505050565b6107bd610825565b600180546001600160a01b0383166001600160a01b031990911681179091556107ed5f546001600160a01b031690565b6001600160a01b03167f38d16b8cac22d99fc7c124b9cd0de2d3fa1faef420bfe791d8c362d765e2270060405160405180910390a350565b5f546001600160a01b031633146103ae5760405163118cdaa760e01b815233600482015260240161040e565b5f828152600260205260409020600181015461010090046001600160a01b03166108a95760405162461bcd60e51b81526020600482015260096024820152681393d517d193d5539160ba1b604482015260640161040e565b60048101805483919060ff191660018360068111156108ca576108ca610974565b0217905550600401805467ffffffffffffffff60881b1916600160881b4267ffffffffffffffff16021790555050565b600180546001600160a01b031916905561039a815f80546001600160a01b038381166001600160a01b0319831681178455604051919092169283917f8be0079c531659141344cd1fd0a4f28419497f9722a3daafe3b4186f6b6457e09190a35050565b5f6020828403121561096d575f80fd5b5035919050565b634e487b7160e01b5f52602160045260245ffd5b6003811061099857610998610974565b9052565b6007811061099857610998610974565b815181526020808301516101408301916109c890840182610988565b5060408301516109e360408401826001600160a01b03169052565b50606083015160608301526080830151608083015260a0830151610a0a60a084018261099c565b5060c0830151610a2660c084018267ffffffffffffffff169052565b5060e0830151610a4260e084018267ffffffffffffffff169052565b506101008381015167ffffffffffffffff811684830152505061012092830151919092015290565b5f60208284031215610a7a575f80fd5b81356001600160a01b0381168114610a90575f80fd5b9392505050565b5f805f8060808587031215610aaa575f80fd5b84359350602085013560038110610abf575f80fd5b93969395505050506040820135916060013590565b5f8060408385031215610ae5575f80fd5b82359150602083013567ffffffffffffffff81168114610b03575f80fd5b809150509250929050565b5f60018201610b2b57634e487b7160e01b5f52601160045260245ffd5b5060010190565b5f60208284031215610b42575f80fd5b505191905056fea26469706673582212201323f32536fd762c316821b02c885da8599dfeeba056c7d69216a6884d557e0464736f6c63430008180033","linkReferences":{}},"methodIdentifiers":{"acceptOwnership()":"79ba5097","confirmPolicy(uint256,uint64)":"e070a78a","createPolicy(uint256,uint8,uint256,uint256)":"e041a6e9","getPolicy(uint256)":"2b07fce3","owner()":"8da5cb5b","ownerOfPolicy(uint256)":"cc95c60c","pendingOwner()":"e30c3978","policyNFT()":"af02808a","policySeq()":"0dc8763c","renounceOwnership()":"715018a6","setPolicyNFT(address)":"72f5b6df","setStatusCancelled(uint256)":"b7b7e4d5","setStatusExpired(uint256)":"63b57b0d","setStatusPaid(uint256)":"7be213c4","transferOwnership(address)":"f2fde38b"},"id":0}