{"abi":[{"type":"constructor","inputs":[{"name":"owner_","type":"address","internalType":"address"}],"stateMutability":"nonpayable"},{"type":"function","name":"acceptOwnership","inputs":[],"outputs":[],"stateMutability":"nonpayable"},{"type":"function","name":"cancelMode","inputs":[],"outputs":[{"name":"","type":"uint8","internalType":"enum Types.NFTModeOnCancel"}],"stateMutability":"view"},{"type":"function","name":"cancelPolicy","inputs":[{"name":"policyId","type":"uint256","internalType":"uint256"}],"outputs":[],"stateMutability":"nonpayable"},{"type":"function","name":"expireMode","inputs":[],"outputs":[{"name":"","type":"uint8","internalType":"enum Types.NFTModeOnExpire"}],"stateMutability":"view"},{"type":"function","name":"expirePolicy","inputs":[{"name":"policyId","type":"uint256","internalType":"uint256"}],"outputs":[],"stateMutability":"nonpayable"},{"type":"function","name":"insurance","inputs":[],"outputs":[{"name":"","type":"address","internalType":"address"}],"stateMutability":"view"},{"type":"function","name":"owner","inputs":[],"outputs":[{"name":"","type":"address","internalType":"address"}],"stateMutability":"view"},{"type":"function","name":"pendingOwner","inputs":[],"outputs":[{"name":"","type":"address","internalType":"address"}],"stateMutability":"view"},{"type":"function","name":"policyNFT","inputs":[],"outputs":[{"name":"","type":"address","internalType":"address"}],"stateMutability":"view"},{"type":"function","name":"refundPolicy","inputs":[],"outputs":[{"name":"feeBps","type":"uint16","internalType":"uint16"},{"name":"linear","type":"bool","internalType":"bool"},{"name":"minRefundBps","type":"uint16","internalType":"uint16"}],"stateMutability":"view"},{"type":"function","name":"renounceOwnership","inputs":[],"outputs":[],"stateMutability":"nonpayable"},{"type":"function","name":"setAddresses","inputs":[{"name":"_insurance","type":"address","internalType":"address"},{"name":"_policyNFT","type":"address","internalType":"address"},{"name":"_treasury","type":"address","internalType":"address"}],"outputs":[],"stateMutability":"nonpayable"},{"type":"function","name":"setCancelMode","inputs":[{"name":"m","type":"uint8","internalType":"enum Types.NFTModeOnCancel"}],"outputs":[],"stateMutability":"nonpayable"},{"type":"function","name":"setExpireMode","inputs":[{"name":"m","type":"uint8","internalType":"enum Types.NFTModeOnExpire"}],"outputs":[],"stateMutability":"nonpayable"},{"type":"function","name":"setRefundPolicy","inputs":[{"name":"rp","type":"tuple","internalType":"struct Fees.RefundPolicy","components":[{"name":"feeBps","type":"uint16","internalType":"uint16"},{"name":"linear","type":"bool","internalType":"bool"},{"name":"minRefundBps","type":"uint16","internalType":"uint16"}]}],"outputs":[],"stateMutability":"nonpayable"},{"type":"function","name":"transferOwnership","inputs":[{"name":"newOwner","type":"address","internalType":"address"}],"outputs":[],"stateMutability":"nonpayable"},{"type":"function","name":"treasury","inputs":[],"outputs":[{"name":"","type":"address","internalType":"address"}],"stateMutability":"view"},{"type":"event","name":"OwnershipTransferStarted","inputs":[{"name":"previousOwner","type":"address","indexed":true,"internalType":"address"},{"name":"newOwner","type":"address","indexed":true,"internalType":"address"}],"anonymous":false},{"type":"event","name":"OwnershipTransferred","inputs":[{"name":"previousOwner","type":"address","indexed":true,"internalType":"address"},{"name":"newOwner","type":"address","indexed":true,"internalType":"address"}],"anonymous":false},{"type":"event","name":"PolicyCancelled","inputs":[{"name":"policyId","type":"uint256","indexed":true,"internalType":"uint256"},{"name":"refundAmount","type":"uint256","indexed":false,"internalType":"uint256"}],"anonymous":false},{"type":"event","name":"PolicyExpired","inputs":[{"name":"policyId","type":"uint256","indexed":true,"internalType":"uint256"}],"anonymous":false},{"type":"error","name":"InvalidStatus","inputs":[]},{"type":"error","name":"NotActive","inputs":[]},{"type":"error","name":"NotPolicyOwner","inputs":[]},{"type":"error","name":"OwnableInvalidOwner","inputs":[{"name":"owner","type":"address","internalType":"address"}]},{"type":"error","name":"OwnableUnauthorizedAccount","inputs":[{"name":"account","type":"address","internalType":"address"}]},{"type":"error","name":"RefundNotAllowed","inputs":[]}],"bytecode":{"object":"0x6004805461ffff60a01b1916905560e06040526103e8608052600160a0526101f460c0526005805464ffffffffff19166401f40103e8179055348015610043575f80fd5b50604051610fe2380380610fe28339810160408190526100629161010b565b806001600160a01b03811661009057604051631e4fbdf760e01b81525f600482015260240160405180910390fd5b610099816100a0565b5050610138565b600180546001600160a01b03191690556100b9816100bc565b50565b5f80546001600160a01b038381166001600160a01b0319831681178455604051919092169283917f8be0079c531659141344cd1fd0a4f28419497f9722a3daafe3b4186f6b6457e09190a35050565b5f6020828403121561011b575f80fd5b81516001600160a01b0381168114610131575f80fd5b9392505050565b610e9d806101455f395ff3fe608060405234801561000f575f80fd5b5060043610610106575f3560e01c806389cf32041161009e578063b20e8bcc1161006e578063b20e8bcc1461023c578063c77036871461024f578063c7b9cf8c14610263578063e30c397814610276578063f2fde38b14610287575f80fd5b806389cf3204146101f35780638da5cb5b146102065780638ec4d02a14610216578063af02808a14610229575f80fd5b806348352526116100d9578063483525261461016f57806361d027b3146101b8578063715018a6146101e357806379ba5097146101eb575f80fd5b806309ca274b1461010a5780633037e4cd14610134578063363bf964146101495780633c2119931461015c575b5f80fd5b60045461011e90600160a01b900460ff1681565b60405161012b9190610b68565b60405180910390f35b610147610142366004610b7b565b61029a565b005b610147610157366004610ba6565b6103fe565b61014761016a366004610bee565b610445565b6005546101939061ffff8082169160ff620100008204169163010000009091041683565b6040805161ffff9485168152921515602084015292169181019190915260600161012b565b6004546101cb906001600160a01b031681565b6040516001600160a01b03909116815260200161012b565b61014761045f565b610147610472565b6002546101cb906001600160a01b031681565b5f546001600160a01b03166101cb565b610147610224366004610c10565b6104bb565b6003546101cb906001600160a01b031681565b61014761024a366004610b7b565b6104f0565b60045461011e90600160a81b900460ff1681565b610147610271366004610c10565b610799565b6001546001600160a01b03166101cb565b610147610295366004610c2b565b6107c6565b600254604051632b07fce360e01b8152600481018390525f916001600160a01b031690632b07fce39060240161014060405180830381865afa1580156102e2573d5f803e3d5ffd5b505050506040513d601f19601f820116820180604052508101906103069190610cbf565b905060018160a00151600681111561032057610320610b38565b1461033e57604051634065aaf160e11b815260040160405180910390fd5b61034c428260e00151610836565b610369576040516307a92f1960e51b815260040160405180910390fd5b6002546040516363b57b0d60e01b8152600481018490526001600160a01b03909116906363b57b0d906024015f604051808303815f87803b1580156103ac575f80fd5b505af11580156103be573d5f803e3d5ffd5b505050506103d081610120015161084e565b60405182907fb22aa541487fc93d989bb5b17d1e3a967f649c4979cfd658c0849e070ae0dca0905f90a25050565b610406610907565b600280546001600160a01b039485166001600160a01b031991821617909155600380549385169382169390931790925560048054919093169116179055565b61044d610907565b80600561045a8282610d7d565b505050565b610467610907565b6104705f610933565b565b60015433906001600160a01b031681146104af5760405163118cdaa760e01b81526001600160a01b03821660048201526024015b60405180910390fd5b6104b881610933565b50565b6104c3610907565b6004805482919060ff60a81b1916600160a81b8360018111156104e8576104e8610b38565b021790555050565b600254604051632b07fce360e01b8152600481018390525f916001600160a01b031690632b07fce39060240161014060405180830381865afa158015610538573d5f803e3d5ffd5b505050506040513d601f19601f8201168201806040525081019061055c9190610cbf565b905060018160a00151600681111561057657610576610b38565b1461059457604051634065aaf160e11b815260040160405180910390fd5b600254604051633325718360e21b81526004810184905233916001600160a01b03169063cc95c60c90602401602060405180830381865afa1580156105db573d5f803e3d5ffd5b505050506040513d601f19601f820116820180604052508101906105ff9190610def565b6001600160a01b0316146106265760405163f9d492db60e01b815260040160405180910390fd5b6040805160608101825260055461ffff808216835260ff6201000083041615156020840152630100000090910416918101919091525f9061066a908390429061094c565b9050805f0361068c5760405163089c998760e01b815260040160405180910390fd5b60025460405163b7b7e4d560e01b8152600481018590526001600160a01b039091169063b7b7e4d5906024015f604051808303815f87803b1580156106cf575f80fd5b505af11580156106e1573d5f803e3d5ffd5b505060048054604086810151905163410085df60e01b81526001600160a01b03918216938101939093526024830186905216925063410085df91506044015f604051808303815f87803b158015610736575f80fd5b505af1158015610748573d5f803e3d5ffd5b5050505061075a826101200151610aca565b827f7c41b459dc71e42d9c8413ad0079d0a19b31e18ab9fb49082b826577e005f3fc8260405161078c91815260200190565b60405180910390a2505050565b6107a1610907565b6004805482919060ff60a01b1916600160a01b8360018111156104e8576104e8610b38565b6107ce610907565b600180546001600160a01b0383166001600160a01b031990911681179091556107fe5f546001600160a01b031690565b6001600160a01b03167f38d16b8cac22d99fc7c124b9cd0de2d3fa1faef420bfe791d8c362d765e2270060405160405180910390a350565b67ffffffffffffffff80821690831610155b92915050565b5f600454600160a81b900460ff16600181111561086d5761086d610b38565b036108cf57600354604051630852cd8d60e31b8152600481018390526001600160a01b03909116906342966c68906024015b5f604051808303815f87803b1580156108b6575f80fd5b505af11580156108c8573d5f803e3d5ffd5b5050505050565b60035460405163d854927160e01b815260048101839052600160248201526001600160a01b039091169063d85492719060440161089f565b5f546001600160a01b031633146104705760405163118cdaa760e01b81523360048201526024016104a6565b600180546001600160a01b03191690556104b881610ae9565b5f816020015161095d57505f610ac3565b8360e0015167ffffffffffffffff168367ffffffffffffffff161061098357505f610ac3565b83606001515f0361099557505f610ac3565b8360e0015167ffffffffffffffff168460c0015167ffffffffffffffff16106109bf57505f610ac3565b5f8460c0015167ffffffffffffffff168560e0015167ffffffffffffffff166109e89190610e1e565b90505f8467ffffffffffffffff168660e0015167ffffffffffffffff16610a0f9190610e1e565b905081811115610a1c5750805b5f82828860600151610a2e9190610e31565b610a389190610e48565b855190915061ffff1615610a765784515f9061271090610a5c9061ffff1684610e31565b610a669190610e48565b9050610a728183610e1e565b9150505b604085015161ffff1615610abe575f61271061ffff16866040015161ffff168960600151610aa49190610e31565b610aae9190610e48565b905080821015610abc578091505b505b925050505b9392505050565b5f600454600160a01b900460ff16600181111561086d5761086d610b38565b5f80546001600160a01b038381166001600160a01b0319831681178455604051919092169283917f8be0079c531659141344cd1fd0a4f28419497f9722a3daafe3b4186f6b6457e09190a35050565b634e487b7160e01b5f52602160045260245ffd5b600281106104b857634e487b7160e01b5f52602160045260245ffd5b60208101610b7583610b4c565b91905290565b5f60208284031215610b8b575f80fd5b5035919050565b6001600160a01b03811681146104b8575f80fd5b5f805f60608486031215610bb8575f80fd5b8335610bc381610b92565b92506020840135610bd381610b92565b91506040840135610be381610b92565b809150509250925092565b5f60608284031215610bfe575f80fd5b50919050565b600281106104b8575f80fd5b5f60208284031215610c20575f80fd5b8135610ac381610c04565b5f60208284031215610c3b575f80fd5b8135610ac381610b92565b604051610140810167ffffffffffffffff81118282101715610c7657634e487b7160e01b5f52604160045260245ffd5b60405290565b805160038110610c8a575f80fd5b919050565b8051610c8a81610b92565b805160078110610c8a575f80fd5b805167ffffffffffffffff81168114610c8a575f80fd5b5f6101408284031215610cd0575f80fd5b610cd8610c46565b82518152610ce860208401610c7c565b6020820152610cf960408401610c8f565b60408201526060830151606082015260808301516080820152610d1e60a08401610c9a565b60a0820152610d2f60c08401610ca8565b60c0820152610d4060e08401610ca8565b60e0820152610100610d53818501610ca8565b90820152610120928301519281019290925250919050565b5f813561ffff81168114610848575f80fd5b61ffff610d8983610d6b565b1681548161ffff1982161783556020840135801515808214610da9575f80fd5b62ff00008160101b16915050808362ffffff1984161717845564ffff000000610dd460408701610d6b565b60181b168364ffffffffff1984161782171784555050505050565b5f60208284031215610dff575f80fd5b8151610ac381610b92565b634e487b7160e01b5f52601160045260245ffd5b8181038181111561084857610848610e0a565b808202811582820484141761084857610848610e0a565b5f82610e6257634e487b7160e01b5f52601260045260245ffd5b50049056fea26469706673582212203b681e41ca9872f7c5683dc71c88538a0751eea21570985e6d6325858e0224ab64736f6c63430008180033","linkReferences":{}},"methodIdentifiers":{"acceptOwnership()":"79ba5097","cancelMode()":"09ca274b","cancelPolicy(uint256)":"b20e8bcc","expireMode()":"c7703687","expirePolicy(uint256)":"3037e4cd","insurance()":"89cf3204","owner()":"8da5cb5b","pendingOwner()":"e30c3978","policyNFT()":"af02808a","refundPolicy()":"48352526","renounceOwnership()":"715018a6","setAddresses(address,address,address)":"363bf964","setCancelMode(uint8)":"c7b9cf8c","setExpireMode(uint8)":"8ec4d02a","setRefundPolicy((uint16,bool,uint16))":"3c211993","transferOwnership(address)":"f2fde38b","treasury()":"61d027b3"},"id":2}