{"abi":[{"type":"constructor","inputs":[{"name":"owner_","type":"address","internalType":"address"}],"stateMutability":"nonpayable"},{"type":"receive","stateMutability":"payable"},{"type":"function","name":"acceptOwnership","inputs":[],"outputs":[],"stateMutability":"nonpayable"},{"type":"function","name":"controllers","inputs":[{"name":"","type":"address","internalType":"address"}],"outputs":[{"name":"","type":"bool","internalType":"bool"}],"stateMutability":"view"},{"type":"function","name":"deposit","inputs":[],"outputs":[],"stateMutability":"payable"},{"type":"function","name":"owner","inputs":[],"outputs":[{"name":"","type":"address","internalType":"address"}],"stateMutability":"view"},{"type":"function","name":"payout","inputs":[{"name":"to","type":"address","internalType":"address"},{"name":"amount","type":"uint256","internalType":"uint256"}],"outputs":[],"stateMutability":"nonpayable"},{"type":"function","name":"pendingOwner","inputs":[],"outputs":[{"name":"","type":"address","internalType":"address"}],"stateMutability":"view"},{"type":"function","name":"refund","inputs":[{"name":"to","type":"address","internalType":"address"},{"name":"amount","type":"uint256","internalType":"uint256"}],"outputs":[],"stateMutability":"nonpayable"},{"type":"function","name":"renounceOwnership","inputs":[],"outputs":[],"stateMutability":"nonpayable"},{"type":"function","name":"setController","inputs":[{"name":"who","type":"address","internalType":"address"},{"name":"on","type":"bool","internalType":"bool"}],"outputs":[],"stateMutability":"nonpayable"},{"type":"function","name":"transferOwnership","inputs":[{"name":"newOwner","type":"address","internalType":"address"}],"outputs":[],"stateMutability":"nonpayable"},{"type":"event","name":"OwnershipTransferStarted","inputs":[{"name":"previousOwner","type":"address","indexed":true,"internalType":"address"},{"name":"newOwner","type":"address","indexed":true,"internalType":"address"}],"anonymous":false},{"type":"event","name":"OwnershipTransferred","inputs":[{"name":"previousOwner","type":"address","indexed":true,"internalType":"address"},{"name":"newOwner","type":"address","indexed":true,"internalType":"address"}],"anonymous":false},{"type":"error","name":"OwnableInvalidOwner","inputs":[{"name":"owner","type":"address","internalType":"address"}]},{"type":"error","name":"OwnableUnauthorizedAccount","inputs":[{"name":"account","type":"address","internalType":"address"}]}],"bytecode":{"object":"0x608060405234801561000f575f80fd5b5060405161070038038061070083398101604081905261002e916100d7565b806001600160a01b03811661005c57604051631e4fbdf760e01b81525f600482015260240160405180910390fd5b6100658161006c565b5050610104565b600180546001600160a01b031916905561008581610088565b50565b5f80546001600160a01b038381166001600160a01b0319831681178455604051919092169283917f8be0079c531659141344cd1fd0a4f28419497f9722a3daafe3b4186f6b6457e09190a35050565b5f602082840312156100e7575f80fd5b81516001600160a01b03811681146100fd575f80fd5b9392505050565b6105ef806101115f395ff3fe608060405260043610610092575f3560e01c8063d0e30db011610057578063d0e30db0146100bc578063da8c229e1461013a578063e0dba60f14610178578063e30c397814610197578063f2fde38b146101b4575f80fd5b8063117de2fd1461009d578063410085df146100be578063715018a6146100dd57806379ba5097146100f15780638da5cb5b14610105575f80fd5b3661009957005b5f80fd5b3480156100a8575f80fd5b506100bc6100b7366004610538565b6101d3565b005b3480156100c9575f80fd5b506100bc6100d8366004610538565b6102b9565b3480156100e8575f80fd5b506100bc610395565b3480156100fc575f80fd5b506100bc6103a8565b348015610110575f80fd5b505f546001600160a01b03165b6040516001600160a01b0390911681526020015b60405180910390f35b348015610145575f80fd5b50610168610154366004610560565b60026020525f908152604090205460ff1681565b6040519015158152602001610131565b348015610183575f80fd5b506100bc610192366004610580565b6103ec565b3480156101a2575f80fd5b506001546001600160a01b031661011d565b3480156101bf575f80fd5b506100bc6101ce366004610560565b61041e565b335f9081526002602052604090205460ff166102275760405162461bcd60e51b815260206004820152600e60248201526d2727aa2fa1a7a72a2927a62622a960911b60448201526064015b60405180910390fd5b5f826001600160a01b0316826040515f6040518083038185875af1925050503d805f8114610270576040519150601f19603f3d011682016040523d82523d5f602084013e610275565b606091505b50509050806102b45760405162461bcd60e51b815260206004820152600b60248201526a14105653d55517d190525360aa1b604482015260640161021e565b505050565b335f9081526002602052604090205460ff166103085760405162461bcd60e51b815260206004820152600e60248201526d2727aa2fa1a7a72a2927a62622a960911b604482015260640161021e565b5f826001600160a01b0316826040515f6040518083038185875af1925050503d805f8114610351576040519150601f19603f3d011682016040523d82523d5f602084013e610356565b606091505b50509050806102b45760405162461bcd60e51b815260206004820152600b60248201526a14915195539117d190525360aa1b604482015260640161021e565b61039d61048e565b6103a65f6104ba565b565b60015433906001600160a01b031681146103e05760405163118cdaa760e01b81526001600160a01b038216600482015260240161021e565b6103e9816104ba565b50565b6103f461048e565b6001600160a01b03919091165f908152600260205260409020805460ff1916911515919091179055565b61042661048e565b600180546001600160a01b0383166001600160a01b031990911681179091556104565f546001600160a01b031690565b6001600160a01b03167f38d16b8cac22d99fc7c124b9cd0de2d3fa1faef420bfe791d8c362d765e2270060405160405180910390a350565b5f546001600160a01b031633146103a65760405163118cdaa760e01b815233600482015260240161021e565b600180546001600160a01b03191690556103e9815f80546001600160a01b038381166001600160a01b0319831681178455604051919092169283917f8be0079c531659141344cd1fd0a4f28419497f9722a3daafe3b4186f6b6457e09190a35050565b80356001600160a01b0381168114610533575f80fd5b919050565b5f8060408385031215610549575f80fd5b6105528361051d565b946020939093013593505050565b5f60208284031215610570575f80fd5b6105798261051d565b9392505050565b5f8060408385031215610591575f80fd5b61059a8361051d565b9150602083013580151581146105ae575f80fd5b80915050925092905056fea2646970667358221220a14a0853c423570eacb21ea2b22c67f078889b6b2c3c11ce8488eb78c0dab9cd64736f6c63430008180033","linkReferences":{}},"methodIdentifiers":{"acceptOwnership()":"79ba5097","controllers(address)":"da8c229e","deposit()":"d0e30db0","owner()":"8da5cb5b","payout(address,uint256)":"117de2fd","pendingOwner()":"e30c3978","refund(address,uint256)":"410085df","renounceOwnership()":"715018a6","setController(address,bool)":"e0dba60f","transferOwnership(address)":"f2fde38b"},"id":4}