{"abi":[{"type":"constructor","inputs":[{"name":"treasury_","type":"address","internalType":"address"}],"stateMutability":"nonpayable"},{"type":"function","name":"acceptOwnership","inputs":[],"outputs":[],"stateMutability":"nonpayable"},{"type":"function","name":"approveAndPay","inputs":[{"name":"policyId","type":"uint256","internalType":"uint256"},{"name":"beneficiary","type":"address","internalType":"address"},{"name":"amount","type":"uint256","internalType":"uint256"}],"outputs":[],"stateMutability":"nonpayable"},{"type":"function","name":"owner","inputs":[],"outputs":[{"name":"","type":"address","internalType":"address"}],"stateMutability":"view"},{"type":"function","name":"pause","inputs":[],"outputs":[],"stateMutability":"nonpayable"},{"type":"function","name":"paused","inputs":[],"outputs":[{"name":"","type":"bool","internalType":"bool"}],"stateMutability":"view"},{"type":"function","name":"pendingOwner","inputs":[],"outputs":[{"name":"","type":"address","internalType":"address"}],"stateMutability":"view"},{"type":"function","name":"renounceOwnership","inputs":[],"outputs":[],"stateMutability":"nonpayable"},{"type":"function","name":"setTreasury","inputs":[{"name":"treasury_","type":"address","internalType":"address"}],"outputs":[],"stateMutability":"nonpayable"},{"type":"function","name":"transferOwnership","inputs":[{"name":"newOwner","type":"address","internalType":"address"}],"outputs":[],"stateMutability":"nonpayable"},{"type":"function","name":"treasury","inputs":[],"outputs":[{"name":"","type":"address","internalType":"contract ITreasury"}],"stateMutability":"view"},{"type":"function","name":"unpause","inputs":[],"outputs":[],"stateMutability":"nonpayable"},{"type":"event","name":"ClaimApproved","inputs":[{"name":"policyId","type":"uint256","indexed":true,"internalType":"uint256"},{"name":"beneficiary","type":"address","indexed":true,"internalType":"address"},{"name":"amount","type":"uint256","indexed":false,"internalType":"uint256"}],"anonymous":false},{"type":"event","name":"OwnershipTransferStarted","inputs":[{"name":"previousOwner","type":"address","indexed":true,"internalType":"address"},{"name":"newOwner","type":"address","indexed":true,"internalType":"address"}],"anonymous":false},{"type":"event","name":"OwnershipTransferred","inputs":[{"name":"previousOwner","type":"address","indexed":true,"internalType":"address"},{"name":"newOwner","type":"address","indexed":true,"internalType":"address"}],"anonymous":false},{"type":"event","name":"Paused","inputs":[{"name":"account","type":"address","indexed":false,"internalType":"address"}],"anonymous":false},{"type":"event","name":"Unpaused","inputs":[{"name":"account","type":"address","indexed":false,"internalType":"address"}],"anonymous":false},{"type":"error","name":"EnforcedPause","inputs":[]},{"type":"error","name":"ExpectedPause","inputs":[]},{"type":"error","name":"InvalidAmount","inputs":[]},{"type":"error","name":"OwnableInvalidOwner","inputs":[{"name":"owner","type":"address","internalType":"address"}]},{"type":"error","name":"OwnableUnauthorizedAccount","inputs":[{"name":"account","type":"address","internalType":"address"}]},{"type":"error","name":"ReentrancyGuardReentrantCall","inputs":[]},{"type":"error","name":"ZeroAddress","inputs":[]}],"bytecode":{"object":"0x608060405234801561000f575f5ffd5b50604051610e83380380610e83833981810160405281019061003191906102bb565b335f73ffffffffffffffffffffffffffffffffffffffff168173ffffffffffffffffffffffffffffffffffffffff16036100a2575f6040517f1e4fbdf700000000000000000000000000000000000000000000000000000000815260040161009991906102f5565b60405180910390fd5b6100b18161016660201b60201c565b5060016002819055505f73ffffffffffffffffffffffffffffffffffffffff168173ffffffffffffffffffffffffffffffffffffffff160361011f576040517fd92e233d00000000000000000000000000000000000000000000000000000000815260040160405180910390fd5b80600360016101000a81548173ffffffffffffffffffffffffffffffffffffffff021916908373ffffffffffffffffffffffffffffffffffffffff1602179055505061030e565b60015f6101000a81549073ffffffffffffffffffffffffffffffffffffffff02191690556101998161019c60201b60201c565b50565b5f5f5f9054906101000a900473ffffffffffffffffffffffffffffffffffffffff169050815f5f6101000a81548173ffffffffffffffffffffffffffffffffffffffff021916908373ffffffffffffffffffffffffffffffffffffffff1602179055508173ffffffffffffffffffffffffffffffffffffffff168173ffffffffffffffffffffffffffffffffffffffff167f8be0079c531659141344cd1fd0a4f28419497f9722a3daafe3b4186f6b6457e060405160405180910390a35050565b5f5ffd5b5f73ffffffffffffffffffffffffffffffffffffffff82169050919050565b5f61028a82610261565b9050919050565b61029a81610280565b81146102a4575f5ffd5b50565b5f815190506102b581610291565b92915050565b5f602082840312156102d0576102cf61025d565b5b5f6102dd848285016102a7565b91505092915050565b6102ef81610280565b82525050565b5f6020820190506103085f8301846102e6565b92915050565b610b688061031b5f395ff3fe608060405234801561000f575f5ffd5b50600436106100a7575f3560e01c80637c1508c61161006f5780637c1508c6146101055780638456cb59146101215780638da5cb5b1461012b578063e30c397814610149578063f0f4426014610167578063f2fde38b14610183576100a7565b80633f4ba83a146100ab5780635c975abb146100b557806361d027b3146100d3578063715018a6146100f157806379ba5097146100fb575b5f5ffd5b6100b361019f565b005b6100bd6101b1565b6040516100ca9190610914565b60405180910390f35b6100db6101c6565b6040516100e891906109a7565b60405180910390f35b6100f96101ec565b005b6101036101ff565b005b61011f600480360381019061011a9190610a32565b61028d565b005b61012961042b565b005b61013361043d565b6040516101409190610a91565b60405180910390f35b610151610464565b60405161015e9190610a91565b60405180910390f35b610181600480360381019061017c9190610aaa565b61048c565b005b61019d60048036038101906101989190610aaa565b61053d565b005b6101a76105e9565b6101af610670565b565b5f60035f9054906101000a900460ff16905090565b600360019054906101000a900473ffffffffffffffffffffffffffffffffffffffff1681565b6101f46105e9565b6101fd5f6106d1565b565b5f610208610701565b90508073ffffffffffffffffffffffffffffffffffffffff16610229610464565b73ffffffffffffffffffffffffffffffffffffffff161461028157806040517f118cdaa70000000000000000000000000000000000000000000000000000000081526004016102789190610a91565b60405180910390fd5b61028a816106d1565b50565b6102956105e9565b61029d610708565b6102a561074c565b5f73ffffffffffffffffffffffffffffffffffffffff168273ffffffffffffffffffffffffffffffffffffffff160361030a576040517fd92e233d00000000000000000000000000000000000000000000000000000000815260040160405180910390fd5b5f8103610343576040517f2c5211c600000000000000000000000000000000000000000000000000000000815260040160405180910390fd5b8173ffffffffffffffffffffffffffffffffffffffff16837f0b582d60859bb6c5e17bb049bc83044c0c8dab7d0a026b4e3a4a2966d8926de58360405161038a9190610ae4565b60405180910390a3600360019054906101000a900473ffffffffffffffffffffffffffffffffffffffff1673ffffffffffffffffffffffffffffffffffffffff1663df75f7718385846040518463ffffffff1660e01b81526004016103f193929190610afd565b5f604051808303815f87803b158015610408575f5ffd5b505af115801561041a573d5f5f3e3d5ffd5b5050505061042661078d565b505050565b6104336105e9565b61043b610797565b565b5f5f5f9054906101000a900473ffffffffffffffffffffffffffffffffffffffff16905090565b5f60015f9054906101000a900473ffffffffffffffffffffffffffffffffffffffff16905090565b6104946105e9565b5f73ffffffffffffffffffffffffffffffffffffffff168173ffffffffffffffffffffffffffffffffffffffff16036104f9576040517fd92e233d00000000000000000000000000000000000000000000000000000000815260040160405180910390fd5b80600360016101000a81548173ffffffffffffffffffffffffffffffffffffffff021916908373ffffffffffffffffffffffffffffffffffffffff16021790555050565b6105456105e9565b8060015f6101000a81548173ffffffffffffffffffffffffffffffffffffffff021916908373ffffffffffffffffffffffffffffffffffffffff1602179055508073ffffffffffffffffffffffffffffffffffffffff166105a461043d565b73ffffffffffffffffffffffffffffffffffffffff167f38d16b8cac22d99fc7c124b9cd0de2d3fa1faef420bfe791d8c362d765e2270060405160405180910390a350565b6105f1610701565b73ffffffffffffffffffffffffffffffffffffffff1661060f61043d565b73ffffffffffffffffffffffffffffffffffffffff161461066e57610632610701565b6040517f118cdaa70000000000000000000000000000000000000000000000000000000081526004016106659190610a91565b60405180910390fd5b565b6106786107f9565b5f60035f6101000a81548160ff0219169083151502179055507f5db9ee0a495bf2e6ff9c91a7834c1ba4fdd244a5e8aa4e537bd38aeae4b073aa6106ba610701565b6040516106c79190610a91565b60405180910390a1565b60015f6101000a81549073ffffffffffffffffffffffffffffffffffffffff02191690556106fe81610839565b50565b5f33905090565b6002805403610743576040517f3ee5aeb500000000000000000000000000000000000000000000000000000000815260040160405180910390fd5b60028081905550565b6107546101b1565b1561078b576040517fd93c066500000000000000000000000000000000000000000000000000000000815260040160405180910390fd5b565b6001600281905550565b61079f61074c565b600160035f6101000a81548160ff0219169083151502179055507f62e78cea01bee320cd4e420270b5ea74000d11b0c9f74754ebdbfc544b05a2586107e2610701565b6040516107ef9190610a91565b60405180910390a1565b6108016101b1565b610837576040517f8dfc202b00000000000000000000000000000000000000000000000000000000815260040160405180910390fd5b565b5f5f5f9054906101000a900473ffffffffffffffffffffffffffffffffffffffff169050815f5f6101000a81548173ffffffffffffffffffffffffffffffffffffffff021916908373ffffffffffffffffffffffffffffffffffffffff1602179055508173ffffffffffffffffffffffffffffffffffffffff168173ffffffffffffffffffffffffffffffffffffffff167f8be0079c531659141344cd1fd0a4f28419497f9722a3daafe3b4186f6b6457e060405160405180910390a35050565b5f8115159050919050565b61090e816108fa565b82525050565b5f6020820190506109275f830184610905565b92915050565b5f73ffffffffffffffffffffffffffffffffffffffff82169050919050565b5f819050919050565b5f61096f61096a6109658461092d565b61094c565b61092d565b9050919050565b5f61098082610955565b9050919050565b5f61099182610976565b9050919050565b6109a181610987565b82525050565b5f6020820190506109ba5f830184610998565b92915050565b5f5ffd5b5f819050919050565b6109d6816109c4565b81146109e0575f5ffd5b50565b5f813590506109f1816109cd565b92915050565b5f610a018261092d565b9050919050565b610a11816109f7565b8114610a1b575f5ffd5b50565b5f81359050610a2c81610a08565b92915050565b5f5f5f60608486031215610a4957610a486109c0565b5b5f610a56868287016109e3565b9350506020610a6786828701610a1e565b9250506040610a78868287016109e3565b9150509250925092565b610a8b816109f7565b82525050565b5f602082019050610aa45f830184610a82565b92915050565b5f60208284031215610abf57610abe6109c0565b5b5f610acc84828501610a1e565b91505092915050565b610ade816109c4565b82525050565b5f602082019050610af75f830184610ad5565b92915050565b5f606082019050610b105f830186610a82565b610b1d6020830185610ad5565b610b2a6040830184610ad5565b94935050505056fea2646970667358221220d829c9e91f39460c3671dcca847ea40bb7095e8b4c5b00a9d884a2bd72ad69e064736f6c634300081d0033","linkReferences":{}},"methodIdentifiers":{"acceptOwnership()":"79ba5097","approveAndPay(uint256,address,uint256)":"7c1508c6","owner()":"8da5cb5b","pause()":"8456cb59","paused()":"5c975abb","pendingOwner()":"e30c3978","renounceOwnership()":"715018a6","setTreasury(address)":"f0f44260","transferOwnership(address)":"f2fde38b","treasury()":"61d027b3","unpause()":"3f4ba83a"},"id":54}