{
  "_format": "hh3-artifact-1",
  "contractName": "Insurance",
  "sourceName": "src/core/Insurance.sol",
  "abi": [
    {
      "inputs": [
        {
          "internalType": "address",
          "name": "treasury_",
          "type": "address"
        },
        {
          "internalType": "address",
          "name": "policyNFT_",
          "type": "address"
        }
      ],
      "stateMutability": "nonpayable",
      "type": "constructor"
    },
    {
      "inputs": [],
      "name": "AlreadyActive",
      "type": "error"
    },
    {
      "inputs": [],
      "name": "AlreadyPaid",
      "type": "error"
    },
    {
      "inputs": [],
      "name": "EnforcedPause",
      "type": "error"
    },
    {
      "inputs": [
        {
          "internalType": "uint256",
          "name": "required",
          "type": "uint256"
        },
        {
          "internalType": "uint256",
          "name": "paid",
          "type": "uint256"
        }
      ],
      "name": "ErrInsufficientPremium",
      "type": "error"
    },
    {
      "inputs": [
        {
          "internalType": "uint256",
          "name": "productId",
          "type": "uint256"
        }
      ],
      "name": "ErrProductInactive",
      "type": "error"
    },
    {
      "inputs": [],
      "name": "ExpectedPause",
      "type": "error"
    },
    {
      "inputs": [],
      "name": "InvalidAmount",
      "type": "error"
    },
    {
      "inputs": [],
      "name": "NotActive",
      "type": "error"
    },
    {
      "inputs": [],
      "name": "NotAuthorized",
      "type": "error"
    },
    {
      "inputs": [],
      "name": "NotPending",
      "type": "error"
    },
    {
      "inputs": [
        {
          "internalType": "address",
          "name": "owner",
          "type": "address"
        }
      ],
      "name": "OwnableInvalidOwner",
      "type": "error"
    },
    {
      "inputs": [
        {
          "internalType": "address",
          "name": "account",
          "type": "address"
        }
      ],
      "name": "OwnableUnauthorizedAccount",
      "type": "error"
    },
    {
      "inputs": [],
      "name": "ReentrancyGuardReentrantCall",
      "type": "error"
    },
    {
      "inputs": [],
      "name": "TokenNotSet",
      "type": "error"
    },
    {
      "inputs": [],
      "name": "ZeroAddress",
      "type": "error"
    },
    {
      "anonymous": false,
      "inputs": [
        {
          "indexed": true,
          "internalType": "address",
          "name": "previousOwner",
          "type": "address"
        },
        {
          "indexed": true,
          "internalType": "address",
          "name": "newOwner",
          "type": "address"
        }
      ],
      "name": "OwnershipTransferStarted",
      "type": "event"
    },
    {
      "anonymous": false,
      "inputs": [
        {
          "indexed": true,
          "internalType": "address",
          "name": "previousOwner",
          "type": "address"
        },
        {
          "indexed": true,
          "internalType": "address",
          "name": "newOwner",
          "type": "address"
        }
      ],
      "name": "OwnershipTransferred",
      "type": "event"
    },
    {
      "anonymous": false,
      "inputs": [
        {
          "indexed": false,
          "internalType": "address",
          "name": "account",
          "type": "address"
        }
      ],
      "name": "Paused",
      "type": "event"
    },
    {
      "anonymous": false,
      "inputs": [
        {
          "indexed": true,
          "internalType": "uint256",
          "name": "policyId",
          "type": "uint256"
        },
        {
          "indexed": false,
          "internalType": "uint256",
          "name": "tokenId",
          "type": "uint256"
        },
        {
          "indexed": false,
          "internalType": "uint256",
          "name": "activatedAt",
          "type": "uint256"
        }
      ],
      "name": "PolicyActivated",
      "type": "event"
    },
    {
      "anonymous": false,
      "inputs": [
        {
          "indexed": true,
          "internalType": "uint256",
          "name": "policyId",
          "type": "uint256"
        },
        {
          "indexed": true,
          "internalType": "address",
          "name": "holder",
          "type": "address"
        },
        {
          "indexed": false,
          "internalType": "uint256",
          "name": "refundedAmount",
          "type": "uint256"
        }
      ],
      "name": "PolicyCancelledBeforeActivate",
      "type": "event"
    },
    {
      "anonymous": false,
      "inputs": [
        {
          "indexed": true,
          "internalType": "uint256",
          "name": "policyId",
          "type": "uint256"
        },
        {
          "indexed": true,
          "internalType": "address",
          "name": "holder",
          "type": "address"
        },
        {
          "indexed": true,
          "internalType": "uint256",
          "name": "productId",
          "type": "uint256"
        },
        {
          "indexed": false,
          "internalType": "uint256",
          "name": "premiumPaid",
          "type": "uint256"
        },
        {
          "indexed": false,
          "internalType": "uint256",
          "name": "coverageAmount",
          "type": "uint256"
        }
      ],
      "name": "PolicyCreated",
      "type": "event"
    },
    {
      "anonymous": false,
      "inputs": [
        {
          "indexed": false,
          "internalType": "address",
          "name": "account",
          "type": "address"
        }
      ],
      "name": "Unpaused",
      "type": "event"
    },
    {
      "inputs": [],
      "name": "acceptOwnership",
      "outputs": [],
      "stateMutability": "nonpayable",
      "type": "function"
    },
    {
      "inputs": [
        {
          "internalType": "uint256",
          "name": "policyId",
          "type": "uint256"
        }
      ],
      "name": "activate",
      "outputs": [],
      "stateMutability": "nonpayable",
      "type": "function"
    },
    {
      "inputs": [
        {
          "internalType": "uint256",
          "name": "productId",
          "type": "uint256"
        },
        {
          "internalType": "uint256",
          "name": "coverageAmount",
          "type": "uint256"
        }
      ],
      "name": "applyPolicy",
      "outputs": [
        {
          "internalType": "uint256",
          "name": "policyId",
          "type": "uint256"
        }
      ],
      "stateMutability": "payable",
      "type": "function"
    },
    {
      "inputs": [
        {
          "internalType": "uint256",
          "name": "policyId",
          "type": "uint256"
        }
      ],
      "name": "cancelBeforeActivate",
      "outputs": [],
      "stateMutability": "nonpayable",
      "type": "function"
    },
    {
      "inputs": [
        {
          "internalType": "uint256",
          "name": "policyId",
          "type": "uint256"
        }
      ],
      "name": "finalizePaid",
      "outputs": [],
      "stateMutability": "nonpayable",
      "type": "function"
    },
    {
      "inputs": [
        {
          "internalType": "uint256",
          "name": "policyId",
          "type": "uint256"
        }
      ],
      "name": "getPolicy",
      "outputs": [
        {
          "components": [
            {
              "internalType": "uint256",
              "name": "id",
              "type": "uint256"
            },
            {
              "internalType": "address",
              "name": "holder",
              "type": "address"
            },
            {
              "internalType": "uint256",
              "name": "productId",
              "type": "uint256"
            },
            {
              "internalType": "uint256",
              "name": "premiumPaid",
              "type": "uint256"
            },
            {
              "internalType": "uint256",
              "name": "coverageAmount",
              "type": "uint256"
            },
            {
              "internalType": "uint256",
              "name": "createdAt",
              "type": "uint256"
            },
            {
              "internalType": "uint256",
              "name": "activatedAt",
              "type": "uint256"
            },
            {
              "internalType": "uint256",
              "name": "tokenId",
              "type": "uint256"
            },
            {
              "internalType": "enum PolicyStatus",
              "name": "status",
              "type": "uint8"
            }
          ],
          "internalType": "struct Policy",
          "name": "",
          "type": "tuple"
        }
      ],
      "stateMutability": "view",
      "type": "function"
    },
    {
      "inputs": [],
      "name": "nextPolicyId",
      "outputs": [
        {
          "internalType": "uint256",
          "name": "",
          "type": "uint256"
        }
      ],
      "stateMutability": "view",
      "type": "function"
    },
    {
      "inputs": [],
      "name": "owner",
      "outputs": [
        {
          "internalType": "address",
          "name": "",
          "type": "address"
        }
      ],
      "stateMutability": "view",
      "type": "function"
    },
    {
      "inputs": [],
      "name": "pause",
      "outputs": [],
      "stateMutability": "nonpayable",
      "type": "function"
    },
    {
      "inputs": [],
      "name": "paused",
      "outputs": [
        {
          "internalType": "bool",
          "name": "",
          "type": "bool"
        }
      ],
      "stateMutability": "view",
      "type": "function"
    },
    {
      "inputs": [],
      "name": "pendingOwner",
      "outputs": [
        {
          "internalType": "address",
          "name": "",
          "type": "address"
        }
      ],
      "stateMutability": "view",
      "type": "function"
    },
    {
      "inputs": [],
      "name": "policyNFT",
      "outputs": [
        {
          "internalType": "contract IPolicyNFT_MintBurn",
          "name": "",
          "type": "address"
        }
      ],
      "stateMutability": "view",
      "type": "function"
    },
    {
      "inputs": [
        {
          "internalType": "uint256",
          "name": "productId",
          "type": "uint256"
        },
        {
          "internalType": "uint256",
          "name": "coverageAmount",
          "type": "uint256"
        }
      ],
      "name": "quotePremium",
      "outputs": [
        {
          "internalType": "uint256",
          "name": "",
          "type": "uint256"
        }
      ],
      "stateMutability": "view",
      "type": "function"
    },
    {
      "inputs": [],
      "name": "renounceOwnership",
      "outputs": [],
      "stateMutability": "nonpayable",
      "type": "function"
    },
    {
      "inputs": [
        {
          "internalType": "address",
          "name": "policyNFT_",
          "type": "address"
        }
      ],
      "name": "setPolicyNFT",
      "outputs": [],
      "stateMutability": "nonpayable",
      "type": "function"
    },
    {
      "inputs": [
        {
          "internalType": "uint256",
          "name": "productId",
          "type": "uint256"
        },
        {
          "internalType": "uint16",
          "name": "premiumBps",
          "type": "uint16"
        },
        {
          "internalType": "bool",
          "name": "active",
          "type": "bool"
        }
      ],
      "name": "setProduct",
      "outputs": [],
      "stateMutability": "nonpayable",
      "type": "function"
    },
    {
      "inputs": [
        {
          "internalType": "uint256",
          "name": "productId",
          "type": "uint256"
        },
        {
          "internalType": "bool",
          "name": "active",
          "type": "bool"
        }
      ],
      "name": "setProductActive",
      "outputs": [],
      "stateMutability": "nonpayable",
      "type": "function"
    },
    {
      "inputs": [
        {
          "internalType": "uint256",
          "name": "productId",
          "type": "uint256"
        },
        {
          "internalType": "uint16",
          "name": "premiumBps",
          "type": "uint16"
        }
      ],
      "name": "setProductPremiumBps",
      "outputs": [],
      "stateMutability": "nonpayable",
      "type": "function"
    },
    {
      "inputs": [
        {
          "internalType": "address",
          "name": "treasury_",
          "type": "address"
        }
      ],
      "name": "setTreasury",
      "outputs": [],
      "stateMutability": "nonpayable",
      "type": "function"
    },
    {
      "inputs": [
        {
          "internalType": "address",
          "name": "newOwner",
          "type": "address"
        }
      ],
      "name": "transferOwnership",
      "outputs": [],
      "stateMutability": "nonpayable",
      "type": "function"
    },
    {
      "inputs": [],
      "name": "treasury",
      "outputs": [
        {
          "internalType": "contract ITreasury_DepositRefund",
          "name": "",
          "type": "address"
        }
      ],
      "stateMutability": "view",
      "type": "function"
    },
    {
      "inputs": [],
      "name": "unpause",
      "outputs": [],
      "stateMutability": "nonpayable",
      "type": "function"
    }
  ],
  "bytecode": "0x608060405234801561000f575f5ffd5b506040516113b73803806113b783398101604081905261002e91610159565b338061005357604051631e4fbdf760e01b81525f600482015260240160405180910390fd5b61005c816100d3565b5060016002556001600160a01b038216158061007f57506001600160a01b038116155b1561009d5760405163d92e233d60e01b815260040160405180910390fd5b600380546001600160a01b039384166001600160a01b03199182161790915560048054929093169116179055600160055561018a565b600180546001600160a01b03191690556100ec816100ef565b50565b5f80546001600160a01b038381166001600160a01b0319831681178455604051919092169283917f8be0079c531659141344cd1fd0a4f28419497f9722a3daafe3b4186f6b6457e09190a35050565b80516001600160a01b0381168114610154575f5ffd5b919050565b5f5f6040838503121561016a575f5ffd5b6101738361013e565b91506101816020840161013e565b90509250929050565b611220806101975f395ff3fe608060405260043610610131575f3560e01c806381062080116100a8578063b260c42a1161006d578063b260c42a1461032e578063cad0b8db1461034d578063e30c397814610362578063f0f442601461037f578063f22775f81461039e578063f2fde38b146103bd575f5ffd5b806381062080146102a15780638456cb59146102c05780638da5cb5b146102d4578063ac6b8a85146102f0578063af02808a1461030f575f5ffd5b80635c975abb116100f95780635c975abb146101db5780635d322fca1461020457806361d027b314610223578063715018a61461025a57806372f5b6df1461026e57806379ba50971461028d575f5ffd5b8063102d6146146101355780632b07fce31461016757806333470361146101935780633f4ba83a146101b457806345bfeb4d146101c8575b5f5ffd5b348015610140575f5ffd5b5061015461014f366004610fc6565b6103dc565b6040519081526020015b60405180910390f35b348015610172575f5ffd5b50610186610181366004610fe6565b610460565b60405161015e9190611011565b34801561019e575f5ffd5b506101b26101ad366004610fe6565b610514565b005b3480156101bf575f5ffd5b506101b261066f565b6101546101d6366004610fc6565b610681565b3480156101e6575f5ffd5b50600154600160a01b900460ff16604051901515815260200161015e565b34801561020f575f5ffd5b506101b261021e366004610fe6565b610818565b34801561022e575f5ffd5b50600354610242906001600160a01b031681565b6040516001600160a01b03909116815260200161015e565b348015610265575f5ffd5b506101b26109be565b348015610279575f5ffd5b506101b261028836600461109b565b6109cf565b348015610298575f5ffd5b506101b2610a20565b3480156102ac575f5ffd5b506101b26102bb3660046110dc565b610a61565b3480156102cb575f5ffd5b506101b2610a88565b3480156102df575f5ffd5b505f546001600160a01b0316610242565b3480156102fb575f5ffd5b506101b261030a366004611117565b610a98565b34801561031a575f5ffd5b50600454610242906001600160a01b031681565b348015610339575f5ffd5b506101b2610348366004610fe6565b610aca565b348015610358575f5ffd5b5061015460055481565b34801561036d575f5ffd5b506001546001600160a01b0316610242565b34801561038a575f5ffd5b506101b261039936600461109b565b610caa565b3480156103a9575f5ffd5b506101b26103b8366004611138565b610cfb565b3480156103c8575f5ffd5b506101b26103d736600461109b565b610d51565b5f82815260076020908152604080832081518083019092525460ff8116151580835261010090910461ffff1692820192909252906104355760405163314f526760e21b8152600481018590526024015b60405180910390fd5b612710816020015161ffff168461044c9190611185565b610456919061119c565b9150505b92915050565b610468610f6a565b5f828152600660208181526040928390208351610120810185528154815260018201546001600160a01b031692810192909252600281015493820193909352600383015460608201526004808401546080830152600584015460a08301529183015460c0820152600783015460e0820152600883015490929161010084019160ff16908111156104fa576104fa610ffd565b600481111561050b5761050b610ffd565b90525092915050565b61051c610dc1565b610524610ded565b61052c610e18565b5f81815260066020526040902060018101546001600160a01b03166105645760405163d92e233d60e01b815260040160405180910390fd5b6001600882015460ff16600481111561057f5761057f610ffd565b1461059d57604051634065aaf160e11b815260040160405180910390fd5b6002600882015460ff1660048111156105b8576105b8610ffd565b036105d657604051630d70a0e360e41b815260040160405180910390fd5b80600701545f036105fa57604051634b62f01360e01b815260040160405180910390fd5b600480546007830154604051630852cd8d60e31b8152928301526001600160a01b0316906342966c68906024015f604051808303815f87803b15801561063e575f5ffd5b505af1158015610650573d5f5f3e3d5ffd5b50505050600801805460ff191660029081179091556001905550565b50565b610677610dc1565b61067f610e40565b565b5f61068a610e18565b610692610ded565b815f036106b25760405163162908e360e11b815260040160405180910390fd5b5f6106bd84846103dc565b9050805f036106df5760405163162908e360e11b815260040160405180910390fd5b80341015610709576040516310e6ee4760e11b81526004810182905234602482015260440161042c565b60058054905f610718836111bb565b909155505f818152600660205260408120828155600180820180546001600160a01b031916331790556002820188905534600383015560048201879055426005830155600882018054949650919360ff191690830217905550600354604051630eeab8ed60e41b8152600481018590526001600160a01b039091169063eeab8ed09034906024015f604051808303818588803b1580156107b6575f5ffd5b505af11580156107c8573d5f5f3e3d5ffd5b505060408051348152602081018990528994503393508792507fdd4dcb2ef94f82921d5c77e9cf4e5c8dd423fb1de1310a243115b95316f25777910160405180910390a4505061045a6001600255565b610820610ded565b610828610e18565b5f81815260066020526040902060018101546001600160a01b03166108605760405163d92e233d60e01b815260040160405180910390fd5b60018101546001600160a01b0316331461088d5760405163ea8e4eb560e01b815260040160405180910390fd5b5f600882015460ff1660048111156108a7576108a7610ffd565b146108c557604051633ee3282d60e11b815260040160405180910390fd5b60038101545f8190036108eb5760405163162908e360e11b815260040160405180910390fd5b60088201805460ff191660039081179091555f818401555460018301546040516318fd890360e01b81526001600160a01b03918216600482015260248101869052604481018490529116906318fd8903906064015f604051808303815f87803b158015610956575f5ffd5b505af1158015610968573d5f5f3e3d5ffd5b5050505060018201546040518281526001600160a01b039091169084907f84bf074934b383b213f9a3bf0586c2b173e249d6335e74751d502e0f0018248a9060200160405180910390a3505061066c6001600255565b6109c6610dc1565b61067f5f610e95565b6109d7610dc1565b6001600160a01b0381166109fe5760405163d92e233d60e01b815260040160405180910390fd5b600480546001600160a01b0319166001600160a01b0392909216919091179055565b60015433906001600160a01b03168114610a585760405163118cdaa760e01b81526001600160a01b038216600482015260240161042c565b61066c81610e95565b610a69610dc1565b5f91825260076020526040909120805460ff1916911515919091179055565b610a90610dc1565b61067f610eae565b610aa0610dc1565b5f91825260076020526040909120805461ffff9092166101000262ffff0019909216919091179055565b610ad2610dc1565b610ada610ded565b610ae2610e18565b5f81815260066020526040902060018101546001600160a01b0316610b1a5760405163d92e233d60e01b815260040160405180910390fd5b6001600882015460ff166004811115610b3557610b35610ffd565b03610b5357604051637cdf305160e11b815260040160405180910390fd5b6002600882015460ff166004811115610b6e57610b6e610ffd565b03610b8c57604051630d70a0e360e41b815260040160405180910390fd5b5f600882015460ff166004811115610ba657610ba6610ffd565b14610bc457604051633ee3282d60e11b815260040160405180910390fd5b60048054600183015460405163da1919b360e01b81526001600160a01b0391821693810193909352602483018590525f9291169063da1919b3906044016020604051808303815f875af1158015610c1d573d5f5f3e3d5ffd5b505050506040513d601f19601f82011682018060405250810190610c4191906111d3565b60088301805460ff1916600117905542600684018190556007840182905560408051838152602081019290925291925084917fff32102facaacabec8623f4210e512ef4d0e2ca8ba273af88e803720b59d8475910160405180910390a2505061066c6001600255565b610cb2610dc1565b6001600160a01b038116610cd95760405163d92e233d60e01b815260040160405180910390fd5b600380546001600160a01b0319166001600160a01b0392909216919091179055565b610d03610dc1565b604080518082018252911515825261ffff92831660208084019182525f95865260079052932090518154935162ffffff1990941690151562ffff001916176101009390921692909202179055565b610d59610dc1565b600180546001600160a01b0383166001600160a01b03199091168117909155610d895f546001600160a01b031690565b6001600160a01b03167f38d16b8cac22d99fc7c124b9cd0de2d3fa1faef420bfe791d8c362d765e2270060405160405180910390a350565b5f546001600160a01b0316331461067f5760405163118cdaa760e01b815233600482015260240161042c565b600154600160a01b900460ff161561067f5760405163d93c066560e01b815260040160405180910390fd5b6002805403610e3a57604051633ee5aeb560e01b815260040160405180910390fd5b60028055565b610e48610ef1565b6001805460ff60a01b191690557f5db9ee0a495bf2e6ff9c91a7834c1ba4fdd244a5e8aa4e537bd38aeae4b073aa335b6040516001600160a01b03909116815260200160405180910390a1565b600180546001600160a01b031916905561066c81610f1b565b610eb6610ded565b6001805460ff60a01b1916600160a01b1790557f62e78cea01bee320cd4e420270b5ea74000d11b0c9f74754ebdbfc544b05a258610e783390565b600154600160a01b900460ff1661067f57604051638dfc202b60e01b815260040160405180910390fd5b5f80546001600160a01b038381166001600160a01b0319831681178455604051919092169283917f8be0079c531659141344cd1fd0a4f28419497f9722a3daafe3b4186f6b6457e09190a35050565b6040518061012001604052805f81526020015f6001600160a01b031681526020015f81526020015f81526020015f81526020015f81526020015f81526020015f81526020015f6004811115610fc157610fc1610ffd565b905290565b5f5f60408385031215610fd7575f5ffd5b50508035926020909101359150565b5f60208284031215610ff6575f5ffd5b5035919050565b634e487b7160e01b5f52602160045260245ffd5b5f610120820190508251825260018060a01b03602084015116602083015260408301516040830152606083015160608301526080830151608083015260a083015160a083015260c083015160c083015260e083015160e08301526101008301516005811061108d57634e487b7160e01b5f52602160045260245ffd5b806101008401525092915050565b5f602082840312156110ab575f5ffd5b81356001600160a01b03811681146110c1575f5ffd5b9392505050565b803580151581146110d7575f5ffd5b919050565b5f5f604083850312156110ed575f5ffd5b823591506110fd602084016110c8565b90509250929050565b803561ffff811681146110d7575f5ffd5b5f5f60408385031215611128575f5ffd5b823591506110fd60208401611106565b5f5f5f6060848603121561114a575f5ffd5b8335925061115a60208501611106565b9150611168604085016110c8565b90509250925092565b634e487b7160e01b5f52601160045260245ffd5b808202811582820484141761045a5761045a611171565b5f826111b657634e487b7160e01b5f52601260045260245ffd5b500490565b5f600182016111cc576111cc611171565b5060010190565b5f602082840312156111e3575f5ffd5b505191905056fea26469706673582212206a52776f605653f9ab8e002de3585b88df3ae20426e4b7b2bcf040311a425a7a64736f6c634300081d0033",
  "linkReferences": {},
  "deployedLinkReferences": {},
  "immutableReferences": {},
  "inputSourceName": "project/src/core/Insurance.sol",
  "buildInfoId": "solc-0_8_29-13d48ff54a43ea8e4acb9b5708c88942c4f8c29f"
}