{
  "_format": "hh3-artifact-1",
  "contractName": "PolicyNFT",
  "sourceName": "src/core/PolicyNFT.sol",
  "abi": [
    {
      "inputs": [
        {
          "internalType": "string",
          "name": "name_",
          "type": "string"
        },
        {
          "internalType": "string",
          "name": "symbol_",
          "type": "string"
        }
      ],
      "stateMutability": "nonpayable",
      "type": "constructor"
    },
    {
      "inputs": [],
      "name": "AlreadyPaid",
      "type": "error"
    },
    {
      "inputs": [
        {
          "internalType": "address",
          "name": "sender",
          "type": "address"
        },
        {
          "internalType": "uint256",
          "name": "tokenId",
          "type": "uint256"
        },
        {
          "internalType": "address",
          "name": "owner",
          "type": "address"
        }
      ],
      "name": "ERC721IncorrectOwner",
      "type": "error"
    },
    {
      "inputs": [
        {
          "internalType": "address",
          "name": "operator",
          "type": "address"
        },
        {
          "internalType": "uint256",
          "name": "tokenId",
          "type": "uint256"
        }
      ],
      "name": "ERC721InsufficientApproval",
      "type": "error"
    },
    {
      "inputs": [
        {
          "internalType": "address",
          "name": "approver",
          "type": "address"
        }
      ],
      "name": "ERC721InvalidApprover",
      "type": "error"
    },
    {
      "inputs": [
        {
          "internalType": "address",
          "name": "operator",
          "type": "address"
        }
      ],
      "name": "ERC721InvalidOperator",
      "type": "error"
    },
    {
      "inputs": [
        {
          "internalType": "address",
          "name": "owner",
          "type": "address"
        }
      ],
      "name": "ERC721InvalidOwner",
      "type": "error"
    },
    {
      "inputs": [
        {
          "internalType": "address",
          "name": "receiver",
          "type": "address"
        }
      ],
      "name": "ERC721InvalidReceiver",
      "type": "error"
    },
    {
      "inputs": [
        {
          "internalType": "address",
          "name": "sender",
          "type": "address"
        }
      ],
      "name": "ERC721InvalidSender",
      "type": "error"
    },
    {
      "inputs": [
        {
          "internalType": "uint256",
          "name": "tokenId",
          "type": "uint256"
        }
      ],
      "name": "ERC721NonexistentToken",
      "type": "error"
    },
    {
      "inputs": [],
      "name": "NotAuthorized",
      "type": "error"
    },
    {
      "inputs": [
        {
          "internalType": "address",
          "name": "owner",
          "type": "address"
        }
      ],
      "name": "OwnableInvalidOwner",
      "type": "error"
    },
    {
      "inputs": [
        {
          "internalType": "address",
          "name": "account",
          "type": "address"
        }
      ],
      "name": "OwnableUnauthorizedAccount",
      "type": "error"
    },
    {
      "inputs": [],
      "name": "ZeroAddress",
      "type": "error"
    },
    {
      "anonymous": false,
      "inputs": [
        {
          "indexed": true,
          "internalType": "address",
          "name": "owner",
          "type": "address"
        },
        {
          "indexed": true,
          "internalType": "address",
          "name": "approved",
          "type": "address"
        },
        {
          "indexed": true,
          "internalType": "uint256",
          "name": "tokenId",
          "type": "uint256"
        }
      ],
      "name": "Approval",
      "type": "event"
    },
    {
      "anonymous": false,
      "inputs": [
        {
          "indexed": true,
          "internalType": "address",
          "name": "owner",
          "type": "address"
        },
        {
          "indexed": true,
          "internalType": "address",
          "name": "operator",
          "type": "address"
        },
        {
          "indexed": false,
          "internalType": "bool",
          "name": "approved",
          "type": "bool"
        }
      ],
      "name": "ApprovalForAll",
      "type": "event"
    },
    {
      "anonymous": false,
      "inputs": [
        {
          "indexed": true,
          "internalType": "address",
          "name": "previousOwner",
          "type": "address"
        },
        {
          "indexed": true,
          "internalType": "address",
          "name": "newOwner",
          "type": "address"
        }
      ],
      "name": "OwnershipTransferStarted",
      "type": "event"
    },
    {
      "anonymous": false,
      "inputs": [
        {
          "indexed": true,
          "internalType": "address",
          "name": "previousOwner",
          "type": "address"
        },
        {
          "indexed": true,
          "internalType": "address",
          "name": "newOwner",
          "type": "address"
        }
      ],
      "name": "OwnershipTransferred",
      "type": "event"
    },
    {
      "anonymous": false,
      "inputs": [
        {
          "indexed": true,
          "internalType": "address",
          "name": "from",
          "type": "address"
        },
        {
          "indexed": true,
          "internalType": "address",
          "name": "to",
          "type": "address"
        },
        {
          "indexed": true,
          "internalType": "uint256",
          "name": "tokenId",
          "type": "uint256"
        }
      ],
      "name": "Transfer",
      "type": "event"
    },
    {
      "inputs": [],
      "name": "acceptOwnership",
      "outputs": [],
      "stateMutability": "nonpayable",
      "type": "function"
    },
    {
      "inputs": [
        {
          "internalType": "address",
          "name": "to",
          "type": "address"
        },
        {
          "internalType": "uint256",
          "name": "tokenId",
          "type": "uint256"
        }
      ],
      "name": "approve",
      "outputs": [],
      "stateMutability": "nonpayable",
      "type": "function"
    },
    {
      "inputs": [
        {
          "internalType": "address",
          "name": "owner",
          "type": "address"
        }
      ],
      "name": "balanceOf",
      "outputs": [
        {
          "internalType": "uint256",
          "name": "",
          "type": "uint256"
        }
      ],
      "stateMutability": "view",
      "type": "function"
    },
    {
      "inputs": [
        {
          "internalType": "uint256",
          "name": "tokenId",
          "type": "uint256"
        }
      ],
      "name": "burn",
      "outputs": [],
      "stateMutability": "nonpayable",
      "type": "function"
    },
    {
      "inputs": [
        {
          "internalType": "uint256",
          "name": "tokenId",
          "type": "uint256"
        }
      ],
      "name": "getApproved",
      "outputs": [
        {
          "internalType": "address",
          "name": "",
          "type": "address"
        }
      ],
      "stateMutability": "view",
      "type": "function"
    },
    {
      "inputs": [
        {
          "internalType": "address",
          "name": "owner",
          "type": "address"
        },
        {
          "internalType": "address",
          "name": "operator",
          "type": "address"
        }
      ],
      "name": "isApprovedForAll",
      "outputs": [
        {
          "internalType": "bool",
          "name": "",
          "type": "bool"
        }
      ],
      "stateMutability": "view",
      "type": "function"
    },
    {
      "inputs": [
        {
          "internalType": "address",
          "name": "to",
          "type": "address"
        },
        {
          "internalType": "uint256",
          "name": "policyId",
          "type": "uint256"
        }
      ],
      "name": "mintFor",
      "outputs": [
        {
          "internalType": "uint256",
          "name": "tokenId",
          "type": "uint256"
        }
      ],
      "stateMutability": "nonpayable",
      "type": "function"
    },
    {
      "inputs": [],
      "name": "minter",
      "outputs": [
        {
          "internalType": "address",
          "name": "",
          "type": "address"
        }
      ],
      "stateMutability": "view",
      "type": "function"
    },
    {
      "inputs": [],
      "name": "name",
      "outputs": [
        {
          "internalType": "string",
          "name": "",
          "type": "string"
        }
      ],
      "stateMutability": "view",
      "type": "function"
    },
    {
      "inputs": [],
      "name": "owner",
      "outputs": [
        {
          "internalType": "address",
          "name": "",
          "type": "address"
        }
      ],
      "stateMutability": "view",
      "type": "function"
    },
    {
      "inputs": [
        {
          "internalType": "uint256",
          "name": "tokenId",
          "type": "uint256"
        }
      ],
      "name": "ownerOf",
      "outputs": [
        {
          "internalType": "address",
          "name": "",
          "type": "address"
        }
      ],
      "stateMutability": "view",
      "type": "function"
    },
    {
      "inputs": [],
      "name": "pendingOwner",
      "outputs": [
        {
          "internalType": "address",
          "name": "",
          "type": "address"
        }
      ],
      "stateMutability": "view",
      "type": "function"
    },
    {
      "inputs": [
        {
          "internalType": "uint256",
          "name": "",
          "type": "uint256"
        }
      ],
      "name": "policyToken",
      "outputs": [
        {
          "internalType": "uint256",
          "name": "",
          "type": "uint256"
        }
      ],
      "stateMutability": "view",
      "type": "function"
    },
    {
      "inputs": [],
      "name": "renounceOwnership",
      "outputs": [],
      "stateMutability": "nonpayable",
      "type": "function"
    },
    {
      "inputs": [
        {
          "internalType": "address",
          "name": "from",
          "type": "address"
        },
        {
          "internalType": "address",
          "name": "to",
          "type": "address"
        },
        {
          "internalType": "uint256",
          "name": "tokenId",
          "type": "uint256"
        }
      ],
      "name": "safeTransferFrom",
      "outputs": [],
      "stateMutability": "nonpayable",
      "type": "function"
    },
    {
      "inputs": [
        {
          "internalType": "address",
          "name": "from",
          "type": "address"
        },
        {
          "internalType": "address",
          "name": "to",
          "type": "address"
        },
        {
          "internalType": "uint256",
          "name": "tokenId",
          "type": "uint256"
        },
        {
          "internalType": "bytes",
          "name": "data",
          "type": "bytes"
        }
      ],
      "name": "safeTransferFrom",
      "outputs": [],
      "stateMutability": "nonpayable",
      "type": "function"
    },
    {
      "inputs": [
        {
          "internalType": "address",
          "name": "operator",
          "type": "address"
        },
        {
          "internalType": "bool",
          "name": "approved",
          "type": "bool"
        }
      ],
      "name": "setApprovalForAll",
      "outputs": [],
      "stateMutability": "nonpayable",
      "type": "function"
    },
    {
      "inputs": [
        {
          "internalType": "string",
          "name": "baseURI_",
          "type": "string"
        }
      ],
      "name": "setBaseURI",
      "outputs": [],
      "stateMutability": "nonpayable",
      "type": "function"
    },
    {
      "inputs": [
        {
          "internalType": "address",
          "name": "minter_",
          "type": "address"
        }
      ],
      "name": "setMinter",
      "outputs": [],
      "stateMutability": "nonpayable",
      "type": "function"
    },
    {
      "inputs": [
        {
          "internalType": "bytes4",
          "name": "interfaceId",
          "type": "bytes4"
        }
      ],
      "name": "supportsInterface",
      "outputs": [
        {
          "internalType": "bool",
          "name": "",
          "type": "bool"
        }
      ],
      "stateMutability": "view",
      "type": "function"
    },
    {
      "inputs": [],
      "name": "symbol",
      "outputs": [
        {
          "internalType": "string",
          "name": "",
          "type": "string"
        }
      ],
      "stateMutability": "view",
      "type": "function"
    },
    {
      "inputs": [
        {
          "internalType": "uint256",
          "name": "tokenId",
          "type": "uint256"
        }
      ],
      "name": "tokenURI",
      "outputs": [
        {
          "internalType": "string",
          "name": "",
          "type": "string"
        }
      ],
      "stateMutability": "view",
      "type": "function"
    },
    {
      "inputs": [
        {
          "internalType": "address",
          "name": "from",
          "type": "address"
        },
        {
          "internalType": "address",
          "name": "to",
          "type": "address"
        },
        {
          "internalType": "uint256",
          "name": "tokenId",
          "type": "uint256"
        }
      ],
      "name": "transferFrom",
      "outputs": [],
      "stateMutability": "nonpayable",
      "type": "function"
    },
    {
      "inputs": [
        {
          "internalType": "address",
          "name": "newOwner",
          "type": "address"
        }
      ],
      "name": "transferOwnership",
      "outputs": [],
      "stateMutability": "nonpayable",
      "type": "function"
    }
  ],
  "bytecode": "0x608060405234801561000f575f5ffd5b5060405161180738038061180783398101604081905261002e91610194565b3382825f61003c838261027d565b506001610049828261027d565b5050506001600160a01b03811661007957604051631e4fbdf760e01b81525f600482015260240160405180910390fd5b6100828161008a565b505050610337565b600780546001600160a01b03191690556100a3816100a6565b50565b600680546001600160a01b038381166001600160a01b0319831681179093556040519116919082907f8be0079c531659141344cd1fd0a4f28419497f9722a3daafe3b4186f6b6457e0905f90a35050565b634e487b7160e01b5f52604160045260245ffd5b5f82601f83011261011a575f5ffd5b81516001600160401b03811115610133576101336100f7565b604051601f8201601f19908116603f011681016001600160401b0381118282101715610161576101616100f7565b604052818152838201602001851015610178575f5ffd5b8160208501602083015e5f918101602001919091529392505050565b5f5f604083850312156101a5575f5ffd5b82516001600160401b038111156101ba575f5ffd5b6101c68582860161010b565b602085015190935090506001600160401b038111156101e3575f5ffd5b6101ef8582860161010b565b9150509250929050565b600181811c9082168061020d57607f821691505b60208210810361022b57634e487b7160e01b5f52602260045260245ffd5b50919050565b601f82111561027857805f5260205f20601f840160051c810160208510156102565750805b601f840160051c820191505b81811015610275575f8155600101610262565b50505b505050565b81516001600160401b03811115610296576102966100f7565b6102aa816102a484546101f9565b84610231565b6020601f8211600181146102dc575f83156102c55750848201515b5f19600385901b1c1916600184901b178455610275565b5f84815260208120601f198516915b8281101561030b57878501518255602094850194600190920191016102eb565b508482101561032857868401515f19600387901b60f8161c191681555b50505050600190811b01905550565b6114c3806103445f395ff3fe608060405234801561000f575f5ffd5b5060043610610153575f3560e01c806379ba5097116100bf578063c87b56dd11610079578063c87b56dd146102d5578063da1919b3146102e8578063e30c3978146102fb578063e985e9c51461030c578063f2fde38b1461031f578063fca3b5aa14610332575f5ffd5b806379ba50971461026f5780638da5cb5b1461027757806395d89b4114610288578063a22cb46514610290578063ace97aea146102a3578063b88d4fde146102c2575f5ffd5b806342842e0e1161011057806342842e0e146101fa57806342966c681461020d57806355f804b3146102205780636352211e1461023357806370a0823114610246578063715018a614610267575f5ffd5b806301ffc9a71461015757806306fdde031461017f5780630754617214610194578063081812fc146101bf578063095ea7b3146101d257806323b872dd146101e7575b5f5ffd5b61016a610165366004610fe0565b610345565b60405190151581526020015b60405180910390f35b610187610396565b6040516101769190611029565b600b546101a7906001600160a01b031681565b6040516001600160a01b039091168152602001610176565b6101a76101cd36600461103b565b610425565b6101e56101e036600461106d565b61044c565b005b6101e56101f5366004611095565b61045b565b6101e5610208366004611095565b6104e9565b6101e561021b36600461103b565b610508565b6101e561022e3660046110cf565b61053f565b6101a761024136600461103b565b610554565b61025961025436600461113d565b61055e565b604051908152602001610176565b6101e56105a3565b6101e56105b6565b6006546001600160a01b03166101a7565b6101876105f7565b6101e561029e366004611156565b610606565b6102596102b136600461103b565b600a6020525f908152604090205481565b6101e56102d03660046111a3565b610611565b6101876102e336600461103b565b610629565b6102596102f636600461106d565b61068e565b6007546001600160a01b03166101a7565b61016a61031a366004611280565b61073d565b6101e561032d36600461113d565b61076a565b6101e561034036600461113d565b6107db565b5f6001600160e01b031982166380ac58cd60e01b148061037557506001600160e01b03198216635b5e139f60e01b145b8061039057506301ffc9a760e01b6001600160e01b03198316145b92915050565b60605f80546103a4906112b1565b80601f01602080910402602001604051908101604052809291908181526020018280546103d0906112b1565b801561041b5780601f106103f25761010080835404028352916020019161041b565b820191905f5260205f20905b8154815290600101906020018083116103fe57829003601f168201915b5050505050905090565b5f61042f8261082c565b505f828152600460205260409020546001600160a01b0316610390565b610457828233610864565b5050565b6001600160a01b03821661048957604051633250574960e11b81525f60048201526024015b60405180910390fd5b5f610495838333610871565b9050836001600160a01b0316816001600160a01b0316146104e3576040516364283d7b60e01b81526001600160a01b0380861660048301526024820184905282166044820152606401610480565b50505050565b61050383838360405180602001604052805f815250610611565b505050565b600b546001600160a01b031633146105335760405163ea8e4eb560e01b815260040160405180910390fd5b61053c81610963565b50565b61054761099b565b600961050382848361132d565b5f6103908261082c565b5f6001600160a01b038216610588576040516322718ad960e21b81525f6004820152602401610480565b506001600160a01b03165f9081526003602052604090205490565b6105ab61099b565b6105b45f6109c8565b565b60075433906001600160a01b031681146105ee5760405163118cdaa760e01b81526001600160a01b0382166004820152602401610480565b61053c816109c8565b6060600180546103a4906112b1565b6104573383836109e1565b61061c84848461045b565b6104e33385858585610a7f565b60606106348261082c565b505f61063e610ba7565b90505f81511161065c5760405180602001604052805f815250610687565b8061066684610bb6565b6040516020016106779291906113fe565b6040516020818303038152906040525b9392505050565b600b545f906001600160a01b031633146106bb5760405163ea8e4eb560e01b815260040160405180910390fd5b6001600160a01b0383166106e25760405163d92e233d60e01b815260040160405180910390fd5b5f828152600a60205260409020541561070e57604051630d70a0e360e41b815260040160405180910390fd5b60085f815461071c90611412565b91829055505f838152600a6020526040902081905590506103908382610c46565b6001600160a01b039182165f90815260056020908152604080832093909416825291909152205460ff1690565b61077261099b565b600780546001600160a01b0383166001600160a01b031990911681179091556107a36006546001600160a01b031690565b6001600160a01b03167f38d16b8cac22d99fc7c124b9cd0de2d3fa1faef420bfe791d8c362d765e2270060405160405180910390a350565b6107e361099b565b6001600160a01b03811661080a5760405163d92e233d60e01b815260040160405180910390fd5b600b80546001600160a01b0319166001600160a01b0392909216919091179055565b5f818152600260205260408120546001600160a01b03168061039057604051637e27328960e01b815260048101849052602401610480565b6105038383836001610c5f565b5f828152600260205260408120546001600160a01b039081169083161561089d5761089d818486610d63565b6001600160a01b038116156108d7576108b85f855f5f610c5f565b6001600160a01b0381165f90815260036020526040902080545f190190555b6001600160a01b03851615610905576001600160a01b0385165f908152600360205260409020805460010190555b5f8481526002602052604080822080546001600160a01b0319166001600160a01b0389811691821790925591518793918516917fddf252ad1be2c89b69c2b068fc378daa952ba7f163c4a11628f55a4df523b3ef91a4949350505050565b5f61096f5f835f610871565b90506001600160a01b03811661045757604051637e27328960e01b815260048101839052602401610480565b6006546001600160a01b031633146105b45760405163118cdaa760e01b8152336004820152602401610480565b600780546001600160a01b031916905561053c81610dc7565b6001600160a01b038216610a1357604051630b61174360e31b81526001600160a01b0383166004820152602401610480565b6001600160a01b038381165f81815260056020908152604080832094871680845294825291829020805460ff191686151590811790915591519182527f17307eab39ab6107e8899845ad3d59bd9653f200f220920489ca2b5937696c31910160405180910390a3505050565b6001600160a01b0383163b15610ba057604051630a85bd0160e11b81526001600160a01b0384169063150b7a0290610ac1908890889087908790600401611436565b6020604051808303815f875af1925050508015610afb575060408051601f3d908101601f19168201909252610af891810190611472565b60015b610b62573d808015610b28576040519150601f19603f3d011682016040523d82523d5f602084013e610b2d565b606091505b5080515f03610b5a57604051633250574960e11b81526001600160a01b0385166004820152602401610480565b805160208201fd5b6001600160e01b03198116630a85bd0160e11b14610b9e57604051633250574960e11b81526001600160a01b0385166004820152602401610480565b505b5050505050565b6060600980546103a4906112b1565b60605f610bc283610e18565b60010190505f8167ffffffffffffffff811115610be157610be161118f565b6040519080825280601f01601f191660200182016040528015610c0b576020820181803683370190505b5090508181016020015b5f19016f181899199a1a9b1b9c1cb0b131b232b360811b600a86061a8153600a8504945084610c1557509392505050565b610457828260405180602001604052805f815250610eef565b8080610c7357506001600160a01b03821615155b15610d34575f610c828461082c565b90506001600160a01b03831615801590610cae5750826001600160a01b0316816001600160a01b031614155b8015610cc15750610cbf818461073d565b155b15610cea5760405163a9fbf51f60e01b81526001600160a01b0384166004820152602401610480565b8115610d325783856001600160a01b0316826001600160a01b03167f8c5be1e5ebec7d5bd14f71427d1e84f3dd0314c0f7b2291e5b200ac8c7c3b92560405160405180910390a45b505b50505f90815260046020526040902080546001600160a01b0319166001600160a01b0392909216919091179055565b610d6e838383610f06565b610503576001600160a01b038316610d9c57604051637e27328960e01b815260048101829052602401610480565b60405163177e802f60e01b81526001600160a01b038316600482015260248101829052604401610480565b600680546001600160a01b038381166001600160a01b0319831681179093556040519116919082907f8be0079c531659141344cd1fd0a4f28419497f9722a3daafe3b4186f6b6457e0905f90a35050565b5f8072184f03e93ff9f4daa797ed6e38ed64bf6a1f0160401b8310610e565772184f03e93ff9f4daa797ed6e38ed64bf6a1f0160401b830492506040015b6d04ee2d6d415b85acef81000000008310610e82576d04ee2d6d415b85acef8100000000830492506020015b662386f26fc100008310610ea057662386f26fc10000830492506010015b6305f5e1008310610eb8576305f5e100830492506008015b6127108310610ecc57612710830492506004015b60648310610ede576064830492506002015b600a83106103905760010192915050565b610ef98383610f6a565b610503335f858585610a7f565b5f6001600160a01b03831615801590610f625750826001600160a01b0316846001600160a01b03161480610f3f5750610f3f848461073d565b80610f6257505f828152600460205260409020546001600160a01b038481169116145b949350505050565b6001600160a01b038216610f9357604051633250574960e11b81525f6004820152602401610480565b5f610f9f83835f610871565b90506001600160a01b03811615610503576040516339e3563760e11b81525f6004820152602401610480565b6001600160e01b03198116811461053c575f5ffd5b5f60208284031215610ff0575f5ffd5b813561068781610fcb565b5f81518084528060208401602086015e5f602082860101526020601f19601f83011685010191505092915050565b602081525f6106876020830184610ffb565b5f6020828403121561104b575f5ffd5b5035919050565b80356001600160a01b0381168114611068575f5ffd5b919050565b5f5f6040838503121561107e575f5ffd5b61108783611052565b946020939093013593505050565b5f5f5f606084860312156110a7575f5ffd5b6110b084611052565b92506110be60208501611052565b929592945050506040919091013590565b5f5f602083850312156110e0575f5ffd5b823567ffffffffffffffff8111156110f6575f5ffd5b8301601f81018513611106575f5ffd5b803567ffffffffffffffff81111561111c575f5ffd5b85602082840101111561112d575f5ffd5b6020919091019590945092505050565b5f6020828403121561114d575f5ffd5b61068782611052565b5f5f60408385031215611167575f5ffd5b61117083611052565b915060208301358015158114611184575f5ffd5b809150509250929050565b634e487b7160e01b5f52604160045260245ffd5b5f5f5f5f608085870312156111b6575f5ffd5b6111bf85611052565b93506111cd60208601611052565b925060408501359150606085013567ffffffffffffffff8111156111ef575f5ffd5b8501601f810187136111ff575f5ffd5b803567ffffffffffffffff8111156112195761121961118f565b604051601f8201601f19908116603f0116810167ffffffffffffffff811182821017156112485761124861118f565b60405281815282820160200189101561125f575f5ffd5b816020840160208301375f6020838301015280935050505092959194509250565b5f5f60408385031215611291575f5ffd5b61129a83611052565b91506112a860208401611052565b90509250929050565b600181811c908216806112c557607f821691505b6020821081036112e357634e487b7160e01b5f52602260045260245ffd5b50919050565b601f82111561050357805f5260205f20601f840160051c8101602085101561130e5750805b601f840160051c820191505b81811015610ba0575f815560010161131a565b67ffffffffffffffff8311156113455761134561118f565b6113598361135383546112b1565b836112e9565b5f601f84116001811461138a575f85156113735750838201355b5f19600387901b1c1916600186901b178355610ba0565b5f83815260208120601f198716915b828110156113b95786850135825560209485019460019092019101611399565b50868210156113d5575f1960f88860031b161c19848701351681555b505060018560011b0183555050505050565b5f81518060208401855e5f93019283525090919050565b5f610f6261140c83866113e7565b846113e7565b5f6001820161142f57634e487b7160e01b5f52601160045260245ffd5b5060010190565b6001600160a01b03858116825284166020820152604081018390526080606082018190525f9061146890830184610ffb565b9695505050505050565b5f60208284031215611482575f5ffd5b815161068781610fcb56fea264697066735822122018ef3488c5c670c9fc10e59435189caf883037555e242a885e91b7a3a7ed0db464736f6c634300081d0033",
  "linkReferences": {},
  "deployedLinkReferences": {},
  "immutableReferences": {},
  "inputSourceName": "project/src/core/PolicyNFT.sol",
  "buildInfoId": "solc-0_8_29-6e550c31549f432a79b59062b65a8bc987cc177d"
}