{
  "_format": "hh3-artifact-1",
  "contractName": "Treasury",
  "sourceName": "src/core/Treasury.sol",
  "abi": [
    {
      "inputs": [],
      "stateMutability": "nonpayable",
      "type": "constructor"
    },
    {
      "inputs": [],
      "name": "EnforcedPause",
      "type": "error"
    },
    {
      "inputs": [],
      "name": "ExpectedPause",
      "type": "error"
    },
    {
      "inputs": [
        {
          "internalType": "uint256",
          "name": "requested",
          "type": "uint256"
        },
        {
          "internalType": "uint256",
          "name": "available",
          "type": "uint256"
        }
      ],
      "name": "InsufficientBalance",
      "type": "error"
    },
    {
      "inputs": [],
      "name": "InvalidAmount",
      "type": "error"
    },
    {
      "inputs": [],
      "name": "NotAuthorized",
      "type": "error"
    },
    {
      "inputs": [
        {
          "internalType": "address",
          "name": "owner",
          "type": "address"
        }
      ],
      "name": "OwnableInvalidOwner",
      "type": "error"
    },
    {
      "inputs": [
        {
          "internalType": "address",
          "name": "account",
          "type": "address"
        }
      ],
      "name": "OwnableUnauthorizedAccount",
      "type": "error"
    },
    {
      "inputs": [],
      "name": "ReentrancyGuardReentrantCall",
      "type": "error"
    },
    {
      "inputs": [],
      "name": "ZeroAddress",
      "type": "error"
    },
    {
      "anonymous": false,
      "inputs": [
        {
          "indexed": true,
          "internalType": "address",
          "name": "previousOwner",
          "type": "address"
        },
        {
          "indexed": true,
          "internalType": "address",
          "name": "newOwner",
          "type": "address"
        }
      ],
      "name": "OwnershipTransferStarted",
      "type": "event"
    },
    {
      "anonymous": false,
      "inputs": [
        {
          "indexed": true,
          "internalType": "address",
          "name": "previousOwner",
          "type": "address"
        },
        {
          "indexed": true,
          "internalType": "address",
          "name": "newOwner",
          "type": "address"
        }
      ],
      "name": "OwnershipTransferred",
      "type": "event"
    },
    {
      "anonymous": false,
      "inputs": [
        {
          "indexed": false,
          "internalType": "address",
          "name": "account",
          "type": "address"
        }
      ],
      "name": "Paused",
      "type": "event"
    },
    {
      "anonymous": false,
      "inputs": [
        {
          "indexed": true,
          "internalType": "uint256",
          "name": "policyId",
          "type": "uint256"
        },
        {
          "indexed": true,
          "internalType": "address",
          "name": "to",
          "type": "address"
        },
        {
          "indexed": false,
          "internalType": "uint256",
          "name": "amount",
          "type": "uint256"
        }
      ],
      "name": "PayoutExecuted",
      "type": "event"
    },
    {
      "anonymous": false,
      "inputs": [
        {
          "indexed": true,
          "internalType": "uint256",
          "name": "policyId",
          "type": "uint256"
        },
        {
          "indexed": true,
          "internalType": "address",
          "name": "payer",
          "type": "address"
        },
        {
          "indexed": false,
          "internalType": "uint256",
          "name": "amount",
          "type": "uint256"
        }
      ],
      "name": "PremiumPaid",
      "type": "event"
    },
    {
      "anonymous": false,
      "inputs": [
        {
          "indexed": true,
          "internalType": "uint256",
          "name": "policyId",
          "type": "uint256"
        },
        {
          "indexed": true,
          "internalType": "address",
          "name": "to",
          "type": "address"
        },
        {
          "indexed": false,
          "internalType": "uint256",
          "name": "amount",
          "type": "uint256"
        }
      ],
      "name": "RefundIssued",
      "type": "event"
    },
    {
      "anonymous": false,
      "inputs": [
        {
          "indexed": false,
          "internalType": "address",
          "name": "account",
          "type": "address"
        }
      ],
      "name": "Unpaused",
      "type": "event"
    },
    {
      "inputs": [],
      "name": "acceptOwnership",
      "outputs": [],
      "stateMutability": "nonpayable",
      "type": "function"
    },
    {
      "inputs": [
        {
          "internalType": "uint256",
          "name": "policyId",
          "type": "uint256"
        }
      ],
      "name": "depositPremium",
      "outputs": [],
      "stateMutability": "payable",
      "type": "function"
    },
    {
      "inputs": [],
      "name": "insurance",
      "outputs": [
        {
          "internalType": "address",
          "name": "",
          "type": "address"
        }
      ],
      "stateMutability": "view",
      "type": "function"
    },
    {
      "inputs": [],
      "name": "owner",
      "outputs": [
        {
          "internalType": "address",
          "name": "",
          "type": "address"
        }
      ],
      "stateMutability": "view",
      "type": "function"
    },
    {
      "inputs": [],
      "name": "pause",
      "outputs": [],
      "stateMutability": "nonpayable",
      "type": "function"
    },
    {
      "inputs": [],
      "name": "paused",
      "outputs": [
        {
          "internalType": "bool",
          "name": "",
          "type": "bool"
        }
      ],
      "stateMutability": "view",
      "type": "function"
    },
    {
      "inputs": [
        {
          "internalType": "address",
          "name": "to",
          "type": "address"
        },
        {
          "internalType": "uint256",
          "name": "policyId",
          "type": "uint256"
        },
        {
          "internalType": "uint256",
          "name": "amount",
          "type": "uint256"
        }
      ],
      "name": "payOut",
      "outputs": [],
      "stateMutability": "nonpayable",
      "type": "function"
    },
    {
      "inputs": [],
      "name": "payout",
      "outputs": [
        {
          "internalType": "address",
          "name": "",
          "type": "address"
        }
      ],
      "stateMutability": "view",
      "type": "function"
    },
    {
      "inputs": [],
      "name": "pendingOwner",
      "outputs": [
        {
          "internalType": "address",
          "name": "",
          "type": "address"
        }
      ],
      "stateMutability": "view",
      "type": "function"
    },
    {
      "inputs": [
        {
          "internalType": "uint256",
          "name": "",
          "type": "uint256"
        }
      ],
      "name": "policyPremium",
      "outputs": [
        {
          "internalType": "uint256",
          "name": "",
          "type": "uint256"
        }
      ],
      "stateMutability": "view",
      "type": "function"
    },
    {
      "inputs": [
        {
          "internalType": "address",
          "name": "to",
          "type": "address"
        },
        {
          "internalType": "uint256",
          "name": "policyId",
          "type": "uint256"
        },
        {
          "internalType": "uint256",
          "name": "amount",
          "type": "uint256"
        }
      ],
      "name": "refund",
      "outputs": [],
      "stateMutability": "nonpayable",
      "type": "function"
    },
    {
      "inputs": [],
      "name": "renounceOwnership",
      "outputs": [],
      "stateMutability": "nonpayable",
      "type": "function"
    },
    {
      "inputs": [
        {
          "internalType": "address",
          "name": "insurance_",
          "type": "address"
        }
      ],
      "name": "setInsurance",
      "outputs": [],
      "stateMutability": "nonpayable",
      "type": "function"
    },
    {
      "inputs": [
        {
          "internalType": "address",
          "name": "payout_",
          "type": "address"
        }
      ],
      "name": "setPayout",
      "outputs": [],
      "stateMutability": "nonpayable",
      "type": "function"
    },
    {
      "inputs": [],
      "name": "totalPremium",
      "outputs": [
        {
          "internalType": "uint256",
          "name": "",
          "type": "uint256"
        }
      ],
      "stateMutability": "view",
      "type": "function"
    },
    {
      "inputs": [
        {
          "internalType": "address",
          "name": "newOwner",
          "type": "address"
        }
      ],
      "name": "transferOwnership",
      "outputs": [],
      "stateMutability": "nonpayable",
      "type": "function"
    },
    {
      "inputs": [],
      "name": "treasuryBalance",
      "outputs": [
        {
          "internalType": "uint256",
          "name": "",
          "type": "uint256"
        }
      ],
      "stateMutability": "view",
      "type": "function"
    },
    {
      "inputs": [],
      "name": "unpause",
      "outputs": [],
      "stateMutability": "nonpayable",
      "type": "function"
    },
    {
      "stateMutability": "payable",
      "type": "receive"
    }
  ],
  "bytecode": "0x6080604052348015600e575f5ffd5b503380603357604051631e4fbdf760e01b81525f600482015260240160405180910390fd5b603a816044565b50600160025560ad565b600180546001600160a01b0319169055605b81605e565b50565b5f80546001600160a01b038381166001600160a01b0319831681178455604051919092169283917f8be0079c531659141344cd1fd0a4f28419497f9722a3daafe3b4186f6b6457e09190a35050565b610b1c806100ba5f395ff3fe608060405260043610610108575f3560e01c80638456cb5911610092578063c06e639b11610062578063c06e639b14610291578063df75f771146102bc578063e30c3978146102db578063eeab8ed0146102f8578063f2fde38b1461030b575f5ffd5b80638456cb591461021e57806389cf3204146102325780638da5cb5b14610256578063a3ff39b214610272575f5ffd5b80635c975abb116100d85780635c975abb1461017e57806363bd1d4a146101a05780636cd7751f146101d7578063715018a6146101f657806379ba50971461020a575f5ffd5b806318fd890314610113578063313dab20146101345780633f4ba83a146101555780634d21af9614610169575f5ffd5b3661010f57005b5f5ffd5b34801561011e575f5ffd5b5061013261012d366004610a3f565b61032a565b005b34801561013f575f5ffd5b50475b6040519081526020015b60405180910390f35b348015610160575f5ffd5b506101326104a3565b348015610174575f5ffd5b5061014260055481565b348015610189575f5ffd5b5060035460ff16604051901515815260200161014c565b3480156101ab575f5ffd5b506004546101bf906001600160a01b031681565b6040516001600160a01b03909116815260200161014c565b3480156101e2575f5ffd5b506101326101f1366004610a6f565b6104b5565b348015610201575f5ffd5b5061013261050c565b348015610215575f5ffd5b5061013261051d565b348015610229575f5ffd5b50610132610561565b34801561023d575f5ffd5b506003546101bf9061010090046001600160a01b031681565b348015610261575f5ffd5b505f546001600160a01b03166101bf565b34801561027d575f5ffd5b5061013261028c366004610a6f565b610571565b34801561029c575f5ffd5b506101426102ab366004610a8f565b60066020525f908152604090205481565b3480156102c7575f5ffd5b506101326102d6366004610a3f565b6105c2565b3480156102e6575f5ffd5b506001546001600160a01b03166101bf565b610132610306366004610a8f565b6106c9565b348015610316575f5ffd5b50610132610325366004610a6f565b610793565b60035461010090046001600160a01b0316331461035a5760405163ea8e4eb560e01b815260040160405180910390fd5b610362610803565b61036a61082b565b6001600160a01b0383166103915760405163d92e233d60e01b815260040160405180910390fd5b805f036103b15760405163162908e360e11b815260040160405180910390fd5b5f82815260066020526040902054808211156103e05760405163162908e360e11b815260040160405180910390fd5b47808311156104115760405163cf47918160e01b815260048101849052602481018290526044015b60405180910390fd5b61041b8383610aba565b5f858152600660205260408120919091556005805485929061043e908490610aba565b9091555061044e9050858461084f565b846001600160a01b0316847f7a482fdeb6bc9a1376f597068a214a7a39472bb2eff1b8cad21ba04f49ddca1b8560405161048a91815260200190565b60405180910390a3505061049e6001600255565b505050565b6104ab6108de565b6104b361090a565b565b6104bd6108de565b6001600160a01b0381166104e45760405163d92e233d60e01b815260040160405180910390fd5b600380546001600160a01b0390921661010002610100600160a81b0319909216919091179055565b6105146108de565b6104b35f61095c565b60015433906001600160a01b031681146105555760405163118cdaa760e01b81526001600160a01b0382166004820152602401610408565b61055e8161095c565b50565b6105696108de565b6104b3610975565b6105796108de565b6001600160a01b0381166105a05760405163d92e233d60e01b815260040160405180910390fd5b600480546001600160a01b0319166001600160a01b0392909216919091179055565b6004546001600160a01b031633146105ed5760405163ea8e4eb560e01b815260040160405180910390fd5b6105f5610803565b6105fd61082b565b6001600160a01b0383166106245760405163d92e233d60e01b815260040160405180910390fd5b805f036106445760405163162908e360e11b815260040160405180910390fd5b47808211156106705760405163cf47918160e01b81526004810183905260248101829052604401610408565b61067a848361084f565b836001600160a01b0316837fbeaa99d72a600712e4656a7da04b2cabe31fb50fbf8f5b5f96513b0a4f495c1a846040516106b691815260200190565b60405180910390a35061049e6001600255565b60035461010090046001600160a01b031633146106f95760405163ea8e4eb560e01b815260040160405180910390fd5b61070161082b565b345f036107215760405163162908e360e11b815260040160405180910390fd5b3460055f8282546107329190610ad3565b90915550505f8181526006602052604081208054349290610754908490610ad3565b9091555050604051348152339082907ffbf1458fbbddabb878de144276216e8ccda619cbac2d598e6ee37ff72173afb19060200160405180910390a350565b61079b6108de565b600180546001600160a01b0383166001600160a01b031990911681179091556107cb5f546001600160a01b031690565b6001600160a01b03167f38d16b8cac22d99fc7c124b9cd0de2d3fa1faef420bfe791d8c362d765e2270060405160405180910390a350565b600280540361082557604051633ee5aeb560e01b815260040160405180910390fd5b60028055565b60035460ff16156104b35760405163d93c066560e01b815260040160405180910390fd5b5f826001600160a01b0316826040515f6040518083038185875af1925050503d805f8114610898576040519150601f19603f3d011682016040523d82523d5f602084013e61089d565b606091505b505090508061049e5760405162461bcd60e51b815260206004820152600d60248201526c11551217d4d1539117d1905253609a1b6044820152606401610408565b5f546001600160a01b031633146104b35760405163118cdaa760e01b8152336004820152602401610408565b6109126109b2565b6003805460ff191690557f5db9ee0a495bf2e6ff9c91a7834c1ba4fdd244a5e8aa4e537bd38aeae4b073aa335b6040516001600160a01b03909116815260200160405180910390a1565b600180546001600160a01b031916905561055e816109d5565b61097d61082b565b6003805460ff191660011790557f62e78cea01bee320cd4e420270b5ea74000d11b0c9f74754ebdbfc544b05a25861093f3390565b60035460ff166104b357604051638dfc202b60e01b815260040160405180910390fd5b5f80546001600160a01b038381166001600160a01b0319831681178455604051919092169283917f8be0079c531659141344cd1fd0a4f28419497f9722a3daafe3b4186f6b6457e09190a35050565b80356001600160a01b0381168114610a3a575f5ffd5b919050565b5f5f5f60608486031215610a51575f5ffd5b610a5a84610a24565b95602085013595506040909401359392505050565b5f60208284031215610a7f575f5ffd5b610a8882610a24565b9392505050565b5f60208284031215610a9f575f5ffd5b5035919050565b634e487b7160e01b5f52601160045260245ffd5b81810381811115610acd57610acd610aa6565b92915050565b80820180821115610acd57610acd610aa656fea26469706673582212209ea2686f5e3b8d20c2fbca51667e583087cdc3464285c1e8e4a3ab8f33c7fe0d64736f6c634300081d0033",
  "linkReferences": {},
  "deployedLinkReferences": {},
  "immutableReferences": {},
  "inputSourceName": "project/src/core/Treasury.sol",
  "buildInfoId": "solc-0_8_29-13d48ff54a43ea8e4acb9b5708c88942c4f8c29f"
}